:020000041000EA
:1000000000B5324B212058609868022188439860DF
:10001000D860186158612E4B002199600221596106
:100020000121F02299502B49196001219960352056
:1000300000F044F80222904214D00621196600F024
:1000400034F8196E01211966002018661A6600F04E
:100050002CF8196E196E196E052000F02FF8012189
:100060000842F9D1002199601B49196000215960AB
:100070001A491B48016001219960EB211966A021F2
:10008000196600F012F800219960164914480160C1
:100090000121996001BC002800D000471248134993
:1000A000086003C880F30888084703B5996A0420EC
:1000B0000142FBD001200142F8D103BD02B5186610
:1000C0001866FFF7F2FF186E186E02BD00000240BE
:1000D000000000180000070000035F00212200005C
:1000E000F4000018222000A00001001008ED00E03C
:1000F00000000000000000000000000074B24E7A12
:1001000000200420F7010010CB010010CD010010E9
:10011000C9010010C9010010C9010010C901001077
:10012000C9010010C9010010C9010010CF01001061
:10013000C9010010C9010010D1010010D301001045
:10014000C1010010C1010010C1010010C101001067
:10015000C1010010C1010010C1010010C101001057
:10016000C1010010C1010010C1010010C101001047
:10017000C1010010C1010010C1010010C101001037
:10018000C1010010C1010010C1010010C101001027
:10019000C1010010C1010010C1010010C101001017
:1001A000C1010010C1010010C1010010C101001007
:1001B000C1010010C1010010C1010010C1010010F7
:1001C000EFF30580103800BE00BE00BE00BE00BECA
:1001D00000BE00BEF2EB8871B0E70010D4E700105B
:1001E0003802001090A31AE71E481F49086006C88D
:1001F00081F3088810471D480068002801D019487D
:10020000F3E70DA40ECC002902D000F012F8F9E7B4
:100210001749184A002000E001C19142FCD116495B
:100220008847164988471649884700BEFDE701C937
:1002300001C29A42FBD37047D4E70010C0000020EF
:100240000014002014FB0010000004200000042013
:1002500014FB001000100420001004200000000017
:10026000704700000000000008ED00E0000000D032
:1002700000140020F0C1032019AD0010C50B0010C0
:1002800011AD0010F8B5C04610B5064C2378002B10
:1002900007D1054B002B02D0044800E000BF01232A
:1002A000237010BD909B032000000000FCDD0010B7
:1002B000044B10B5002B03D00349044800E000BFF5
:1002C00010BDC04600000000949B0320FCDD001020
:1002D000F8B5CE464746D024802580B506002406D2
:1002E000AD041C480F0090460AF0A8FE6561EFF3CC
:1002F000108972B618480AF0A1FEC82007F03CFF2A
:100300008021300049010DF017FDA56113480AF066
:1003100095FE642007F030FF424639003000A561A9
:100320000DF0F2FC0E480AF089FEC82007F024FF09
:10033000656189F310880B480AF080FEC82007F039
:100340001BFFA56108480AF079FEC0BCB946B0465B
:10035000F8BDC04600DE00100CDE001020DE0010EC
:1003600030DE001040DE001054DE0010F0B5DE4636
:100370004E4645465746E0B505008FB0080002914D
:100380000DF070FC81460390082801DD08230393DB
:10039000404B00219C46404B002798463F4E40482A
:1003A0003468002C1DDD002203684C436B439A46E1
:1003B00063461B689B1853441F55036834686B439E
:1003C0009A4663464C431B689B1853441B1944468A
:1003D000246801321F5534689442E5DC0131082954
:1003E000DFD14B46002B43D02E4B00279B46294B99
:1003F00099462B4B9846284B9A46029B0021D85D84
:100400005B4603E001312133642909D01A78824226
:10041000F8D14B0159182122594405A809F076F961
:10042000002C25DD02AB0D219C4600226144434691
:1004300018684B4668431B687C439B181B18087858
:100440000131185543461C684B466C431B683068A5
:100450009B181B195446784324681B18C87B01322B
:10046000185534689442E2DC039B0137BB42C4DC7C
:1004700040230D4A3C21137000230C4800930C4B81
:100480000DF0E6FB0FB0F0BCBB46B246A946A04655
:10049000F0BDC0460CB90320201300200C1300202F
:1004A0001C130020B09B032094A80320E813002015
:1004B00001040000F0B5DE464E4645465746E0B51D
:1004C000050091B0080003910DF0CCFB814604902B
:1004D000082801DD08230493484B00219C46484B23
:1004E00000279846474E48483468002C1DDD0022FE
:1004F00003684C436B439A4663461B689B185344FE
:100500001F55036834686B439A4663464C431B6827
:100510009B1853441B194446246801321F55346804
:100520009442E5DC01310829DFD14B46002B53D042
:10053000324B00279946344B05959846304B9A46E6
:10054000039B0021D85D314B03E001312133642945
:100550000BD01A788242F8D14B0159182B4B21222B
:100560009C4607A8614409F0D1F8002C34DD04ABA7
:100570000D219C46002505986144029747463F6837
:100580000B784743BB46029FDB437C43A4464C4663
:1005900067462468DBB264195C44E3550B7043463C
:1005A0001B68346843439C46029B0A7C5C434B4671
:1005B0001B68D2435B1963441B1954462468D2B2AA
:1005C0001A55346801350A740131AC42D6DC029FF9
:1005D000049B0137BB42B3DC40230D4A3C2113701E
:1005E00000230C4800930C4B0DF032FB11B0F0BC13
:1005F000BB46B246A946A046F0BDC0460CB9032092
:10060000201300200C1300201C130020B09B03209B
:1006100094A80320E813002001040000094B1B7874
:10062000002B0ED1084A094BD35C002B04D1D023F8
:100630001B065A685A68FCE7D0231B065A685A689A
:10064000FCE77047E5C10320A8AC03204C04000080
:1006500010B5184B1B78012B19DD0022164B1A60C0
:100660001649174B0A0013CB13C213CB13C213CB7B
:1006700013C213CB13C21349134B0A0013CB13C27B
:1006800013CB13C213CB13C213CB13C210BD0A4A30
:100690001360002BE4D009490C4B0A0013CB13C2A2
:1006A00013CB13C213CB13C213CB13C20549084B90
:1006B000E3E7C0467CB90320A0B7032090110020D7
:1006C000C011002078120020A8120020F011002094
:1006D000D812002070B505211A2006F073FC052100
:1006E0001B2006F06FFC05211C2006F06BFC204C43
:1006F000206806F075FDD0212268002409060B6AE7
:100700001C4E5A401C4B1D4D1B681340CB62305988
:10071000002106F09FFC28590021043406F09AFCC1
:10072000302CF4D12C00303501CC0022012106F010
:1007300063FCAC42F8D101211B2006F077FC0022BB
:1007400001211B2006F058FC012204210C4B1B2028
:1007500006F0BEFC192006F023FDD02380221B06E4
:100760009204002119205A6206F074FC70BDC04644
:100770001813002078120020101300209011002080
:10078000016C001010B501211C2006F04FFC064B37
:10079000012204211C2006F09BFC07F0B9FC034B4E
:1007A0001860596010BDC046016C00108899032084
:1007B000F0B5DE4657464E464546E0B5BF4BC04C09
:1007C000C04A8BB01978E15401339342FAD1BE4B41
:1007D000BA4A1F009446BD4E644401214F37143E6F
:1007E00099460025B346BC46A0464942AC00641970
:1007F000A000241846460122002759629962D96256
:10080000196359639963D963196459649964D96404
:1008100019650195029405E0012818D130785861D6
:1008200001320136501E032A0ED0022807DC0028B0
:10083000F2D13478092C62D85C601870F0E7032894
:1008400005D130789860EBE730789861E8E7307848
:100850000400651EAC41A24664465546A5540128D5
:100860000BD19400A2465C46554602986459C019C3
:1008700008308000484444600137102AD0D15432F7
:100880009246543AD4449246019D64330135D04493
:100890000C2DABD18E4B00261F00049300220023A9
:1008A0008C4D029538002900012404E0962C2CD0B0
:1008B0004031403001340A604B608A60CB600A618D
:1008C0004B618A61CB610A624B628A62CB620A63C6
:1008D0004B638A63CB63026043608260C3600261E2
:1008E00043618261C361026243628262C3620263E6
:1008F00043638263C363012CD8D12C60D8E7200006
:100900000A385860012018708AE7962189018C46C0
:100910000136654467440C2EC4D16F4B6F4A1B6887
:1009200005926F4A0793013B93465A1E9341043345
:100930009B000693F0235B0303936A4B01930133FF
:10094000FF338020039A40051100844661448C46A1
:1009500090466549654C8D1A029A44440027E0464A
:1009600094464246019901328A1A022A00D895E03B
:1009700042461168A9500432A242FAD161463E00B3
:10098000019A772E1FDC10780860507848609078C4
:100990008860D078C8601079086150794861907992
:1009A0008861D079C861107A0862507A4862907A7A
:1009B0008862D07AC862107B0863507B4863907B62
:1009C0008863D07BC8631032013640319A42D8D157
:1009D0008022520092468022D200D0449246802249
:1009E000013D01341037D444FF3DFF34520097429B
:1009F000B7D1802149018C46039A624403925A463A
:100A00001268052A51D0059A962104320592642273
:100A100094468901E3448C46F621029A49036244D4
:100A20000292049A62440492039A8A4289D1304A1B
:100A3000304B31491078985401328A42FAD12C4A0D
:100A40004946944663441A784846CA605A780A6709
:100A5000D42299788150D9786432815019796432DE
:100A60008150597964328150997964328150D979B1
:100A700064328150197A64328150597A64328150DB
:100A8000997A64328150DA7A8B23DB00C2500BB042
:100A9000F0BCBB46B246A946A046F0BD424611781E
:100AA000A9540132A242FAD168E7079A0499012AAF
:100AB0005BD00127029ABA464FE0C04600001F10E3
:100AC0007CB9E40F00011F10A8AC032078120020AD
:100AD0000014002000D60120A0B70320C8B10320D5
:100AE000ACAC03207CBA03207CBA031000010010D8
:100AF00000F01E107CCBE40F00F11E10966CD56C3C
:100B0000146D506D576C08610F604E608D60CC6045
:100B1000946D069840320C50106A966A8046506A6E
:100B2000D56A8446506B146B0990D06B976B089014
:100B3000D0694E6288614046C86160460862099883
:100B40008D620863CC624F630898886301208446F5
:100B5000E24450464031962832D0106C0028CDD166
:100B600057467A1E05990A604DE70127029A23E04D
:100B7000D46C106D956C566C4D600E608C60C860C6
:100B8000506D01374861946D069840320C50D06921
:100B90008861106AC861506A0862906A4862D06AC7
:100BA0008862106BC862506B0863906B4863D06BAF
:100BB00088634031962F03D0106C0028D8D1D0E73D
:100BC0009522CFE710B50A4B0A480B491A78C25450
:100BD00001338B42FAD1FFF73BFDFFF77BFDFFF7B7
:100BE000E7FD06480CF01CFFFFF7CCFDFEE7C04612
:100BF00000001D107CB9E60F00011D101D0600103D
:100C0000F0B5D6464F464646B74BC0B51B5CB74A13
:100C1000002B00D1C3E06421414351184C68012CE2
:100C200000D169E1A31E012B00D8E0E1042C00D122
:100C300012E3A31F012B00D93CE1AD4B1B68062C2E
:100C400001D100F016FC022B00DD92E26421414349
:100C500051184D6A6B1C00D12CE1A64B5E5D002E35
:100C600000D027E101242700AF40BC46D0273F0633
:100C7000B846A14667464446A7615E558D6A6E1C1C
:100C800000D117E15E5D002E00D013E14F46AF406A
:100C9000A7615E55CD6A6E1C00D10BE15E5D002E32
:100CA00000D007E14F46AF40A7615E550D6B6E1C4B
:100CB00000D1FFE05E5D002E00D0FBE04C464746D1
:100CC000AC40BC614C6B5E55611C00D1F2E0195D1B
:100CD000002900D0EEE04D46A540BD6100251D5520
:100CE000642444431519AC6B4146661C00D1E1E015
:100CF0001F5D002F00D0DDE04E46A6408E611F55DF
:100D0000EC6B661C00D1D5E01F5D002F00D0D1E058
:100D10004E46A6408E611F552C6C661C00D1C9E062
:100D20001F5D002F00D0C5E04E46A6408E611F55C6
:100D30006C6C661C00D1BDE01F5D002F00D0B9E0D7
:100D400049464646A140B161A96C1F554C1C00D1D3
:100D5000B0E05C5C002C00D0ACE0013426004546DD
:100D60008E40AE6100265E54642148431218D16C57
:100D7000481C00D19EE0585C002800D09AE0260074
:100D80008E40AE615854116D4A1C00D192E0585CFF
:100D9000002800D08EE08C40AC6158548AE0642377
:100DA0004343D318596A4B1C7ED0524B5C5C002CD9
:100DB00005D10125D0268D403606B5615C546421ED
:100DC00041435118896A4C1C6ED05C5C002C05D1E3
:100DD0000125D0268D403606B5615C54642141431F
:100DE0005118C96A4C1C5FD05C5C002C05D10125F0
:100DF000D0268D403606B5615C54642141435118BC
:100E0000096B4C1C50D05C5C002C58D064214143D1
:100E10005118496B4C1C47D05C5C002C56D06421A7
:100E200041435118896B4C1C3ED05C5C002C54D063
:100E3000642141435118C96B4C1C35D05C5C002CBB
:100E400000D1B8E0642141435118096C4C1C2BD0EF
:100E50005C5C002C00D1B5E0642141435118496C21
:100E60004C1C21D05C5C002C00D1B2E064214143D9
:100E70005118896C4C1C17D05C5C002C00D1AFE081
:100E8000642141435118C96C4C1C0DD05C5C002C92
:100E900000D15DE1642141435118096D4C1C03D020
:100EA0005C5C002C00D15AE16423584300231218E3
:100EB00013661362E0BCBA46B146A846F0BD0125F0
:100EC000D0268D403606B5615C549FE70125D026BB
:100ED0008D403606B5615C54A1E70125D0268D40D2
:100EE0003606B5615C54A3E7BCB10320A8AC03206F
:100EF000081300209CAC03204E6A731CDAD0230038
:100F0000D025B3402D066B61D14B9C558E6A771C62
:100F1000D0D02700B7406F619C55CE6A771CC9D0EE
:100F20002700B7406F619C550E6B771CC2D027001D
:100F3000B7406F619C554E6B771CBBD02700B74004
:100F40006F619C558E6B771CB4D02700B7406F61E2
:100F50009C55CE6B771CADD02700B7406F619C5578
:100F60000C6C611CA6D001210E00A6406E611955C3
:100F7000642460431218506C441C9BD00C008440C5
:100F80006C611954906C441C00D193E70C008440B0
:100F90006C611954D06C441C00D18BE70C00844068
:100FA000126D6C611954501C00D183E70800904009
:100FB000686199547EE70125D0268D403606B561DB
:100FC0005C543FE70125D0268D403606B5615C5460
:100FD00042E70125D0268D403606B5615C5445E7D1
:100FE0000125D0268D403606B5615C5448E7994B03
:100FF0001B78022C00D1B9E0002B00D1B9E06421AC
:10100000414351184D6A6B1C00D153E7904B5E5D14
:10101000002E00D04EE701242700AF40BC46D02769
:101020003F06B846A14667464446A7615E558D6AAD
:101030006E1C00D13EE75E5D002E00D03AE74F46C1
:10104000AF40A7615E55CD6A6E1C00D132E75E5D90
:10105000002E00D02EE74F46AF40A7615E550D6BC6
:101060006E1C00D126E75E5D002E00D022E74C46C4
:101070004746AC40496BBC615E554C1C00D119E73A
:101080005C5C002C00D015E74D468D40BD6100250D
:101090005D546421414351188D6B6E1C00D109E7EA
:1010A0005F5D002F00D005E74E464446AE40A66186
:1010B0005F55CD6B6E1C00D1FCE65F5D002F00D04C
:1010C000F8E64E46AE40A6615F550D6C6E1C00D131
:1010D000F0E65F5D002F00D0ECE64E46AE40A66124
:1010E0005F554D6C6E1C00D1E4E65F5D002F00D0B3
:1010F000E0E64C464646AC40896CB4615F554C1CFA
:1011000000D1D7E65C5C002C00D0D3E601252E0090
:1011100044468E40A66100265E546421484312185E
:10112000D16C481C00D1C5E6585C002800D0C1E64F
:101130002E008E40A6615854116D4A1C00D1B9E6AC
:10114000585C002800D0B5E68D40A5615854B1E642
:101150000125D0268D403606B5615C549AE60125FE
:10116000D0268D403606B5615C549DE6002B00D13B
:1011700045E7642444431419656A6B1C00D199E661
:1011800001210B00D026AB4036067361304B595518
:10119000A56A6F1C00D18DE60F00AF4077615955ED
:1011A000E56A6F1C00D185E60F00AF4077615955A5
:1011B000256B6F1C00D17DE60F00AF40776159555C
:1011C000656B6F1C00D175E60F00AF407761595514
:1011D000A56B6F1C00D16DE60F00AF4077615955CC
:1011E000E56B6F1C00D165E60F00AF407761595584
:1011F000256C6F1C00D15DE60F00AF40776159553B
:10120000656C6F1C00D155E60F00AF4077615955F2
:10121000A16C4C1C00D14DE601242600D0258E4047
:101220002D066E615C54642148431218D16C481C31
:1012300000D13FE620008840126D68615C54511C6B
:1012400000D137E62100914069619C5432E6C046E6
:101250009CAC0320E3C10320CB6998464B699845B9
:1012600000DAA4E00B6A4C6A013399460B62631CF6
:1012700000D191E0814B1F5D002F00D08CE0012553
:10128000AA46A540A846D02546462D06AE611F5564
:101290008C6AAC46651C7FD01F5D002F7CD1564602
:1012A0006546A640AE611F55CC6A611C74D01F5DB7
:1012B000002F71D101210D00D026A5403606B56161
:1012C0001F556424444317193C6B651C64D01D5D95
:1012D000AC46002D60D10D00A540B56165461D5599
:1012E0007C6B651C58D01D5DAC46002D54D10D00A3
:1012F000A540B56165461D55BC6B651C4CD01D5D98
:10130000AC46002D48D10D00A540B56165461D5580
:10131000FC6B651C40D01D5D002D3DD1A140B1612D
:101320001D553C6C611C37D0195D002934D1012753
:101330003D00A540B56119556431414351184C6CCD
:10134000651C29D01D5DAC46002D25D13D00A54072
:10135000B56165461D558C6C651C1DD01D5DAC4688
:10136000002D19D13D00A540B56165461D55CC6CD9
:10137000651C11D01D5DAC46002D0DD13D00A54072
:10138000B56165461D550C6D611C05D0195D0029C0
:1013900002D1A740B76119556423584312189369C5
:1013A000994500D086E50023D361136282E54C6A3B
:1013B000631C57D001263300D027A3403F067B6132
:1013C0002E4B1E558C6A651C4CD03500A5407D61A6
:1013D0001E55CC6A651C45D03500A5407D611E5563
:1013E0000C6B651C3ED03500A5407D611E554C6BD5
:1013F000611C37D0A64001217E6119556424444305
:101400001419A66B751C2DD00D00B5407D61995542
:10141000E66B751C26D00D00B5407D619955266C94
:10142000751C1FD00D00B5407D619955666C751C0B
:1014300018D00D00B5407D619955A66C751C11D072
:101440000D00B5407D619955E66C751C0AD00D0004
:10145000B540246D7D619955651C03D00E00A640F2
:101460007E61195564214546484301351218D561FE
:1014700020E5012B01DDFFF7E9FB7AE69CAC0320B8
:101480006422BA49F0B59624DE468B4657464E464E
:1014900045464243B64B44439A189268B549D20038
:1014A00094465A445268E0B5A418A4010E598A46DD
:1014B0000124D021B04D09062F68BC40012E00D177
:1014C0003EE18C61013E37007E427E410127AB4CFC
:1014D0006968267096268F40D0214643B618B6011B
:1014E000564476680906012E00D127E18F61013E3E
:1014F00031004E424E4101210F0066709626A968C8
:1015000046438F40D021B618B6015644B668090646
:10151000012E00D128E18F61013E31004E424E4143
:1015200001210F00A6709626E96846438F40D0211E
:10153000B618B6015644F6680906012E00D111E12D
:101540008F61013E31004E424E4101210F00E67095
:101550009626296946438F40D021B618B6015644D5
:1015600036690906012E00D1FAE08F61013E310093
:101570004E424E4101210F0026719626696946436D
:101580008F40D021B618B601564476690906012E5F
:1015900000D1E3E08F61013E31004E424E41012116
:1015A0000F0066719626A96946438F40D021B61870
:1015B000B6015644B6690906012E00D1CCE08F6110
:1015C000013E31004E424E4101210F00A671962688
:1015D000E96946438F40D021B618B6015644F669F2
:1015E0000906012E00D1B5E08F61013E31004E4267
:1015F0004E4101210F00E6719626296A46438F402D
:10160000D021B618B6015644366A0906012E00D11B
:101610009EE08F61013E31004E424E4101210F009C
:1016200026729626696A46438F40D021B618B601C5
:101630005644766A0906012E00D187E08F61013E8B
:1016400031004E424E4101210F0066729626A96A72
:1016500046438F40D021B618B6015644B66A0906F3
:10166000012E00D170E08F61013E31004E424E41AB
:10167000A67296264643B618B6013100EE6A0125D9
:10168000B540D0265144C96A360601295AD1756140
:1016900001394D426941E1726146394C85002C594E
:1016A000013259444A60A24200D132E15A68052A07
:1016B00068D09A6E052A00D172E0CC229A58052A89
:1016C00000D17CE0982252009A58052A00D187E088
:1016D000CA2252009A58052A00D193E0FC225200F7
:1016E0009A58052A00D19FE0972292009A58052A1D
:1016F00000D1ABE0B02292009A58052A00D1B7E0A1
:10170000C92292009A58052A00D1C3E0E222920031
:101710009A58052A00D1CEE0FB2292009A58052A59
:1017200000D1D9E08A22D2009A58052A00D1E4E0FB
:10173000F0BCBB46B246A946A046F0BD4F61D6E616
:101740004C61BFE6B561A3E74F618DE74F6176E776
:101750004F615FE74F6148E74F6131E74F611AE73B
:101760004F6103E74F61ECE64F61D5E6A4B8032073
:10177000A8AC032000140020781200209CAC0320A9
:10178000C8B10320002800D1D0E000215C469A684F
:10179000D200A1545A4451609A6E052A00D08CE7B9
:1017A000012800D1C7E000215C46DA6ED200A154C6
:1017B0005A445160CC229A58052A00D082E7022868
:1017C00000D1BEE0D02200215C469A58D200A1543C
:1017D0005A445160982252009A58052A00D077E75F
:1017E000032800D1B4E09A2200215C4652009A58A6
:1017F000D200A1545A445160CA2252009A58052A74
:1018000000D06BE7042800D1A9E0CC2200215C467F
:1018100052009A58D200A1545A445160FC225200FE
:101820009A58052A00D05FE7052800D19EE0FE22E5
:1018300000215C4652009A58D200A1545A4451608B
:10184000972292009A58052A00D053E7062800D123
:1018500093E0982200215C4692009A58D200A1544D
:101860005A445160B02292009A58052A00D047E7A6
:10187000072800D188E0B12200215C4692009A58E6
:10188000D200A1545A445160C92292009A58052AA4
:1018900000D03BE708287ED0CA2200215C46920097
:1018A0009A58D200A1545A445160E22292009A58A8
:1018B000052A00D030E7092874D0E32200215C46D5
:1018C00092009A58D200A1545A445160FB229200CF
:1018D0009A58052A00D025E70A286AD0FC22002160
:1018E0005C4692009A58D200A1545A4451608A2210
:1018F000D2009A58052A00D01AE70B2800D117E722
:101900002F4A59469B580022DB00CA545B445A6058
:101910000EE700224A60643242439A18D268002AD5
:1019200000D0C3E661465C466254BFE69A6E052A63
:1019300000D0C2E637E7CC229A58052A00D0C1E68B
:1019400040E7982252009A58052A00D0C0E64AE79C
:10195000CA2252009A58052A00D0BFE655E7FC2259
:1019600052009A58052A00D0BEE660E797229200FE
:101970009A58052A00D0BDE66BE7B02292009A582B
:10198000052A00D0BCE676E7C92292009A58052ABB
:1019900000D0BBE680E7E22292009A58052A00D0E8
:1019A000BAE68AE7FB2292009A58052A00D0B9E6E7
:1019B00094E78A22D2009A58052A00D0B8E69FE719
:1019C000540400000121C44AF8B513784B40137049
:1019D000C24B1A68511C032A00D18BE019600C22FB
:1019E0000021BF4807F08CFEBE4CBF4E63683068D4
:1019F000052B5ED0BD4DA36E052B00D17EE0CC2320
:101A0000E358052B00D193E098235B00E358052BA6
:101A100000D1A9E0CA235B00E358052B00D1C1E047
:101A2000FC235B00E258052A00D1D9E097239B00F4
:101A3000E358052B00D1E5E0B0239B00E358052BCC
:101A400000D10DE1C9239B00E358052B00D125E10E
:101A5000E2239B00E358052B00D14BE1FB239B00C5
:101A6000E358052B00D163E18A23DB00E358052B03
:101A700000D17BE164273B004343E3189B68DB0014
:101A8000EB185B68002B07DC002420000134FFF713
:101A9000B7F80C2CF9D1F8BDFFF7F2FC33685F43BF
:101AA000E419A368DB00ED186B68002BF3D13360F9
:101AB000F1E78F4B1B78002B0DD0A3688B4DDB001B
:101AC000EA5C002A97D1002201211000E95432601B
:101AD000FFF7D6FCDFE764334343E3189B68834D8D
:101AE000DB00EB185B68002B00D084E7A268D20013
:101AF000AB5480E7012252421A6070E77C4B5B785E
:101B0000002B07D0E36EDB00EA5C002A00D076E70A
:101B10000122D9E764334343E3189B68DB00EB18E9
:101B20005B68002B00D06AE7E26ED200AB5466E738
:101B30006F4B9B78002B08D0D023E358DB00EA5C86
:101B4000002A00D060E70222BEE764334343E31873
:101B50009B68DB00EB185B68002B00D054E7D022B9
:101B6000A258D200AB544FE7614BDB78002B09D071
:101B70009A235B00E358DB00EA5C002A00D049E7C7
:101B80000322A1E764334343E3189B68DB00EB18AF
:101B90005B68002B00D03DE79A225200A258D20089
:101BA000AB5437E7524B1B79002B09D0CC235B0099
:101BB000E358DB00EA5C002A00D031E7042283E727
:101BC00064334343E3189B68DB00EB185B68002B2E
:101BD00000D025E7CC225200A258D200AB541FE718
:101BE000434B5B79002B1BD0FE235B00E358DB00EB
:101BF000E95C002900D167E797239B00E358052B98
:101C000000D019E73A4B9B79002B19D098239B0001
:101C1000E358DB00EA5C002A00D00DE7062253E718
:101C200064334343E3189B68DB00EB185B68002BCD
:101C300000D0FBE6F832FF32A258D200AB54F5E6F2
:101C400064334343E3189B68DB00EB185B68002BAD
:101C500000D0F1E698229200A258D200AB54EBE6F5
:101C6000234BDB79002B09D0B1239B00E358DB0029
:101C7000EA5C002A00D0E5E6072225E76433434307
:101C8000E3189B68DB00EB185B68002B00D0D9E6FB
:101C9000B1229200A258D200AB54D3E6144B1B7A67
:101CA000002B09D0CA239B00E358DB00EA5C002A22
:101CB00000D0CDE6082207E764334343E3189B686E
:101CC000DB00EB185B68002B00D0C1E6CA22920053
:101CD000A258D200AB54BBE6E3C103200813002096
:101CE0009CAC0320A8AC032098AC0320A4B803202C
:101CF000BCB103202B4B5B7A002B09D0E3239B0064
:101D0000E358DB00EA5C002A00D0A7E60922DBE604
:101D100064334343E3189B68DB00EB185B68002BDC
:101D200000D09BE6E3229200A258D200AB5495E685
:101D30001C4B9B7A002B09D0FC239B00E358DB0053
:101D4000EA5C002A00D08FE60A22BDE664334343F2
:101D5000E3189B68DB00EB185B68002B00D083E680
:101D6000FC229200A258D200AB547DE60D4BDB7AE8
:101D7000002B08D00C4BE358DB00EA5C002A00D0B3
:101D800078E60B32A0E664234343E3189B68DB004C
:101D9000EB185B68002B00D06CE6034AA258D20017
:101DA000AB5471E6BCB103205404000070B50521AA
:101DB0001A2005F007F905211B2005F003F905217C
:101DC0001C2005F0FFF8224922480BF017FF0321E1
:101DD000142005F0F7F80321152005F0F3F8002290
:101DE0000121142005F008F900220121152005F039
:101DF00003F9194C206805F0F3F9D0212268174C3B
:101E0000090626000B6A164D5A40164B48361B68C9
:101E10001340CB622068002105F01CF920680121E5
:101E200005F004F900220121206805F0E5F801CC55
:101E30002B000122042105F04BF9B442EAD119200C
:101E400005F0AEF9D02380221B0692045A6270BDC1
:101E5000801A0600E813002088C103202012002009
:101E6000F54E001014130020F8B557464E46DE46D6
:101E70004546294BE0B598461E00284B284F9A4608
:101E80000023994601339B464F3E5546012408E006
:101E9000012B1BD129787161380009F059F90134FF
:101EA0000135631E032C0ED0022B07DC002BEFD173
:101EB0002978092929D871603370EDE7032B05D102
:101EC0002978B160E8E72978B161E5E72978380039
:101ED0000B005A1E93414246135509F039F9102C54
:101EE000DDD10A2009F05EF864239C46543BE044AF
:101EF0009C46E1444B466436E244C02BC5D1F0BC5D
:101F0000BB46B246A946A046F8BD0B000A3B73602B
:101F10005B463370C0E7C046F7AC03207CB90320B2
:101F20005CDE00101F4B10B51B680A2B07D81E4A39
:101F30009B00D3589F4601201C49FEF717FA10BD9D
:101F400001201B49FEF712FAF9E701201949FEF7B3
:101F50000DFAF4E701201849FEF708FAEFE701202F
:101F60001649FEF703FAEAE701201549FEF7FEF9E4
:101F7000E5E701201349FEF7F9F9E0E701201249EE
:101F8000FEF7F4F9DBE701201049FEF7EFF9D6E799
:101F900001200F49FEF7EAF9D1E701200D49FEF7CC
:101FA000E5F9CCE704B20320A0DE001098DE0010B3
:101FB00090DE001060DE001068DE001070DE0010A1
:101FC00078DE001094DE00107CDE001080DE001051
:101FD00084DE001088DE001070B5424C4248A544F3
:101FE00009F02CF880248022802000230121520057
:101FF00064024004009101910293039304910592BD
:1020000006930793089109940A930B930C910D90F2
:102010000E930F93109111931291139314911593A2
:1020200016921793189119931A941B931C911D9350
:102030001E901F9320912B942F906C46F820239193
:10204000249128912C913091349138913C91002128
:1020500023520230215401302154F8209025694642
:10206000F0264003219322932593269327922993C8
:102070002A932D932E933193329333933593369342
:10208000379339933A933B933D9300243F93FEF764
:102090001FF96D0176036D4480AB1C605C609C6031
:1020A000DC6010339D42F8D180223000520180A9BB
:1020B000FEF70EF980235B019C46F62366445B0322
:1020C0009E42E9D180220021520040A807F018FB6F
:1020D00080220648520040A9FEF7FAF890235B01DF
:1020E0009D4470BD00EEFFFFCCDE001000F01E002E
:1020F00000B5C1B06A46094B00211B6813706B46DE
:10210000FF22581C07F0FCFA8022E82069465200A2
:102110004003FEF7DDF841B000BDC046A0B7032084
:1021200010B53B4C6368072B03D83A4A9B00D35841
:102130009F46394B1B680A2B11D8384A9B00D3584D
:102140009F46A169364809F003F86369012B57DD02
:102150000822314B1A6001203249FEF707F910BD01
:102160000A222D4B1A6001202F49FEF7FFF8F6E7EF
:102170000022294B1A6001202C49FEF7F7F8EEE700
:102180000122254B1A6001202949FEF7EFF8E6E706
:102190000222214B1A6001202649FEF7E7F8DEE70C
:1021A00009221D4B1A6001202349FEF7DFF8D6E70C
:1021B0000722194B1A6001202049FEF7D7F8CEE715
:1021C0000622154B1A6001201D49FEF7CFF8C6E71D
:1021D0000522114B1A6001201A49FEF7C7F8BEE725
:1021E00003220D4B1A6001201749FEF7BFF8B6E72E
:1021F0000422094B1A6001201449FEF7B7F8AEE734
:10220000A369072BA4D8124A9B00D3589F46C04607
:1022100058B10320E8DE001004B2032008DF0010EC
:10222000D8DE001088DE001098DE001060DE00109E
:1022300068DE001070DE001090DE001084DE0010FA
:1022400080DE00107CDE001078DE001094DE0010CE
:1022500034DF0010F0B5DE4657464E464546E0B541
:10226000484B494C9B469B68A5440B2B05D8F02254
:10227000520394461B036344019302AB9C46434BB9
:10228000FF259846002300269A46414F65440124C5
:10229000772E1BDDF30F9946012C0AD053460021FF
:1022A00038002B5508F054FF102C26D00134012C97
:1022B000F4D143464A461B683800D917B34251410E
:1022C000C9B2697008F044FF0134F0E796239946DB
:1022D000611E012C3AD05A464B469268380053434F
:1022E0009B191B015B182B4A9B00D158FF232955D2
:1022F000194008F02DFF102C33D10A2008F052FEAF
:1023000002AA9446244B1035634401369D42BED147
:1023100080220198520142A9FDF7DAFF012400262C
:102320001E4D07E002AB013B1B191E70FF2C1AD09B
:1023300001346435631E0B2BF4D83800296808F08B
:1023400007FF2B6802AA013A1355F1E743461B68C1
:10235000F20FD917B3425141C9B23800697008F081
:10236000F7FE0134B4E780220D48520002A9FDF7C0
:10237000AFFF0C4B9D44F0BCBB46B246A946A046FD
:10238000F0BDC04658B10320F4EEFFFF6C120020F0
:102390005CDE001000D60120FF100000B4AC03206A
:1023A00000F01E000C110000F0B5DE4657464E4608
:1023B0004546E0B591B0824605910BF053FC83464B
:1023C0000290082801DD08239B46E34B00209C4631
:1023D000E24B00269846E24DE24F2C680021002C8B
:1023E0001DDD00223B684C434343994663461B680E
:1023F0009B184B441E553B682C68434399466346E3
:102400004C431B689B184B441B19444624680132FB
:102410001E552C689442E5DC01310829DFD10128E2
:1024200000D0F2E1029B002B00D1E5E2CE4B00266A
:102430000393C94B07AF9846C84B994653460021B2
:10244000985D039B03E00131213364290BD01A7896
:102450008242F8D14B015918039B21229C46380037
:10246000614407F053F9002C00DC5CE242467443FF
:102470007B78126849461355424612682B68944689
:1024800073437A7C096863445A542C68012C00DC3D
:1024900051E143461B6842469C467443BB78644402
:1024A000637012682B6894464A467343126863440B
:1024B0009446BA7C63445A702C68022C00DC3AE1E2
:1024C00043461B6842469C467443FB786444A370B1
:1024D00012682B6894464A467343126863449446D4
:1024E000FA7C63449A702C68032C00DC23E1434699
:1024F0001B6842469C4674433B796444E37012680F
:102500002B6894464A4673431268634494463A7D66
:102510006344DA702C68042C00DC0CE143461B6831
:1025200042469C4674437B796444237112682B684D
:1025300094464A4673431268634494467A7D6344E2
:102540001A712C68052C00DCF5E043461B684246F6
:102550009C467443BB796444637112682B6894464B
:102560004A467343126863449446BA7D63445A7181
:102570002C68062C00DCDEE043461B6842469C4685
:102580007443FB796444A37112682B6894464A46ED
:102590007343126863449446FA7D63449A712C68CD
:1025A000072C00DCC7E043461B6842469C46744348
:1025B0003B7A6444E37112682B6894464A4673433D
:1025C0001268634494463A7E6344DA712C68082C9E
:1025D00000DCB0E043461B6842469C4674437B7A6D
:1025E0006444237212682B6894464A467343126807
:1025F000634494467A7E63441A722C68092C00DC8A
:1026000099E043461B6842469C467443BB7A644447
:10261000637212682B6894464A4673431268634497
:102620009446BA7E63445A722C680A2C00DC82E01D
:1026300043461B6842469C467443FB7A6444A3723B
:1026400012682B6894464A46734312686344944662
:10265000FA7E63449A722C680B2C6CDD43461B682F
:1026600042469C4674433B7B6444E37212682B6889
:1026700094464A4673431268634494463A7F6344DF
:10268000DA722C680C2C56DD43461B6842469C4689
:1026900074437B7B6444237312682B6894464A46D8
:1026A00073431268634494467A7F63441A732C68B8
:1026B0000D2C40DD43461B6842469C467443BB7B61
:1026C0006444637312682B6894464A4673431268E5
:1026D00063449446BA7F63445A732C680E2C2ADDF7
:1026E00043461B6842469C467443FB7B6444A37389
:1026F00012682B6894464A467343126863449446B2
:10270000FA7F63449A732C680F2C14DD43461B68D0
:1027100042469C4674433B7C6444E37312682B68D6
:1027200094464A4673431268634494462022BA5C36
:102730006344DA732C680136B34500DD7EE60B4B4B
:1027400000260493044B9846044B9946049B0021B1
:102750001878039B10E0C0460CB90320201300201A
:102760000C1300201C130020B09B032054DF00102A
:102770000131213364290BD01A788242F8D14B0100
:102780005918039B21229C4607A8614406F0BEFF0E
:10279000002C00DC12E1059B0D21012B00D19AE0F9
:1027A00004AB9C46964B61449C469648964B00224F
:1027B0009B46230004006046029073439A46029BA6
:1027C0000F7C1B68BC460F789B185344BA46504692
:1027D00027680131D8552B68584673439A46029BA7
:1027E00000681B6867469B18534482462068534420
:1027F0001F542B6801329342DFDC1C000136032E8C
:1028000006D0049B01330493A0E70120E6E544468B
:102810007B4B042698467C4B99467C4B0021985D67
:10282000039B03E00131213364290BD01A788242E3
:10283000F8D14B015918039B21229C4607A86144FB
:1028400006F064FF002C35DD059B0D21002B00D127
:1028500088E004AB9C466A4B61449C4669486A4BDD
:1028600000229B46230004006046029073439A4670
:10287000029B0F7C1B68BC460F789B185344BA46DA
:10288000504627680131D8552B68584673439A46FD
:10289000029B00681B6867469B1853448246206869
:1028A00053441F542B6801329342DFDC1C00052E79
:1028B00000D081E04023564A3C2113700023554844
:1028C0000093554B0BF0C4F911B0F0BCBB46B246B7
:1028D000A946A046F0BD04AB9C4600206144744369
:1028E000A44644460B782468DB43464F24183F68CF
:1028F000DBB26444E3550B7043462C681B68744399
:102900001B181B194C460A7C2468D243A4463D4C34
:10291000D2B2246863441A552C6801300A7401311C
:102920008442DCDC6AE701365E4500DB07E7A0464F
:102930005C46039F53460021985D3B0003E0013154
:102940002133642909D01A788242F8D14B015918F1
:102950002122791807A806F0D9FE0136B442E9DC35
:102960004446ECE604AB9C46002061447443A44614
:1029700044460B782468DB43224F24183F68DBB2BF
:102980006444E3550B7043462C681B6874431B1862
:102990001B194C460A7C2468D243A446194CD2B277
:1029A000246863441A552C6801300A74013184424A
:1029B000DCDC052E00D17DE705262EE7022E00D1B6
:1029C00026E7A046154F039C023623000021B85D80
:1029D00003E001312133642909D01A788242F8D109
:1029E0004B0159182122611807A806F08FFE032E0B
:1029F00000D10CE70326E8E7094B03939FE6C046A6
:102A00000CB903201C1300202013002054DF0010F9
:102A100094A80320E81300200104000053DF0010F5
:102A2000B09B0320F0B5454657464E46DE46E44B84
:102A3000E0B59C46E34B002098460026E24DE34F6C
:102A40002C688FB00021002C1DDD00223B684C4318
:102A50004343994663461B689B184B441E553B688D
:102A60002C684343994663464C431B689B184B4470
:102A70001B194446246801321E552C689442E5DC3B
:102A800001310829DFD1012801D00120DAE7D04B3C
:102A900000269B46CF4B05AF0393C94B9846C94BC5
:102AA00099465B4600211878039B03E001312133EE
:102AB00064290BD01A788242F8D14B015918039B34
:102AC00021229C463800614406F020FE002C00DCE8
:102AD0006BE1424674437B7812684946135542467F
:102AE00012682B68944673437A7C096863445A548D
:102AF0002C68012C00DC51E143461B6842469C4691
:102B00007443BB786444637012682B6894464A46E9
:102B10007343126863449446BA7C63445A702C68C9
:102B2000022C00DC3AE143461B6842469C46744353
:102B3000FB786444A37012682B6894464A4673433A
:102B4000126863449446FA7C63449A702C68032CA0
:102B500000DC23E143461B6842469C4674433B79B4
:102B60006444E37012682B6894464A4673431268C3
:102B7000634494463A7D6344DA702C68042C00DC8C
:102B80000CE143461B6842469C4674437B7964448F
:102B9000237112682B6894464A4673431268634453
:102BA00094467A7D63441A712C68052C00DCF5E0AC
:102BB00043461B6842469C467443BB796444637138
:102BC00012682B6894464A467343126863449446DD
:102BD000BA7D63445A712C68062C00DCDEE0434663
:102BE0001B6842469C467443FB796444A371126897
:102BF0002B6894464A467343126863449446FA7DB0
:102C000063449A712C68072C00DCC7E043461B68BC
:102C100042469C4674433B7A6444E37112682B68D5
:102C200094464A4673431268634494463A7E63442A
:102C3000DA712C68082C00DCB0E043461B68424681
:102C40009C4674437B7A6444237212682B689446D2
:102C50004A4673431268634494467A7E63441A7208
:102C60002C68092C00DC99E043461B6842469C46D0
:102C70007443BB7A6444637212682B6894464A4674
:102C80007343126863449446BA7E63445A722C6854
:102C90000A2C00DC82E043461B6842469C46744393
:102CA000FB7A6444A37212682B6894464A467343C5
:102CB000126863449446FA7E63449A722C680B2C23
:102CC0006CDD43461B6842469C4674433B7B644430
:102CD000E37212682B6894464A4673431268634451
:102CE00094463A7F6344DA722C680C2C56DD4346D6
:102CF0001B6842469C4674437B7B64442373126882
:102D00002B6894464A4673431268634494467A7F1C
:102D100063441A732C680D2C40DD43461B68424601
:102D20009C467443BB7B6444637312682B6894466F
:102D30004A467343126863449446BA7F63445A73A5
:102D40002C680E2C2ADD43461B6842469C46744381
:102D5000FB7B6444A37312682B6894464A46734312
:102D6000126863449446FA7F63449A732C680F2C6C
:102D700014DD43461B6842469C4674433B7C6444D6
:102D8000E37312682B6894464A467343126863449F
:102D900094462022BA5C6344DA732C680136062E0E
:102DA0002DD001239C46E3447BE6731C052E26D0E0
:102DB000074AD618971D00213078039B10E0C046C3
:102DC0000CB90320201300200C1300201C1300203A
:102DD0005CDF0010B09B03200131213364290BD04C
:102DE0001A788242F8D14B015918039B21229C4644
:102DF00005A8614406F08AFC0136BE42DBD16E4B69
:102E00006E4F9B46002302936D4B98466D4B99463F
:102E10005B4600211878039B03E0013121336429CC
:102E20000BD01A788242F8D14B015918039B21220A
:102E30009C4605A8614406F069FC002C00DC9CE07F
:102E400002AB9C460D22604B624400219C461BE075
:102E5000107C029B3E685C4343461B685B181C1950
:102E600013780132A3552C68029B5C4343461B68D0
:102E70005B181B194C4624680131A2463C68534438
:102E800018552C688C420BDD63461B68002BDFD184
:102E9000107C1378C043DB43C0B213701074D8E7C2
:102EA000029B01330293032B03D001239C46E3448E
:102EB000AEE7464B04269B46414B404F9846414B5C
:102EC00099465B460021985D039B03E00131213365
:102ED00064290BD01A788242F8D14B015918039B10
:102EE00021229C4605A8614406F010FC002C33DD2D
:102EF00002AB9C460D22344B624400219C461BE0F1
:102F0000137C0293434674431B6838685B181C1992
:102F10001378013223544846434600682C688246A1
:102F200074431B6838685B181B19029C53441C547B
:102F30002C6801318C420CDD63461B68012BDFD10C
:102F40001378107CDB43C0431370C3B20293137435
:102F5000D8E70136082EB4D140231D4A3C21137016
:102F600000231C4800931C4B0AF072FE0FB0F0BC0B
:102F7000BB46B246A946A046F0BD029B022B98D0A4
:102F80001E00164F02360021B85D039B03E001319D
:102F9000213364290BD01A788242F8D14B01591899
:102FA000039B21229C4605A8614406F0AFFB032E3B
:102FB00000D17EE70326E6E764DF00101C13002043
:102FC0000CB9032020130020A0B7032064DF0010F9
:102FD00094A80320E81300200104000063DF001020
:102FE000F8B5284B1C68012C01DD01341C60264D0E
:102FF000264B28681968782842DC8A005218130189
:103000009B1AEE22520194469622214E4A433700E3
:10301000DB01121863449201803FF318D2191F6834
:103020001F645F685F649F689F64DF68DF641F6977
:103030001F655F695F659F699F65DF69DF651F6A5F
:103040001F665F6A5F669F6A9F66DF6ADF661F6B47
:103050001F675F6B5F679F6B9F67DF6BDF67403B3F
:103060009342DCD196235943081880014022002165
:10307000301806F045FB782C01DD78232B60F8BD75
:10308000034EEFE76C12002068120020F8B1032015
:1030900000D601200923F0B500251E4C1E4FA54483
:1030A0006B4402AC390013221800257006F02EFB89
:1030B000AE231A4E220023753C21993B3000009527
:1030C0000AF0C6FD642005F057F809236B44390067
:1030D00013221800257006F019FBAF232200237578
:1030E0003C219A3B300000950AF0B2FD642005F0C7
:1030F00043F840230A4A3C2113703000094B0095E5
:103100000AF0A6FD642005F037F80020064B9D4428
:10311000F0BDC046F4FBFFFF44E10010E8130020BF
:1031200094A80320010400000C040000F0B55746E9
:103130004E46DE464546E0B5AF4B8FB01C68AF4B00
:10314000039000219C460020AD4FAE4E002C3ADD8E
:1031500000223D683368A8464C435B0043449B18FB
:1031600018553D68A44BA8461C6833684C435B0067
:1031700043449B181B1964462468185535689E4BB8
:10318000A8461C6833683D685B004344A8464C432E
:1031900043449B1818553568974BA8461C683368FC
:1031A0003D685B004344A8464C4343449B181B19AD
:1031B00064462468013218558F4B1C689442C8DC61
:1031C00001310829C2D1039B5B79302B00D1ADE1DD
:1031D00005AB9B468C4B8D4902939C462122584659
:1031E000614406F093FA002C1EDD02AB9C460D27CD
:1031F0000026834A834B8148674414681968A446B3
:1032000049003C780568614489194C551C680137B0
:10321000610009191468A446FC7B61448C55764909
:1032200001360C68B442E8DC039B9B78302B00D15C
:10323000A1E1774B02999C4621225846614406F051
:1032400065FA002C22DD02AB9C460D2700266C4A55
:103250006C4B6A48674415681968AC4649003D786C
:10326000614489190D5514681968A4460468490019
:103270006144A446604D3C7C89192D6861444C55DD
:103280005D4901360C680137B442E4DC039B0299C6
:10329000DB78302B00D16CE15E4B9C4621225846F6
:1032A000614406F033FA002C26DD02AB9C460D2764
:1032B0000026534A534B514867441D681968AC4671
:1032C000156849006144AC463D78614489190D5543
:1032D0001C68494D6100091914682D68A4460468EA
:1032E0006144A44689193C7C61444C5542490136ED
:1032F0000C680137B442E0DC039B1B79302B00D112
:1033000029E1454B02999C4621225846614406F02A
:10331000FDF9002C23DD02AB9C460D270026384A20
:10332000384B36486744196805688C461168644410
:103330008C46640039786444A419615515682E4997
:10334000AC461C68096801376118490061440919D5
:10335000FC7B8C55284901360C68B442E3DC039BA6
:10336000022703331D00264B9946264B9846234BD4
:103370009A460326AB5D302B34D02122584627498C
:1033800006F0C4F9002C26DD02AB0D219C4600227C
:103390006144434618684B4678431B6874439B1846
:1033A0001B1808780131185543461C68124B7C43A2
:1033B00018684B461B6870439B181B1954461B1812
:1033C0002468C87B013218550B4B1C689442E0DC22
:1033D0000136062ECED12B0003331D00032F21D042
:1033E0000327C6E70E4B02999C46212258466144AA
:1033F00006F08CF9C6E7C0460C130020201300200D
:103400000CB903201C130020B09B03203F0C0000CC
:10341000810C0000C30C0000FD0B00006BA7032013
:103420009A0B0000039B02991B78302B00D190E08F
:10343000584B9C4621225846614406F067F9002CFF
:1034400027DD02AB9C460D270026534A534B5448B8
:1034500067441968E5002C1B490009191468514D8F
:10346000A4463C7861448C554E4C2D6824681968FC
:10347000E400641B4900091914680568A4463C7CF3
:10348000614489194C55474901360C680137B442EB
:10349000DFDC039B02995B78302B4DD0424B21221D
:1034A0009C465846614406F031F9002C2DDD02ABF4
:1034B0009C460D270026384A384B394867441D681A
:1034C0001968AC464900E5002C1B614409191468D1
:1034D000344DA4463C7861448C551C681968A44658
:1034E000304C2D6824684900E400641B61440919CC
:1034F00014680568A4463C7C614489194C552949E7
:1035000001360C680137B442D9DC4023274A3C21FC
:103510001370002326480093264B0AF099FB0FB046
:10352000F0BCBB46B246A946A046F0BD05AB9B46E3
:10353000214B2249029350E6214B9C465B46614455
:1035400025C925C325C925C305C905C30A781A702D
:10355000ABE71C4B6DE71C4A029B94465A466344FA
:1035600023CB23C223CB23C203CB03C21B7813700C
:10357000CFE6164B91E6C622120194465A46029BAC
:10358000634423CB23C223CB23C203CB03C21B78C8
:10359000137056E6370B00000CB903201C130020F3
:1035A000201300200C130020790B000094A80320A6
:1035B000E813002001040000B09B03201E0C000053
:1035C000580B0000160B0000DC0B0000A20C0000E2
:1035D000F0B54546DE4657464E46884BE0B51C00E2
:1035E00000250020002183B001932300012203E085
:1035F000962A15D040330132186059609860D9601E
:10360000186159619861D961186259629862D962EA
:10361000186359639863D963012AE9D12260E9E705
:1036200096239B019C46013564440C2DDDD1744BDF
:103630007449754A1878C85401339342FAD1F02777
:10364000FEF712FC714B7F039A46B8465D1CFF35AE
:1036500042466F4B80279C1A019B6E489C46002374
:1036600099467F054744404452467B1CD31A022B9F
:1036700000D8BBE03B001A68E25004338342FAD121
:1036800062465346494677291FDC1E7816605E78ED
:1036900056609E789660DE78D6601E7916615E79F7
:1036A00056619E799661DE79D6611E7A16625E7ADF
:1036B00056629E7A9662DE7AD6621E7B16635E7BC7
:1036C00056639E7B9663DE7BD663103301314032B6
:1036D0009D42D8D110239B468023DB00D9449B46D2
:1036E00080230137013C0130FF37DC44FF3CFF30D1
:1036F0005B009945B8D1802396225B019C469201DC
:10370000E0449446019B63440193F6235B03984590
:103710009ED1414A414B42491078985401328A4225
:10372000FAD13D493F4A8C4663441978D1605978B3
:103730001167D42198785050D87864315050187956
:1037400064315050587964315050987964315050F8
:10375000D87964315050187A64315050587A6431B5
:103760005050987A64315050D97A8B23DB00D15075
:1037700000222D4B1A702D4B1A702D4B1A702D4BA9
:103780001A702D4B2D491A702D4B2E4C1A702E4B42
:1037900020001A602D4B1A6001230B602C490B602E
:1037A0002C490B602C490B602C490A602C490A609B
:1037B0002C490B602C4B30211A700C3205F0A0FF05
:1037C000FA20800004F0D8FC00202849FCF7CEFD48
:1037D00027490120FCF7CAFD2000FFF7A7FC03B032
:1037E000F0BCBB46B246A946A046F0BD3B001A78E5
:1037F000E25401338342FAD142E7C04600D60120A9
:1038000000001F107CB9E40F00011F107CBA0320D8
:103810007CBA03100001001000F01E107CCBE40FF6
:1038200000F11E10A8AC0320E2C10320E1C1032077
:10383000DDC10320DFC10320E0C10320741200209A
:10384000DEC103205411002000B2032004B2032083
:1038500070120020681200206C120020FCB10320BE
:10386000AC9B032050110020E4C1032070DF001046
:103870007CDF0010F0B5D6464F4646468F4BC0B5AC
:103880001B680A2B00D913E18D4A9B00D3589F4631
:10389000642206218B4B8C4F1B685A43BA18516027
:1038A000002151619161894964225A438868BA189C
:1038B000906087480078002801D00520506064227D
:1038C0005A43C868BA18D0600878002802D05068F7
:1038D0000A3050606420584354300C223818543158
:1038E00005F014FF7B4B8022180000219A4605F05A
:1038F00007FF4F23984653465D1EBF235344994606
:10390000754EB84404370124631E032C12D0022BD9
:1039100000DD87E0002B00D1C7E0012B00D086E05E
:103920003B69AB703000295D07F012FC0134631E67
:10393000032CECD17B69EB70F4E76422614B624F9E
:103940001B6807215A43BA18A9E764225D4B5E4FF2
:103950001B6801215A43BA18A1E76422594B5A4FF8
:103960001B6802215A43BA1899E76422554B564FF7
:103970001B6803215A43BA1891E764220421514B72
:10398000514F1B685A43BA185160033951610131D4
:1039900091614E4988E7642204214A4B4A4F1B68D3
:1039A0005A43BA1851600339516102319161474954
:1039B0007AE7642204210120424B434F1B685A439B
:1039C000BA1851609161506140496DE76422042149
:1039D0003C4B3D4F1B685A43BA1851600339516143
:1039E0000431916139495FE764220421354B364F38
:1039F0001B685A43BA18516003395161063191610D
:103A0000324951E7642204202E4B2F4F1B685A4342
:103A1000B91848602D49103288694C69BA18546049
:103A2000906041E7032B02D17B682B717AE7434614
:103A3000195D3000295507F08BFB102C00D075E77D
:103A40000A2007F0AFFA64239C461035E04464373F
:103A50004D4500D057E78022F820520051464003E0
:103A6000FCF736FCFEF7F6FB1C4D00202900FCF7A6
:103A70007DFC1B4C01202100FCF778FCFA20400063
:103A800004F07AFB29000020FCF714FD210001203E
:103A9000FCF710FDFA20400004F06EFBFFF798FDE4
:103AA000E0BCBA46B146A846F0BD3B686B7039E74A
:103AB000044B054F1B680549F6E6C04604B20320D7
:103AC00094DF0010F8B10320A8AC032058B1032004
:103AD000E4C103207CBC03205CDE001084DF001006
:103AE0008CDF001070B505009620400004F044FB08
:103AF00000220421280003F0BFFAC04B1B68022BF0
:103B00000AD0062B00D179E0012B1ED0280001221B
:103B1000042103F0B1FA70BDB94AAB1E9B009B585B
:103B2000B84C002B00D185E0012B00D0A4E06378D5
:103B3000302B00D108E20021302363705523B24AB4
:103B4000D1542000FFF7F2FAE0E7AD4AAB1E9B002C
:103B50009958AE4BAB4C1960002900D184E030235A
:103B60002370012900D1E7E16370022900D1E0E16F
:103B70003023A370032900D1D7E1E370042900D1D9
:103B8000D0E130232371052900D1C7E130236371CF
:103B9000062900D1BFE13023A371072900D1B6E186
:103BA0003023E371082900D1AEE1302323720929C3
:103BB00000D1A5E1302363720A2900D19CE13023B2
:103BC000A37201330B2900D03023E37264234B43EB
:103BD0008D4E8F496422C918300005F097FD2000F2
:103BE000FFF7A4FA7368052B00D1A8E13378002B06
:103BF0003DD001208749FCF7B9FB87E7804AAB1E1F
:103C00009B009B58814A7F4C1168834A1268002BA5
:103C10001BD0012B4AD16378302B00D1D9E1002091
:103C200030236370962359437C4B8A1892019A186B
:103C3000906086E72378302B00D1C7E10021302344
:103C400023705423704AD1547BE72378302B00D162
:103C5000B9E1002030232370962359436F4B8A1813
:103C600092019A1850606CE76D4B238080E7012029
:103C70006C49FCF77BFB49E7022B0AD1A378302B78
:103C800000D19DE100213023A37056235E4AD15418
:103C900057E7032B2CD1E378302B00D18DE10021A5
:103CA0003023E3705723584AD1544AE7022B0ED1F0
:103CB000A378302B00D17DE100203023A370962320
:103CC0005943564B8A1892019A18D06039E7032B52
:103CD0001BD1E378302B00D169E100203023E37061
:103CE000962359434D4B8A1892019A18106128E780
:103CF000042B1BD12379302B00D155E10021302337
:103D000023715823404AD1541BE7042B1BD123793C
:103D1000302B00D145E100203023237196235943F5
:103D20003E4B8A1892019A1850610AE7052B1BD165
:103D30006379302B00D131E10021302363715923A5
:103D4000314AD154FDE6052B1BD16379302B00D1CC
:103D500021E1002030236371962359432F4B8A18A9
:103D600092019A189061ECE6062B1BD1A379302BB7
:103D700000D10DE100213023A3715A23224AD154EE
:103D8000DFE6062B1BD1A379302B00D1FDE000200C
:103D90003023A37196235943204B8A1892019A1815
:103DA000D061CEE6072B1BD1E379302B00D1E9E0BF
:103DB00000213023E3715B23134AD154C1E6072B62
:103DC00032D1E379302B00D1D9E000203023E371E8
:103DD00096235943114B8A1892019A181062B0E643
:103DE000082B32D1237A302B00D1C5E000213023BB
:103DF00023725C23044AD154A3E6C04600B20320D8
:103E0000601100205411002058B10320F8B10320A4
:103E1000A8AC0320CCDF00106812002000D60120DF
:103E200031300000D8DF0010082B1BD1237A302B53
:103E300000D19EE000203023237296235943664B25
:103E40008A1892019A1850627BE6092B1AD1637A7C
:103E5000302B00D18AE00021302363725D235F4A5A
:103E6000D1546EE6092B19D1637A302B7BD0002018
:103E70003023637296235943574B8A1892019A183C
:103E800090625EE60A2B19D1A37A302B68D000210C
:103E90003023A3725E23514AD15452E60A2B1AD121
:103EA000A37A302B59D000203023A3729623594394
:103EB000494B8A1892019A18D06242E60B2B00D027
:103EC0003FE6E37A302B45D000213023E3725F23B5
:103ED000424AD15435E60B2B00D032E6E37A302B40
:103EE00035D000203023E372962359433A4B8A1889
:103EF00092019A18106324E63123A372013B64E611
:103F00003122A37262725FE6354B238157E631227C
:103F10002372E2714EE6324BE38046E63122A37112
:103F200062713DE62E4BA38035E631222371E270AB
:103F30002CE62B4B638024E63123637018E60120C6
:103F40002849FCF713FAE1E501213123F5E50120C9
:103F50003123C8E701213123B8E701203123A4E749
:103F60000121312395E70120312382E7012131230B
:103F700073E7012031235FE70121312338E7012076
:103F8000312324E70121312314E70120312300E705
:103F900001213123F0E601203123DCE60121312328
:103FA000CCE601203123B8E601213123A8E6012027
:103FB000312394E60120312380E60121312370E68C
:103FC0000121312360E60120312344E60121312320
:103FD00036E60120312324E600D6012058B1032023
:103FE00031300000C0DF0010012330B5674C684D50
:103FF00083B02B70236801332360072B12DD052368
:1040000023609620400004F0B7F8002204211B2012
:1040100003F032F82268072A00D99BE05D4993003B
:10402000CB589F46002BECD15B4A1360E9E75A4B13
:104030001B68082B00D190E0052323600123574A19
:1040400001211360564A57481360FEF7ADF900236B
:10405000012204211B202B7003F00EF803B030BDA9
:1040600001224E4B50481A60504BD9684B4259417F
:104070004B4B1960FEF798F9E9E700204C49FCF733
:1040800075F94C490120FCF771F94B48FFF74EF8E0
:104090000620FFF727FDDAE70022444B46489A60E6
:1040A00054329A5C511E8A413032027055229A5C19
:1040B000511E8A413032427056229A5C511E8A410A
:1040C0003032827057229A5C511E8A413032C2705F
:1040D00058229A5C511E8A413032027159229A5CF0
:1040E000511E8A41303242715A229A5C511E8A41D5
:1040F000303282715B229A5C511E8A413032C27129
:104100005C229A5C511E8A41303202725D229A5CB6
:10411000511E8A41303242725E229A5C511E8A419F
:10412000303282725F229B5C5A1E93413033C372DD
:10413000FEF7FCFF00201E49FCF718F901201F497B
:10414000FCF714F983E700201D49FCF70FF9FDF790
:10415000E7FF7CE7013A226079E7144B19495A6975
:10416000194C9B690A6068461849236006F092FD65
:1041700069460020FCF7FAF868462268144906F000
:1041800089FD69460120FCF7F1F860E700B20320E1
:10419000E2C103201CE0001004B20320AC9B03200A
:1041A0005011002014E00010F4DF001058B103207B
:1041B0005CDF0010D8DF001054110020E0DF001099
:1041C000E8DF00107412002070120020FCDF0010E5
:1041D00008E000109620F0B5400083B003F0CCFF5B
:1041E00000220421122002F047FF674A1368042BC3
:1041F00000D1B0E000DD90E0002B00D19EE0012B6B
:1042000000D083E0062100201160604D604A6149C2
:1042100013702A6848608A60087091008A1811013A
:10422000891A5D4EC90171189A015C4C8A58236045
:10423000002A07D00133782B00D1A3E09A018A58D5
:10424000002AF7D15A1E511E8A419B1A544F3B60D7
:10425000544B1B78002B00D092E0534A53496846D8
:1042600006F018FD69460020FCF780F83B682268DC
:104270004F49684606F00EFD69460120FCF776F8C6
:104280009623296822684B439B189B01F3185A68B0
:104290004848511E8A41303202709A68511E8A4144
:1042A00030324270DA68511E8A41303282701A69A7
:1042B000511E8A413032C2705A69511E8A413032D1
:1042C00002719A69511E8A4130324271DA69511E77
:1042D0008A41303282711A6A511E8A413032C2716B
:1042E0005A6A511E8A41303202729A6A511E8A41BC
:1042F00030324272DA6A1B6B511E8A41303282724E
:104300005A1E93413033C372FEF710FF012204217D
:10431000122002F0B1FE03B0F0BD062BF6D1264B01
:104320001A78002AF2D101321A70244B01211A6046
:10433000234B24481A60FEF737F8E7E71F4A136853
:10434000002BE3D10121204811601D4A0170136048
:10435000FEF768FBDAE71D4B1A68082AD6DC174916
:1043600009680029D2D101321A600A4B68461849FF
:104370005A6106F08FFC69460020FBF7F7FFC5E79E
:10438000144A6BE7002361E700B20320F8B1032071
:10439000E4C1032058B1032000D601206812002098
:1043A0006C120020ECC10320E4DE001040E000109D
:1043B0004CE0001054110020E0C10320AC9B03200E
:1043C0005011002054E00010DEC1032074120020C0
:1043D000FCDF00103CE000109620F0B5400083B0F8
:1043E00003F0CAFE00220421132002F045FE674AB2
:1043F0001368042B00D1B0E000DD90E0002B00D169
:104400009EE0012B00D083E0062100201160604D6A
:10441000604A614913702A6848608A600870910098
:104420008A181101891A5D4EC90171189A015C4CF4
:104430008A582360002A07D00133782B00D1A3E0EB
:104440009A018A58002AF7D15A1E511E8A419B1A96
:10445000544F3B60544B1B78002B00D092E0534AE2
:104460005349684606F016FC69460020FBF77EFFBC
:104470003B6822684F49684606F00CFC69460120FB
:10448000FBF774FF9623296822684B439B189B0116
:10449000F3185A684848511E8A41303202709A68AF
:1044A000511E8A4130324270DA68511E8A413032E0
:1044B00082701A69511E8A413032C2705A69511E87
:1044C0008A41303202719A69511E8A4130324271FA
:1044D000DA69511E8A41303282711A6A511E8A414C
:1044E0003032C2715A6A511E8A41303202729A6A5F
:1044F000511E8A4130324272DA6A1B6B511E8A4168
:10450000303282725A1E93413033C372FEF70EFE70
:1045100001220421132002F0AFFD03B0F0BD062BF1
:10452000F6D1264B1A78002AF2D101321A70244BA8
:1045300001211A60234B24481A60FDF735FFE7E795
:104540001F4A1368002BE3D1012111601D4A00218D
:104550001E481360FDF728FFDAE71D4B1A68012A91
:10456000D6DD174909680029D2D1013A1A600A4BF1
:10457000684618495A6106F08DFB69460020FBF732
:10458000F5FEC5E7144A6BE7002361E700B203209C
:10459000F8B10320E4C1032058B1032000D6012064
:1045A000681200206C120020ECC10320E4DE001031
:1045B00040E000104CE0001054110020DFC1032047
:1045C000AC9B03205011002064E000105CE0001060
:1045D00074120020FCDF00103CE00010962010B5A3
:1045E000400082B003F0C8FD00220421112002F037
:1045F00043FD764B1B68072B0BD8754A9B00D3589D
:104600009F46744A1368013B00D50A231360FDF7E7
:1046100089FC01220421112002F02EFD02B010BD00
:1046200001236D4A012113606C4A6D481360FDF748
:10463000BBFEEEE76B4B1B78002B00D0AFE0674B67
:104640001B68012BE5D1644A012167481360FDF71F
:10465000ABFEDEE7614B1B68012B00D192E0022B21
:1046600016D0624B1A68012AD3DD013A1A60604BFA
:10467000684660499A6106F00DFB69460120FBF728
:1046800075FEC6E7554B1B68012B7BD0022BC0D1B2
:104690000122514B012158481A60FDF785FEB8E709
:1046A000564B1B78002B07D001224B4B54481A6005
:1046B0000121FDF779FEACE7524B1B78002B69D145
:1046C000514C2268002AA4DD504B1B78002B6CD083
:1046D000012A71D00A2A74DC0123012223604C4B89
:1046E0001B6868464B4906F0D5FA69460120FBF77E
:1046F0003DFE494B2268196896234B439B18474A55
:104700009B01D3185A684648511E8A4130320270C4
:104710009A68511E8A4130324270DA68511E8A41CD
:10472000303282701A69511E8A413032C2705A6921
:10473000511E8A41303202719A69511E8A413032CB
:104740004271DA69511E8A41303282711A6A511EF1
:104750008A413032C2715A6A511E8A413032027225
:104760009A6A511E8A4130324272DA6A1B6B511EBC
:104770008A41303282725A1E93413033C372FEF73F
:10478000D5FC46E70122144B012126481A60FDF7AB
:104790000BFE3EE70122104B23481A6088E70022F7
:1047A000224B1A60FEF73EF933E7012A01D0013AA5
:1047B0002260174B1B6894E7154B1B681A00236097
:1047C0008FE7134B0A3A1B6822608AE700B2032086
:1047D00074E0001004B2032050110020AC9B0320B1
:1047E000F4DF0010DEC103205CE000107012002036
:1047F00058B1032008E000106CE00010DFC1032076
:1048000064E00010E0C1032068120020ECC1032026
:104810006C1200204CE00010F8B1032000D60120FB
:104820005411002014E0001054E00010A0B7032041
:10483000962010B5400082B003F09EFC00220421B7
:10484000102002F019FC764B1B68072B0CD8754A18
:104850009B00D3589F46744A136801330A2B00DD2E
:1048600000231360FDF75EFB01220421102002F0FB
:1048700003FC02B010BD00226C4B00211A606C4B8F
:1048800001326C481A60FDF78FFDEDE76A4B1B782B
:10489000002B00D0AFE0664B1B68012BE4D1634ACC
:1048A000012166481360FDF77FFDDDE7604B1B6863
:1048B000012B00D193E0022B16D0614B1A68082A15
:1048C000D2DC01321A605F4B68465F499A6106F09C
:1048D000E1F969460120FBF749FDC5E7544B1B6828
:1048E000012B7CD0022BBFD10022504B0021574816
:1048F0001A60FDF759FDB7E7554B1B78002B07D021
:1049000000224A4B53481A600021FDF74DFDABE7EA
:10491000514A1278002A6AD1504C2268772AA3DCC7
:104920004F4B1B78002B6CD04E4B1B689A4271D0BA
:10493000110009318B4270DC1A00236068464A4935
:1049400006F0A8F969460120FBF710FD474B2268E5
:10495000196896234B439B18454A9B01D3185A6804
:104960004448511E8A41303202709A68511E8A4171
:1049700030324270DA68511E8A41303282701A69D0
:10498000511E8A413032C2705A69511E8A413032FA
:1049900002719A69511E8A4130324271DA69511EA0
:1049A0008A41303282711A6A511E8A413032C27194
:1049B0005A6A511E8A41303202729A6A511E8A41E5
:1049C00030324272DA6A1B6B511E8A413032827277
:1049D0005A1E93413033C372FEF7A8FB44E700220E
:1049E000124B002124481A60FDF7DEFC3CE70F4A19
:1049F0002248136088E70122214B1A60FEF712F863
:104A000032E7184901320B6822609A4296DD1300A2
:104A10000A6093E70122226090E70A3222608DE764
:104A200000B2032094E0001004B2032050110020D3
:104A3000AC9B0320F4DF0010DEC103205CE000101B
:104A40007012002058B1032008E000106CE0001044
:104A5000DFC1032064E00010E0C1032068120020E1
:104A6000ECC103206C1200204CE00010F8B10320D0
:104A700000D601205411002014E0001054E0001072
:104A8000A0B70320F0B5DE4657464E464546962071
:104A90000123E0B5CB4E95B04000337003F06CFBC2
:104AA000002204211A2002F0E7FAC74F01243B68D4
:104AB0005A1E012A30D9C54B1B68012B34D0062B56
:104AC0001CD1C34A13785C40E4B21470002C00D0AF
:104AD000A4E0C04AC04912A806F0DCF8002012A9E0
:104AE000FBF744FCBD4BBE4A1B68BE49126812A8C6
:104AF00006F0D0F8012012A9FBF738FC00230122B0
:104B000004211A20337002F0B7FA15B0F0BCBB468E
:104B1000B246A946A046F0BDAC490A68072AEDD8BE
:104B2000B148920082589746B04A13785C40E4B28C
:104B30001470002C70D1A74AAD4912A806F0AAF84B
:104B4000012012A9FBF712FCD8E7AA4A1368013B1F
:104B5000581E8341A548C3600523A7480B60043B4A
:104B600001213B601360FDF71FFCC7E700233B609A
:104B7000A04B1B68012B61D0A04B0D93974B99461E
:104B8000974B984600230D9A3B6013709C4A137014
:104B90008F4B1B78002B00D065E18E4A8E4912A8FE
:104BA00006F078F8002012A9FBF7E0FB4B464246DE
:104BB0001B689AE7012B33D08E4B1B68012B11D059
:104BC00000233B6003330B6000208E49FBF7CEFBD4
:104BD000FDF7A8F992E7012B22D0864B1B68012B29
:104BE00000D149E1FEF7F4FC88E70023864A3B60E8
:104BF0001378002B00D019E17E480068012800D10D
:104C000036E10B60002081491370FBF7AFFB0120F8
:104C10007F49FBF7ABFB71E77E4A8DE77E4A59E798
:104C2000744B1A68012A00D11FE102223A60002267
:104C300000217A481A60FDF7B7FB5FE76F4B0D93D1
:104C40001B78002B00D129E1644B99461B68119316
:104C5000012B03DD4A46013B11931360604B196839
:104C600098460E916E4B782900DD25E11A6879236C
:104C70005B1A9C4696236B48534382460F924A1C0C
:104C8000D218920152448A465344824600219B0125
:104C900053448B46109041461800E04613008C4662
:104CA0000200186959699C68DD6800900191986953
:104CB000D96902900391186A596A04900591986A1B
:104CC000D96A06900791186B596B08900991986BF7
:104CD000D96B0A900B911868596810605160009860
:104CE000019910615161029803999061D161049812
:104CF000059910625162069807999062D1620898EE
:104D00000999106351630A980B999063D16301214B
:104D10008A46D3449460D56040334032C345C0D303
:104D2000E0460E9A119B9A4202DD42460E931360B2
:104D300096230F9A3C4853430E9A9446109A634424
:104D400094469B0163445A68511E8A413032027076
:104D50009A68511E8A4130324270DA68511E8A4187
:104D6000303282701A69511E8A413032C2705A69DB
:104D7000511E8A41303202719A69511E8A41303285
:104D80004271DA69511E8A41303282711A6A511EAB
:104D90008A413032C2715A6A511E8A4130320272DF
:104DA0009A6A511E8A4130324272DA6A1B6B511E76
:104DB0008A41303282725A1E93413033C372FEF7F9
:104DC000B5F9DFE6E1C10320AC9B032000B203206C
:104DD000ECC10320E4DE001040E000106C12002063
:104DE000681200204CE00010D4E0001058B10320FD
:104DF000C8E000105011002014E00010DFC10320B3
:104E0000E0C10320E8DF0010DEC1032070DF0010E6
:104E10007CDF0010B4E000103CE000106CE00010FB
:104E2000F8B1032000D6012054110020FDF760F9ED
:104E3000244D29000020FBF799FA234C0120210082
:104E4000FBF794FAFA20400003F096F929000020BD
:104E5000FBF730FB21000120FBF72CFBFA20400080
:104E600003F08AF9BEE6194A98E6FEF703FD45E627
:104E7000FDF7B2F8164DDCE700233B6004330B600E
:104E8000144B15491A6812A805F004FF12A9002056
:104E9000FBF76CFA114B12491A684EE6FEF7A0F8C0
:104EA000104B1B680F93104B98461B680E930F4BCB
:104EB00099460F4B10933BE71B680F930C4B1093D5
:104EC0002FE7C046B8E000108CDF00103CE0001077
:104ED000C0E0001074120020FCDF001070120020EF
:104EE00008E00010F8B10320681200206C120020C6
:104EF00000D6012010B5042900D010BD0300103BDE
:104F00000B2B03D8124A9B00D3589F46FEF7EAFDAD
:104F1000F3E7FFF78DFCF0E7FFF760FBEDE7FFF746
:104F200059F9EAE7FFF758FAE7E70A4B1B78002B35
:104F3000E3D1FFF7A7FDE0E7074B1B78002BDCD19F
:104F4000064B1B68002BD8D1FFF74EF8D5E7C046BB
:104F5000F4E00010E1C10320E2C10320AC9B032078
:104F60006D4B70B56D4C6E499C63C824A4031C64E2
:104F70006C4C59615C646C4C6C499C646C4CD961A0
:104F8000DC646C4CC4215C656B4C89019C656B4C8A
:104F90001962DC65CC243022A40581211C668024A2
:104FA0001A600905664A5962240566495A605C66BA
:104FB000654A664C996280219A609C66644A654C99
:104FC000DA60DC6600223824C905634859635967F2
:104FD000624998611C671A61DA621A63DA631A65BA
:104FE00099675F491E25D96780215D5004311635C8
:104FF0005D505C4D04315D505B4D04315D50E025EA
:1050000004315A50ED0404315D50584D04315D5067
:10501000574D04315D50574D04315D50D425043156
:10502000AD015D50544D04315D50544D04315D501F
:10503000534D04315D50534D04315A5004315D508D
:10504000514D04315D50514D04315D50D82504312E
:10505000AD035D504E4D04315D504E4D04315D50F9
:105060004D4D04315D504D4D04315A5004315D5069
:105070004B4D04315D504B4D04315D50DC25043106
:10508000AD055D50F02504316D055D50EC254649B8
:10509000464E595104355E51454E04355E51E02669
:1050A00004355A51F60504355E51424E04355E51C1
:1050B00004355A5104355C513F4DD4341D513F4D98
:1050C00004341D513E4D04341D513E4D04341A51DB
:1050D00004341D510434185192203B4C40001C50A4
:1050E000E4240430A4011C50384C04301C5004301B
:1050F00019509A21364849005850364804315A50C0
:105100000431585034480431585034480431585010
:1051100004315A5270BDC046B09B0320407F4040CE
:10512000071C20400000180C060202021C070000A9
:105130000282C4780000406070584C4643414040B1
:10514000E038040204FE0000020202040C8486829D
:1051500038E000008282824440404020404040408D
:105160004060203180C06030180C06FE0504040445
:105170000444447F4444040000FE824242424242CE
:1051800042820200004140404040602030180F0041
:105190000000C070984C44464282820000000F39E3
:1051A000204040404020311F020202020282E23AC7
:1051B0000E0200001E030000384C8482828282842A
:1051C0004C3800001E312040311E000000F88C04D5
:1051D000049CF0000000414142622232190E03009B
:1051E000F0B5412157464E464546DE46FC4BFD4A4A
:1051F000E0B599540022FC49FC485A5202315850FB
:10520000FB4804315850C02004315850F9498130CE
:10521000F94CFF30195004301C50F84C04301C502D
:10522000F74C04301C50F74C04301C50F64CF74D32
:1052300004301C50F64E04301D5004301E50F54D05
:1052400004301A50F44C04301D50F44E04301C50FD
:10525000F34C04301E5004301C50F248F24C80468F
:105260009D20454680001D50F048F14F84469E2009
:10527000654680001D503E2504301C5004301D50F2
:10528000EC4C04301F5004301C500C24EA4E043007
:105290001E5004301C50E94CE94D04301C500430C1
:1052A0001D508025E74C04301C50E74C04301C5046
:1052B000AD0504301D50E54DE54C04301D50043063
:1052C0001C50E44C04301C508A24E34E0430E401AA
:1052D0001C50E24C04301E5004301C50E04C043092
:1052E0001C50E04C04301A50DF4E04301C50043087
:1052F0001E50DE4E04301E508C260430F6031E5025
:10530000DB48BC248146B6204E4680001E50D94E54
:1053100004301E50D84E04301E500E2604301E504D
:10532000D64E0430195004301E50A40014301851C9
:105330000434A2468E24E405A34654465946195126
:10534000BE21444689005C50644604315C50CC491F
:10535000A84C19501E2104301950B64904301F5072
:1053600004301950C74904301950C7490430195046
:10537000C64904301950C64904301950C549043093
:105380001950C549043019520220C4495854C4491F
:10539000585401315C50802404315E50A40504311E
:1053A0005C5004315D5004318A469221C9018B461C
:1053B00051465E465E50802189048A46CF2156467A
:1053C00089005E5080269E4C04315C5004315A5056
:1053D00004315A50B60504315E5004315D50D52574
:1053E0009421AD005A51C903043559515146043531
:1053F0005A510435595104355C51AA4904355A5162
:1054000004355951F121844C04355C5109010435AE
:10541000595196210435C905595149460435595108
:10542000A14904355951A14904355951E221A04DF2
:10543000260089006F4C5D5004315C500431894670
:105440009C498A46494654465C50043189469A49EB
:105450008A46494654465C500431894697498A46F3
:10546000494654465C50043189464C218A46494697
:1054700054465C5092498946E8214C4689005C506C
:105480000431585004315A50764C04315A5004318A
:105490005C5004315E5004318A468A49714E8B4615
:1054A00051465C465C5004318A4687498B465146DA
:1054B0005C465C5004318A4684498B4651465C46C2
:1054C0005C5004318A46C02109068B4651465C4631
:1054D0005C5004318A467E498B4651465C465C509E
:1054E00004318A467B498B4651465C465C50043108
:1054F0008A4679498B4651465C465C5004318A465F
:1055000076498B4651465C465C5004318A46744964
:105510008B4651465C465C5004318A4671498B4645
:1055200051465C465C5004318A466F498B46514671
:105530005C465C5004318A466C498B4651465C4659
:105540005C50314C04315C5004315D5004315E508C
:1055500004318A46802149048B4651465C465C50A2
:1055600004318A46624983268B4651465C465C502C
:1055700004318A469E21C9058B4651465C465C50E3
:10558000444604315C5064465A49F6005C5004318C
:105590008C4659498846614644465C5057498C467A
:1055A00057498846614644465C5004315F50214C5F
:1055B000544FDC51204C544F9C51544E264C9F5319
:1055C0000027534E9F55534E9F55013650379F51DC
:1055D000514E0E4F9C5104369F5139004F4E9FE063
:1055E000B09B032031020000320200000000C070B6
:1055F0001C061C7000002020382E2301010101012F
:10560000232E382020004200000202FE8282828285
:10561000828244380020203F202020202020211199
:105620000E0000430000E038020204080C040202ED
:105630000000030E18102020202010184400000243
:1056400002FE0202020202040C38E000203F202089
:1056500020202010180E03000202FE82828282E2C5
:105660000202060820203F2020202023202030088E
:1056700000000202FE82828282E202023F202000BB
:1056800002020404202011093F0101004800020227
:10569000FE8282808080808282FEFFFF26030000DF
:1056A0002703000000001830FE82C2E0301A0E0608
:1056B000020200003F20200103062C383020200089
:1056C0000202FE0220203C00004D0202FE0E78C0C5
:1056D000780EFE02020020203F2000030E380E0349
:1056E00000203F2020004E000202FE061C30E08019
:1056F000070C183F040400000202040C0C04000014
:1057000038E00000140400000E0300001C04000038
:105710001E0400001F040000240400002C040000EC
:10572000874F87249F5104369A51864F864EE40056
:105730009F5120261E51A226844CF6011A51043492
:105740001E51834C834E844F1E518926834CF60094
:105750009C51834E9F5104369A51824F824E9F51E5
:10576000824F04369F51824E824F9F51824F0436A2
:105770009F51824E824F9F5104369951814F824EE4
:1057800082499F5104369A51814F824E9F51824FD8
:1057900004369F51814E824F9F51824F04369F5154
:1057A000E027814EBF059F51804F04369F51804EA8
:1057B000804F9F513E2704369F51F8277E4EBF05EC
:1057C0009F517E4F04369F517D4E7E4F9F510E2735
:1057D00004369F517C4E7D4F9F5104369C517C4C2A
:1057E0007C4E7D4F1E517D4E04341E517C4C7D4EAF
:1057F0001A510434195149467B4C1F5104341A5133
:105800007A4C7B4F1E5104341F517A4C7A4E1A51F8
:1058100004341951794C5D49185104341E51784CA7
:10582000784E00271E51784E04341E51AC26774C1A
:10583000F6031E51764E04341E51C226754C1E517D
:10584000754E04341E51754C80261D5104341A5176
:10585000734D744CB6051D5108250434FF351D5198
:10586000AE25714CED051D51704D04341D51704C29
:10587000704D1D51704D04341D51704D704C1D53B1
:10588000704C1855704C1855A320E024C000E40457
:105890001C506E486E4C1C506E4C04301C5007243B
:1058A0006D481C506D4C04301C506D486D4C1C50A4
:1058B0006D4C04301C506D486D4C1C500430195018
:1058C0006C496D4858506D48043158506C496D48CA
:1058D00058506D48043158506C496D4858506D48C7
:1058E000043158506C496D48585004315A506C4935
:1058F0006C485E5004315850B4206B49C0035A5074
:105900000431585069496A4858506A48043158501F
:1059100069496A48585004315A5069486949585091
:1059200069480431585069496948585004315A52FD
:10593000684A9F54F0BCBB46B246A946A046F0BD9B
:105940008244380020203F20340400003C04000042
:1059500044040000E0380C04040C38E002020202A7
:105960004C040000030E18105404000028242428BE
:105970005C04000010384E43200052006404000014
:10598000000202FE828244386C04000000002020E5
:105990000020203F74040000202000007C04000050
:1059A00000232E38202000538404000044428282C9
:1059B0008C04000082820408940400000810202057
:1059C0009C04000020202111A404000054000E02B9
:1059D000AC040000FE0202023F20200002020E0082
:1059E000B404000000550002BC040000C404000020
:1059F00002FE0202CC040000000F1810D4040000C4
:105A0000DC0400002020202010180F00E404000017
:105A100002020E7AEC04000000E23A0EF4040000E8
:105A2000031E301CFC0400000405000002023EE2DC
:105A30000C0500000280F01E1EF08002E23E000015
:105A40001405000016050000170500001C050000E5
:105A50003C0F000000000F3C24050000580002022B
:105A60002C0500000E1A3260C060321A34050000A6
:105A70000E0202003C050000382C06030103262C10
:105A80004405000038202000005900024C050000A9
:105A9000020E3AE2800080E2540500003A0E020253
:105AA0005C050000213F2120640500006C0500001A
:105AB00000000E020202C262740500003A0E0602E5
:105AC000002030387C0500002E23212084050000B2
:105AD000202020388A050000F0B5612157464E4647
