:020000041000EA
:1000000000B5324B212058609868022188439860DF
:10001000D860186158612E4B002199600221596106
:100020000121F02299502B49196001219960352056
:1000300000F044F80222904214D00621196600F024
:1000400034F8196E01211966002018661A6600F04E
:100050002CF8196E196E196E052000F02FF8012189
:100060000842F9D1002199601B49196000215960AB
:100070001A491B48016001219960EB211966A021F2
:10008000196600F012F800219960164914480160C1
:100090000121996001BC002800D000471248134993
:1000A000086003C880F30888084703B5996A0420EC
:1000B0000142FBD001200142F8D103BD02B5186610
:1000C0001866FFF7F2FF186E186E02BD00000240BE
:1000D000000000180000070000035F00212200005C
:1000E000F4000018222000A00001001008ED00E03C
:1000F00000000000000000000000000074B24E7A12
:1001000000200420F7010010CB010010CD010010E9
:10011000C9010010C9010010C9010010C901001077
:10012000C9010010C9010010C9010010CF01001061
:10013000C9010010C9010010D1010010D301001045
:10014000C1010010C1010010C1010010C101001067
:10015000C1010010C1010010C1010010C101001057
:10016000C1010010C1010010C1010010C101001047
:10017000C1010010C1010010C1010010C101001037
:10018000C1010010C1010010C1010010C101001027
:10019000C1010010C1010010C1010010C101001017
:1001A000C1010010C1010010C1010010C101001007
:1001B000C1010010C1010010C1010010C1010010F7
:1001C000EFF30580103800BE00BE00BE00BE00BECA
:1001D00000BE00BEF2EB887108EC001034EC001099
:1001E0003802001090A31AE71E481F49086006C88D
:1001F00081F3088810471D480068002801D019487D
:10020000F3E70DA40ECC002902D000F012F8F9E7B4
:100210001749184A002000E001C19142FCD116495B
:100220008847164988471649884700BEFDE701C937
:1002300001C29A42FBD3704734EC0010C00000208A
:10024000D81200204CFE0010000004200000042002
:100250004CFE0010001004200010042000000000DC
:10026000704700000000000008ED00E0000000D032
:10027000D8120020C01A012025AF00103D0C00103C
:100280001DAF0010F8B5C04610B5064C2378002B02
:1002900007D1054B002B02D0044800E000BF01232A
:1002A000237010BDE886002000000000F4E100107B
:1002B000044B10B5002B03D00349044800E000BFF5
:1002C00010BDC04600000000EC860020F4E10010E4
:1002D000F8B5CE464746D024802580B506002406D2
:1002E000AD041C480F0090460AF0B2FF6561EFF3C1
:1002F000108972B618480AF0ABFFC82008F042F81F
:100300008021300049010DF01BFFA56113480AF060
:100310009FFF642008F036F8424639003000A5619E
:100320000DF0EEFE0E480AF093FFC82008F02AF800
:10033000656189F310880B480AF08AFFC82008F02D
:1003400021F8A56108480AF083FFC0BCB946B04651
:10035000F8BDC046F8E1001004E2001018E20010F9
:1003600028E2001038E200104CE20010F0B5DE4642
:100370004E4645465746E0B505008FB0080002914D
:100380000DF06CFE81460390082801DD08230393DD
:10039000404B00219C46404B002798463F4E40482A
:1003A0003468002C1DDD002203684C436B439A46E1
:1003B00063461B689B1853441F55036834686B439E
:1003C0009A4663464C431B689B1853441B1944468A
:1003D000246801321F5534689442E5DC0131082954
:1003E000DFD14B46002B43D02E4B00279B46294B99
:1003F00099462B4B9846284B9A46029B0021D85D84
:100400005B4603E001312133642909D01A78824226
:10041000F8D14B0159182122594405A809F07CFA5A
:10042000002C25DD02AB0D219C4600226144434691
:1004300018684B4668431B687C439B181B18087858
:100440000131185543461C684B466C431B683068A5
:100450009B181B195446784324681B18C87B01322B
:10046000185534689442E2DC039B0137BB42C4DC7C
:1004700040230D4A3C21137000230C4800930C4B81
:100480000DF0E2FD0FB0F0BCBB46B246A946A04657
:10049000F0BDC046D4110120DC110020D411002091
:1004A000D811002088F700206C040120C012002021
:1004B00001040000F0B5DE464E4645465746E0B51D
:1004C000050091B0080003910DF0C8FD814604902D
:1004D000082801DD08230493484B00219C46484B23
:1004E00000279846474E48483468002C1DDD0022FE
:1004F00003684C436B439A4663461B689B185344FE
:100500001F55036834686B439A4663464C431B6827
:100510009B1853441B194446246801321F55346804
:100520009442E5DC01310829DFD14B46002B53D042
:10053000324B00279946344B05959846304B9A46E6
:10054000039B0021D85D314B03E001312133642945
:100550000BD01A788242F8D14B0159182B4B21222B
:100560009C4607A8614409F0D7F9002C34DD04ABA0
:100570000D219C46002505986144029747463F6837
:100580000B784743BB46029FDB437C43A4464C4663
:1005900067462468DBB264195C44E3550B7043463C
:1005A0001B68346843439C46029B0A7C5C434B4671
:1005B0001B68D2435B1963441B1954462468D2B2AA
:1005C0001A55346801350A740131AC42D6DC029FF9
:1005D000049B0137BB42B3DC40230D4A3C2113701E
:1005E00000230C4800930C4B0DF02EFD11B0F0BC15
:1005F000BB46B246A946A046F0BDC046D411012074
:10060000DC110020D4110020D811002088F7002030
:100610006C040120C0120020010400000A4B1B786A
:10062000002B0FD18423094A9B00D35C002B04D1FB
:10063000D0231B065A685A68FCE7D0231B065A6869
:100640005A68FCE77047C046B51A012080080120AF
:10065000324B1B78012B35DD0022314B1A600F2302
:100660000B21304A1360304B19600331516004395B
:10067000596003319160043999600331D1600439C4
:10068000D960083111610A3919610B3151610A3998
:1006900059610B3191610D3999610E31D1610F3979
:1006A000D961103111621139196212315162133955
:1006B000596214319162153999621931D16200225F
:1006C000DA627047164A1360002BC8D01323042146
:1006D000144A1360144B196010315160113959607C
:1006E00009319160013999600231D1600339D960D3
:1006F00004311161053919610631516107395961B8
:1007000008319161093999610A31D1610B39D96197
:100710000C3111620D3919621031C7E74C120120FA
:10072000B010012060110020A011002070B505213B
:100730001A2006F04DFD234C05211B2006F048FD34
:1007400005211C2006F044FD200006F04FFED023BA
:100750001B061A6A1C4E54401C4A1D4D1440DC6294
:1007600000243059002106F07BFD28590021043473
:1007700006F076FD302CF4D12C00303501CC00226F
:10078000012106F03FFDAC42F8D101211B2006F00B
:1007900053FD002201211B2006F034FD012204211B
:1007A0000C4B1B2006F09AFD192006F0FFFDD0230C
:1007B00080221B069204002119205A6206F050FD87
:1007C00070BDC046FF0F0000A0110020FFFF7F0C8E
:1007D00060110020316E001010B501211C2006F0C0
:1007E0002BFD064B012204211C2006F077FD07F0AB
:1007F00095FD034B1860596010BDC046316E001066
:10080000E0840020F0B5DE4657464E46454680223D
:10081000E0B5CF4CCF49520020008BB009F07CF8F6
:100820001D21CD4B8C461A0062449446142252423C
:100830009146153200259346C84F1E39B94400260B
:1008400001966E00B046A8444646F60020000122FC
:10085000B24659819981D981198259829982D98266
:10086000198359839983D98319840295039405E0E8
:10087000012E18D106785E7101320130561E032A0E
:100880000ED0022E07DC002EF2D10778092F4BD8AC
:100890005F701E70F0E7032E05D106789E70EBE7BF
:1008A00006789E71E8E7067837007C1EA741B846B7
:1008B00067464446BC54012E0ED1019FA64C3E0013
:1008C0004D46A0465644043694002C5976004644C2
:1008D00074803E0001360196102ACDD12032904618
:1008E000029D039C01353033C44410340C2DA6D135
:1008F0009B4B00251E00059300239A4C0394310066
:100900002200012004E0962814D01032103101306A
:10091000136053609360D3600B604B608B60CB605F
:100920000128F0D12070F0E73E000A3E5E705E467E
:100930001E70A1E796221201944601356444664474
:100940000C2DDCD1884A894B94460793039B884E33
:100950006344089300230693F0235B0304938022EF
:1009600052059446F022049B12066344019300232F
:1009700094460293089B634409938022019C520091
:1009800021007C4808F0C8FF8021A446794B099DCE
:1009900049001A0065448C4662449246029F772FB4
:1009A0005CDC197A4A1E91415A7A3140501E8241CC
:1009B00010029A7A0843511E8A411104DA7A0143DF
:1009C000541EA241120611431A7B8946501E8241D1
:1009D000587B3240441EA0410402987B1443421EBF
:1009E00090410204D87B2243411E88410006024305
:1009F00018789346441EA0415C783040611E8C41BB
:100A0000240220439C78611E8C4121048C46DC78B2
:100A1000611E8C4161462406084304431879010095
:100A2000481E81418C465879411E8841614600022A
:100A30003140084399794A1E914109048846D97981
:100A40002C604A1E914109068C4641464A4608439D
:100A50006146AA605A4608436860EA60103301376D
:100A6000103553459BD18022019B52000133FF3347
:100A70000193029B10330293934200D07DE78022C2
:100A800052019446049B63440493079B1B78052BF7
:100A900051D0394A069B9446962201330693079B10
:100AA000120130330793089B634494460893039BD9
:100AB000049A63440393059B63440593F6235B0305
:100AC0009A4200D04BE780222C4C2D492000520046
:100AD00008F022FF2378204A1F49D370332362781D
:100AE000CA54A2783033CA54E2783033CA542279D7
:100AF0003033CA5462793033CA542423A279FF3385
:100B0000CA545423E279FF33CA548423227AFF3330
:100B1000CA54B423627AFF33CA54E423A27AFF335F
:100B2000CA54E27A174BCA540BB0F0BCBB46B2466B
:100B3000A946A046F0BD144B059A1968481E431EED
:100B40009841039B043001296FD0012141E0C04648
:100B50004C12012000001F1080080120A01100206D
:100B600004870020D81200200000E2FF8108012045
:100B7000FF00FFFF4C13012060F9FFFF4C14012020
:100B800000F01E1013020000B01001205C7C013147
:100B900014709C7C10335470DC7894701C79D47081
:100BA0005C7914719C791454DC7994711C7AD47139
:100BB0005C7A14729C7A5472DC7A94721C7BD472C4
:100BC0005C7B14739C7B5473DC7B9473103296298A
:100BD0002FD01C7C002CD9D10139C9B2164B069AF2
:100BE000D15456E75C7C013114709C7C10335470F6
:100BF000DC7894701C79D4705C7954719C791454AD
:100C0000DC7994711C7AD4715C7A14729C7A547277
:100C1000DC7A94721C7BD4725C7B14739C7B54735F
:100C2000DC7B94731032962903D01C7C002CD9D124
:100C3000D2E70139D2E7C046FC0A0120802210B574
:100C400008495200084808F067FEFFF701FDFFF76A
:100C50006DFDFFF7D7FD05480DF0DEF8FFF7BCFD91
:100C6000FEE7C04600001D104C1201201D060010BA
:100C7000F0B5DE4657464E464546AA4BE0B51B5CEE
:100C8000A949002B00D18BE043001C1824010C194A
:100C900065789A46012D00D14CE1AB1E012B00D89E
:100CA000D0E1042D00D1ADE2AB1F012B00D91EE134
:100CB0009E4B1B68062D01D100F09CFC022B01DC31
:100CC00000F09CFC53461D182D014D190A23EE5EC1
:100CD000731C00D10BE101242300D027B3403F0651
:100CE0007B61934B9C550C22AE5E721C00D1FEE0E2
:100CF0002200B2407A619C550E22AE5E721C00D179
:100D0000F5E02200B2407A619C551022AE5E721C62
:100D100000D1ECE02200B2407A619C551222AE5E16
:100D2000721C00D1E3E02200B2407A619C5514228B
:100D3000AE5E721C00D1DAE02200B2407A619C55AE
:100D40001622AE5E721C00D1D1E02200B2407A6160
:100D50009C551822AE5E721C00D1C8E02200B24041
:100D60007A619C551A22AE5E721C00D1BFE022004F
:100D7000B2407A611C22AD5E9C556A1C00D1B6E07F
:100D800027000200D026AF405244120189181E20CD
:100D90000A5E360677615C55501C00D028E1A6E05B
:100DA00043009A461B181B01CB180A241C5F631CC6
:100DB00000D195E05E4B1D5D002D05D10126D027A9
:100DC000A6403F06BE611D555246141824010C1959
:100DD0000C25645F651C00D182E01D5D002D05D1EE
:100DE0000126D027A6403F06BE611D555246141865
:100DF00024010C190E25645F651C71D01D5D002D4A
:100E000005D10126D027A6403F06BE611D5552469A
:100E1000141824010C191022A45E621C60D01D5D00
:100E2000002D6AD05246141824010C191222A45E17
:100E3000621C55D01D5D002D66D052461418240149
:100E40000C191422A45E621C4AD01D5D002D62D0D4
:100E50005246141824010C191622A45E621C3FD0BD
:100E60001D5D002D00D1D1E05246141824010C194B
:100E70001822A45E621C33D01D5D002D00D1CCE091
:100E80005246141824010C191A22A45E621C27D0A1
:100E90001D5D002D00D1C7E05246141824010C1925
:100EA0001C22A45E621C1BD01D5D002D00D1C2E07F
:100EB0005246141824010C191E22A45E621C0FD085
:100EC0001D5D002D00D18BE15246141824010C1930
:100ED0002022A45E621C03D01D5D002D00D186E19E
:100EE00002000023524412018A18D3851372F0BC09
:100EF000BB46B246A946A046F0BD0126D027A64073
:100F00003F06BE611D558DE70126D027A6403F064E
:100F1000BE611D5591E70126D027A6403F06BE6160
:100F20001D5595E7F00A012080080120D01100200E
:100F3000740801200A23E75E7B1CD8D02B00D02642
:100F4000BB4036067361AD4BDD550C22A75E7A1CA3
:100F5000CDD02A00BA407261DD550E22A75E7A1C00
:100F6000C5D02A00BA407261DD551022A75E7A1CF6
:100F7000BDD02A00BA407261DD551222A75E7A1CEC
:100F8000B5D02A00BA407261DD551422A75E7A1CE2
:100F9000ADD02A00BA407261DD551622A75E7A1CD8
:100FA000A5D02A00BA407261DD551822A55E6A1CE0
:100FB0009DD001242700AF405044000109181A2099
:100FC0000A5E77615C55501C00D190E7200090408C
:100FD00070619C541C200A5E501C00D187E72000E1
:100FE000904070619C541E200A5E501C00D17EE728
:100FF0002000904070619C5420228A5E511C00D1D8
:1010000075E72100914071619C5470E70126D0275B
:10101000A6403F06BE611D5526E70126D027A64003
:101020003F06BE611D552BE70126D027A6403F068F
:10103000BE611D5530E70126D027A6403F06BE61A0
:101040001D5535E76E4B1B78022D00D154E2002B65
:1010500000D154E253461C1824010C190A23E65E01
:10106000731C00D143E7654B9A5D9146002A00D07E
:101070003DE701252A00B2409046D022474612069D
:10108000976194464A469A550C22A65E721C00D17E
:101090002DE79A5D9146002A00D028E72A00B24049
:1010A00090466246474697614A469A550E22A65E8A
:1010B000721C00D11BE79A5D9146002A00D016E70A
:1010C0002A00B24090466246474697614A469A5582
:1010D0001022A65E721C00D109E79F5D002F00D090
:1010E00005E76246B54095611222A45E9F55621CD9
:1010F00000D1FCE61D5D002D00D0F8E601352E0084
:101100006746A6405246BE6100261E5514182401AB
:101110000C191422A65E721C00D1E8E69A5D944672
:10112000002A00D0E3E62A00B240BA6162469A552E
:101130001622A65E721C00D1D9E69A5D9446002A5A
:1011400000D0D4E62A00B240BA6162469A5518220D
:10115000A65E721C00D1CAE69A5D9446002A00D0B1
:10116000C5E62A00B240BA6162469A551A22A65EC6
:10117000721C00D1BBE69A5D002A00D0B7E6B540EC
:10118000BD619A551C22A45E621C00D1AFE61D5DB4
:10119000002D00D0ABE601352F00D026A740360643
:1011A000B76100275044000109181E22885E1F55B0
:1011B000421C00D19BE61A5C002A00D097E62C0066
:1011C0008440B4611A542022895E4A1C00D18EE604
:1011D000585C002800D08AE68D40B561585486E6F8
:1011E0000126D027A6403F06BE611D556CE60126AC
:1011F000D027A6403F06BE611D5571E67408012048
:10120000B31A0120E6796379B34200D9C9E0267A9E
:101210000A23E55E0136F6B226726B1C00D1B5E0FA
:10122000B44B5A5D9446002A00D0AFE00132934699
:10123000AA409146D0224F461206976190466246D8
:101240005A550C22A55E6A1C00D19FE05A5D944657
:10125000002A00D09AE05F464246AF40976162465E
:101260005A550E22A55E6A1C00D18FE05A5D944645
:10127000002A00D08AE001242200D027AA403F069D
:10128000BA6162465A55524615182D01AC468C4437
:1012900062461025555F6A1C78D05A5D9046002A38
:1012A00074D12200AA40BA6142465A5562461225BC
:1012B000555F6A1C6AD05A5D9046002A66D12200AA
:1012C000AA40BA6142465A5562461425555F6A1CC7
:1012D0005CD05A5D9046002A58D12200AA40BA61DB
:1012E00042465A5562461625555F6A1C4ED05A5DD5
:1012F000002A4BD1AC40BC615A5562461825555F57
:101300006A1C43D05A5D9446002A3FD10124220032
:10131000AA40BA6162465A55524615182D01AC468C
:101320008C4462461A25555F6A1C2FD05A5D904640
:10133000002A2BD12200AA40BA6142465A55624681
:101340001C25555F6A1C21D05A5D9046002A1DD18C
:101350002200AA40BA6142465A5562461E25555F90
:101360006A1C13D05A5D9046002A0FD12200AA4071
:10137000BA6142465A5562462025555F6A1C05D01F
:101380005A5D002A02D1AC40BC615A55504400015C
:1013900009188B79B34200D0A9E50023CB710B72F9
:1013A000A5E50A22A35E9C46013300D19BE0033DE4
:1013B00062462B009340D02212065361914662464A
:1013C0004C4B9D540C27E25F9446013200D18AE0D9
:1013D00067462A00BA404F467A6162469D540E27FE
:1013E000E25F944601327ED067462A00BA404F46FB
:1013F0007A6162469D541027E25F9446013272D0B2
:101400002A006746BA404F467A6162469D541222CE
:10141000A55E6A1C67D0012427004A46AF40576189
:1014200052465C5515182D014D191422AF5ECC465D
:101430003A00B946013256D02200BA409046624680
:10144000474657614A469C541622AF5E3A00B94659
:10145000013248D02200BA40904662464746576162
:101460004A469C541822AF5E3A00B94601323AD03F
:101470002200BA4090466246474657614A469C540D
:101480001A22AF5E3A00B94601322CD02200BA408F
:1014900090466246474657614A469C541C22AF5EBE
:1014A0003A00B94601321ED02200BA409046624648
:1014B000474657614A469C541E22AF5E3A00B946E1
:1014C000013210D02200BA4090466246474657612A
:1014D0004A469C542022AD5E6A1C04D02700624616
:1014E000AF4057615C555044000109180136CE7178
:1014F000FDE4C04674080120002B00D1AAE5534644
:101500001D182D014D190A23EE5E731C00D1EEE467
:1015100001242300D027B3403F067B61A24B9C559A
:101520000C22AE5E721C00D1E1E42200B2407A616E
:101530009C550E22AE5E721C00D1D8E42200B2404F
:101540007A619C551022AE5E721C00D1CFE422005D
:10155000B2407A619C551222AE5E721C00D1C6E484
:101560002200B2407A619C551422AE5E721C00D1FA
:10157000BDE42200B2407A619C551622AE5E721C18
:1015800000D1B4E42200B2407A619C551822AE5ECC
:10159000721C00D1ABE42200B2407A619C551A2241
:1015A000AE5E721C00D1A2E42200B2407A619C556A
:1015B0001C22AC5E621C00D199E401252F00D026CC
:1015C000A7405044000109181E200A5E36067761C4
:1015D0001D55501C00D18AE42800904070619D5434
:1015E00020228A5E511C00D181E429009140716162
:1015F0009D547CE4012B01DCFFF764FB53461C186F
:1016000024010C190A23E65E731C00D16FE4664BBB
:101610009A5D9146002A00D069E401252A00B24073
:101620009046D02247461206976194464A469A55FC
:101630000C22A65E721C00D159E49A5D9146002AE4
:1016400000D054E42A00B240904662464746976173
:101650004A469A550E22A65E721C00D147E49A5D56
:101660009146002A00D042E42A00B24090466246E9
:10167000474697614A469A551022A65E721C00D1D1
:1016800035E49F5D002F00D031E46246B54095619E
:101690001222A45E9F55621C00D128E41D5D002D1E
:1016A00000D024E401352E006746A6405246BE61B4
:1016B00000261E55141824010C191422A65E721C53
:1016C00001D1FFF714FC9A5D9446002A01D0FFF780
:1016D0000EFC2A00B240BA6162469A551622A65EF6
:1016E000721C01D1FFF703FC9A5D9446002A01D0D9
:1016F000FFF7FDFB2A00B240BA6162469A551822F4
:10170000A65E721C01D1FFF7F2FB9A5D9446002A97
:1017100001D0FFF7ECFB2A00B240BA6162469A554D
:101720001A22A65E721C01D1FFF7E1FB9A5D002A26
:1017300001D0FFF7DCFBB540BD619A551C22A45EC9
:10174000621C01D1FFF7D3FB1D5D002D01D0FFF717
:10175000CEFB01263700D025A7402D06AF6100271C
:101760005044000109181E22885E1F55421C01D1F9
:10177000FFF7BDFB1C5C002C01D0FFF7B8FB32006B
:101780008240AA612022895E1C544A1C01D1FFF7C5
:10179000AEFB585C002801D0FFF7A9FB8E40AE617C
:1017A0005854FFF7A4FBC04674080120B649F0B5B1
:1017B0009624DE468B46454657464E46430098469D
:1017C000B24A1B181B01D3189B7844435B009C460C
:1017D0005B445B78AE49E4182401E0B50E5D01245A
:1017E000AC4D2F68BC40D0273F06002E00D022E130
:1017F000BC61A94C6F68267096264643F6183601E0
:101800008E197678B1460126BE404F46002F00D093
:101810000DE1D0273F06BE614E46667096264643D0
:10182000F61836018E19B678AF68B1460126BE406B
:101830004F46002F00D022E1D0273F06BE614E4622
:10184000A67096264643F61836018E19F678EF688C
:10185000B1460126BE404F46002F00D00BE1D027F5
:101860003F06BE614E46E67096264643F6183601A0
:101870008E1936792F69B1460126BE404F46002F9A
:1018800000D0F4E0D0273F06BE614E462671962672
:101890004643F61836018E1976796F69B1460126EE
:1018A000BE404F46002F00D0DDE0D0273F06BE618E
:1018B0004E46667196264643F61836018E19B6795D
:1018C000AF69B1460126BE404F46002F00D0C6E0AA
:1018D000D0273F06BE614E46A67196264643F618AF
:1018E00036018E19F679EF69B1460126BE404F46A2
:1018F000002F00D0AFE0D0273F06BE614E46E67114
:1019000096264643F61836018E19367A2F6AB14666
:101910000126BE404F46002F00D098E0D0273F065A
:10192000BE614E46267296264643F61836018E193B
:10193000767A6F6AB1460126BE404F46002F00D02E
:1019400081E0D0273F06BE614E466672962646432A
:10195000F61836018E19B67AAF6AB1460126BE4036
:101960004F46002F6BD1D0273F06BE614E46A67270
:1019700096264643F61836018919CE7A0121ED6A7A
:10198000A940D0252D06002E57D069616146E67228
:10199000424C0133245CDBB259444B709C4200D171
:1019A00029E15378052B00D17CE03123D35C052B52
:1019B00000D184E06123D35C052B00D18DE091231D
:1019C000D35C052B00D196E0C123D35C052B00D15D
:1019D0009FE0F123D35C052B00D1A8E02223FF3345
:1019E000D35C052B00D1B1E05223FF33D35C052B30
:1019F00000D1BBE08223FF33D35C052B00D1C4E0D0
:101A0000B223FF33D35C052B00D1CDE0E223FF33BB
:101A1000D35C052B00D1D6E0214BD35C052B00D144
:101A2000DFE0F0BCBB46B246A946A046F0BDD027D9
:101A30003F067E61F0E67C61DBE6A961A6E7D02780
:101A40003F067E6192E7D0273F067E617CE7D02784
:101A50003F067E6165E7D0273F067E614EE7D027CF
:101A60003F067E6137E7D0273F067E6120E7D0271B
:101A70003F067E6109E7D0273F067E61F2E6D02768
:101A80003F067E61DBE6C046B411012080080120DC
:101A900004870020A011002074080120FC0A012006
:101AA00011020000002800D1B3E000215C469378C9
:101AB0005B00E1523123D35C052B00D07AE701288B
:101AC00000D1ACE0322300215C46D35C5B00E152E4
:101AD0006123D35C052B00D071E7022800D1A4E07C
:101AE000622300215C46D35C5B00E1529123D35C0E
:101AF000052B00D068E7032800D19CE09223002149
:101B00005C46D35C5B00E152C123D35C052B00D063
:101B10005FE7042800D194E0C22300215C46D35C37
:101B20005B00E152F123D35C052B00D056E705287A
:101B300000D18CE0F22300215C46D35C5B00E152D3
:101B40002223FF33D35C052B00D04DE7062800D1BC
:101B500084E0912300215C465B00D35C5B00E15292
:101B60005223FF33D35C052B00D043E707287CD0FA
:101B7000A92300215C465B00D35C5B00E152822319
:101B8000FF33D35C052B00D03AE7082874D0C1237B
:101B900000215C465B00D35C5B00E152B223FF3363
:101BA000D35C052B00D031E709286CD0D923002164
:101BB0005C465B00D35C5B00E152E223FF33D35C05
:101BC000052B00D028E70A2864D0F12300215C46C9
:101BD0005B00D35C5B00E152314BD35C052B00D042
:101BE0001FE70B2800D11CE72E4B5946D35C00227F
:101BF0005B00CA5215E700234B7043461B181B01BC
:101C0000D318DB78002B00D0CBE661465C466354EA
:101C1000C7E63123D35C052B00D0CBE652E7612326
:101C2000D35C052B00D0CAE65AE79123D35C052B81
:101C300000D0C9E662E7C123D35C052B00D0C8E61B
:101C40006AE7F123D35C052B00D0C7E672E72223B5
:101C5000FF33D35C052B00D0C6E67AE75223FF336F
:101C6000D35C052B00D0C5E682E78223FF33D35C2B
:101C7000052B00D0C4E68AE7B223FF33D35C052BE3
:101C800000D0C3E692E7E223FF33D35C052B00D0FC
:101C9000C2E69AE7024BD35C052B00D0C1E6A3E76E
:101CA00011020000120200000121C84A70B5137829
:101CB0004B401370C64B1A68511C032A5AD0196046
:101CC0000C220021C34807F021FEC34CC34E6378A9
:101CD0003068052B52D0C24D3123E35C052B68D010
:101CE0006123E35C052B00D180E09123E35C052BAD
:101CF00000D198E0C123E35C052B00D1B0E0F123D3
:101D0000E35C052B00D1C8E02223FF33E35C052B05
:101D100000D1DFE05223FF33E35C052B00D1F8E074
:101D20008223FF33E35C052B00D111E1B223FF33A3
:101D3000E35C052B00D12AE1E223FF33E35C052BB2
:101D400000D153E1A74BE35C052B00D17FE14300B9
:101D50001B181B01E3189B785B00EB185B78002BCA
:101D600000D064E1002420000134FEF781FF0C2C38
:101D7000F9D170BD012252421A60A1E79A4B1B783B
:101D8000002B07D0A378964D5B00EA5C002AA3D114
:101D9000002038E143001B181B01E3189B78904D8D
:101DA0005B00EB185B78002B96D1A2785200AB5405
:101DB00092E78D4B5B78002B08D03223E35C5B000D
:101DC000EA5C002A00D08BE701201CE143001B18CD
:101DD0001B01E3189B785B00EB185B78002B00D0AD
:101DE0007EE73222A25C5200AB5479E77E4B9B78AF
:101DF000002B08D06223E35C5B00EA5C002A00D081
:101E000073E70220FFE043001B181B01E3189B78D7
:101E10005B00EB185B78002B00D066E76222A25CC7
:101E20005200AB5461E7704BDB78002B08D0922353
:101E3000E35C5B00EA5C002A00D05BE70320E2E0A1
:101E400043001B181B01E3189B785B00EB185B78C1
:101E5000002B00D04EE79222A25C5200AB5449E71F
:101E6000614B1B79002B08D0C223E35C5B00EA5C6A
:101E7000002A00D043E70420C5E043001B181B01E3
:101E8000E3189B785B00EB185B78002B00D036E7FB
:101E9000C222A25C5200AB5431E7534B5B79002B5A
:101EA00008D0F223E35C5B00EA5C002A00D02BE759
:101EB0000520A8E043001B181B01E3189B785B007A
:101EC000EB185B78002B00D01EE7F222A25C5200D8
:101ED000AB5419E7444B9B79002B09D091235B004D
:101EE000E35C5B00EA5C002A00D013E706208AE08E
:101EF00043001B181B01E3189B785B00EB185B7811
:101F0000002B00D006E791225200A25C5200AB5495
:101F100000E7354BDB79002B09D0A9235B00E35C9C
:101F20005B00EA5C002A00D0FAE607206BE0430081
:101F30001B181B01E3189B785B00EB185B78002BE8
:101F400000D0EDE6A9225200A25C5200AB54E7E6B5
:101F5000254B1B7A002B09D0C1235B00E35C5B009F
:101F6000EA5C002A00D0E1E608204CE043001B18A0
:101F70001B01E3189B785B00EB185B78002B00D00B
:101F8000D4E6C1225200A25C5200AB54CEE6164BFE
:101F90005B7A002B09D0D9235B00E35C5B00EA5C31
:101FA000002A00D0C8E609202DE043001B181B01C1
:101FB000E3189B785B00EB185B78002B00D0BBE646
:101FC000D9225200A25C5200AB54B5E6B31A0120EC
:101FD000D011002074080120800801207008012021
:101FE000B411012011020000F00A0120294B9A7A55
:101FF000002A0ED0F1235B00E35C5B00EA5C002A60
:1020000000D09FE60A200122EA543060FFF7CEFBA1
:10201000AFE6420012181201A21892785200AA18D4
:102020005278002A2FD01C4AA25C052A10D0FFF754
:10203000BDFB326853009B181B01E418A3785B00BA
:10204000ED186B78002B00D093E6336091E6114BCE
:10205000DB7A002B08D0114BE35C5B00EA5C002AC2
:1020600000D074E60B20CEE743001B181B01E318D9
:102070009B785B00EB185B78002BD8D1074AA25CF9
:102080005200AB546EE6F1235B00E35C5B00EA5464
:1020900058E6C046F00A01201102000012020000BA
:1020A000F8B505211A2005F093F805211B2005F04D
:1020B0008FF805211C2005F08BF8214921480BF0F1
:1020C00099FF0321142005F083F80321152005F062
:1020D0007FF800220121142005F094F8002201214C
:1020E000152005F08FF8002005F080F9D022164D5C
:1020F00012062F00136A1549154E0B40D362123792
:102100002C780021200005F0ABF80121200005F01B
:1021100093F800220121200005F074F80135330006
:1021200001220421200005F0D9F8BD42E8D1192090
:1021300005F03CF9D02380221B0692045A62F8BDB8
:10214000801A0600C01200205CE50010FC3F0F0E54
:1021500025510010F8B557464E46DE464546294BF8
:10216000E0B598461E00284B284F9A460023994612
:1021700001339B461D3E5546012408E0012B1BD12F
:1021800029787171380009F0EDF801340135631ECA
:10219000032C0ED0022B07DC002BEFD12978092964
:1021A00029D871703370EDE7032B05D12978B17010
:1021B000E8E72978B171E5E7297838000B005A1E65
:1021C00093414246135509F0CDF8102CDDD10A2079
:1021D00008F0F2FF30239C46203BE0449C46E1445B
:1021E0004B463036E244C02BC5D1F0BCBB46B246AC
:1021F000A946A046F8BD0B000A3B73705B463370DE
:10220000C0E7C0469D0801204C12012054E2001096
:102210001F4B10B51B680A2B07D81E4A9B00D358CA
:102220009F4601201C49FEF7A1F810BD01201B4963
:10223000FEF79CF8F9E701201949FEF797F8F4E753
:1022400001201849FEF792F8EFE701201649FEF742
:102250008DF8EAE701201549FEF788F8E5E7012047
:102260001349FEF783F8E0E701201249FEF77EF8F4
:10227000DBE701201049FEF779F8D6E701200F4986
:10228000FEF774F8D1E701200D49FEF76FF8CCE7AF
:10229000140B012098E2001090E2001088E2001078
:1022A00058E2001060E2001068E2001070E20010D6
:1022B0008CE2001074E2001078E200107CE2001062
:1022C00080E2001070B5424C4248A54408F0C0FFBF
:1022D00080248022802000230121520064024004D7
:1022E0000091019102930393049105920693079341
:1022F000089109940A930B930C910D900E930F93F0
:1023000010911193129113931491159316921793A0
:10231000189119931A941B931C911D931E901F934F
:1023200020912B942F906C46F82023912491289192
:102330002C913091349138913C91002123520230FC
:10234000215401302154F82090256946F02640039D
:102350002193229325932693279229932A932D93B1
:102360002E93319332933393359336933793399336
:102370003A933B933D9300243F93FDF7A9FF6D01F2
:1023800076036D4480AB1C605C609C60DC60103345
:102390009D42F8D180223000520180A9FDF798FFBC
:1023A00080235B019C46F62366445B039E42E9D191
:1023B00080220021520040A807F0A8FA8022064897
:1023C000520040A9FDF784FF90235B019D4470BD3E
:1023D00000EEFFFFC4E2001000F01E0000B5C1B027
:1023E0006A46094B00211B6813706B46FF22581C7C
:1023F00007F08CFA8022E820694652004003FDF77E
:1024000067FF41B000BDC046B010012010B53B4C85
:102410006378072B03D83A4A9B00D3589F46394B21
:102420001B680A2B11D8384A9B00D3589F46A179C4
:10243000364808F097FF6379012B57D90822314BB2
:102440001A6001203249FDF791FF10BD0A222D4B81
:102450001A6001202F49FDF789FFF6E70022294B7A
:102460001A6001202C49FDF781FFEEE70122254B80
:102470001A6001202949FDF779FFE6E70222214B86
:102480001A6001202649FDF771FFDEE709221D4B86
:102490001A6001202349FDF769FFD6E70722194B8F
:1024A0001A6001202049FDF761FFCEE70622154B97
:1024B0001A6001201D49FDF759FFC6E70522114B9F
:1024C0001A6001201A49FDF751FFBEE703220D4BA8
:1024D0001A6001201749FDF749FFB6E70422094BAE
:1024E0001A6001201449FDF741FFAEE7A379072BDD
:1024F000A4D8124A9B00D3589F46C046C00A012068
:10250000E0E20010140B012000E30010D0E2001004
:1025100080E2001090E2001058E2001060E200102B
:1025200068E2001088E200107CE2001078E20010FF
:1025300074E2001070E200108CE200102CE3001036
:10254000F0B5DE4657464E464546E0B5484B494C49
:102550009B469B78A5440B2B05D8F022520394464A
:102560001B036344019302AB9C46434BFF259846F3
:10257000002300279946414E65440124772F1BDD37
:10258000FB0F9A46012C0AD04B46002130002B55F8
:1025900008F0E8FE102C26D00134012CF4D143467B
:1025A00052461B683000D917BB425141C9B269700D
:1025B00008F0D8FE0134F0E796239A46FB0F00930B
:1025C000621E012C38D05B4651469B7830004B434D
:1025D0002B49DB198C461B016344995C295508F093
:1025E000C1FE102C33D10A2008F0E6FD02AA944661
:1025F000244B1035634401379D42BED1802201989F
:10260000520142A9FDF764FE012400271E4D07E098
:1026100002AB013B1B191F70FF2C1AD0013430355F
:10262000631E0B2BF4D83000297808F09BFE2B7822
:1026300002AA013A1355F1E743461B68009AD917DD
:10264000BB425141C9B23000697008F08BFE0134C1
:10265000B6E780220D48520002A9FDF739FE0C4B67
:102660009D44F0BCBB46B246A946A046F0BDC0465C
:10267000C00A0120F4EEFFFF9411002054E2001084
:10268000D8120020FF1000008308012000F01E0077
:102690000C110000F0B5DE4657464E464546E0B503
:1026A00091B0824605910BF0D9FC83460290082830
:1026B00001DD08239B46E34B00209C46E24B0026AD
:1026C0009846E24DE24F2C680021002C1DDD0022CF
:1026D0003B684C434343994663461B689B184B44F5
:1026E0001E553B682C684343994663464C431B6820
:1026F0009B184B441B194446246801321E552C6814
:102700009442E5DC01310829DFD1012800D0F2E153
:10271000029B002B00D1E5E2CE4B00260393C94B70
:1027200007AF9846C84B994653460021985D039BD6
:1027300003E00131213364290BD01A788242F8D1A9
:102740004B015918039B21229C463800614407F035
:10275000E3F8002C00DC5CE2424674437B781268AC
:1027600049461355424612682B68944673437A7C57
:10277000096863445A542C68012C00DC51E143463B
:102780001B6842469C467443BB786444637012687D
:102790002B6894464A467343126863449446BA7C55
:1027A00063445A702C68022C00DC3AE143461B68F3
:1027B00042469C467443FB786444A37012682B68BD
:1027C00094464A467343126863449446FA7C6344D1
:1027D0009A702C68032C00DC23E143461B684246B8
:1027E0009C4674433B796444E37012682B689446BA
:1027F0004A4673431268634494463A7D6344DA70F0
:102800002C68042C00DC0CE143461B6842469C46C5
:1028100074437B796444237112682B6894464A465A
:1028200073431268634494467A7D63441A712C683A
:10283000052C00DCF5E043461B6842469C46744389
:10284000BB796444637112682B6894464A467343AB
:10285000126863449446BA7D63445A712C68062C0E
:1028600000DCDEE043461B6842469C467443FB792D
:102870006444A37112682B6894464A4673431268F5
:1028800063449446FA7D63449A712C68072C00DCFB
:10289000C7E043461B6842469C4674433B7A644407
:1028A000E37112682B6894464A4673431268634486
:1028B00094463A7E6344DA712C68082C00DCB0E060
:1028C00043461B6842469C4674437B7A64442372A9
:1028D00012682B6894464A467343126863449446D0
:1028E0007A7E63441A722C68092C00DC99E0434616
:1028F0001B6842469C467443BB7A64446372126808
:102900002B6894464A467343126863449446BA7EE1
:1029100063445A722C680A2C00DC82E043461B6830
:1029200042469C467443FB7A6444A37212682B6847
:1029300094464A467343126863449446FA7E63445D
:102940009A722C680B2C6CDD43461B6842469C46F1
:1029500074433B7B6444E37212682B6894464A4696
:1029600073431268634494463A7F6344DA722C6876
:102970000C2C56DD43461B6842469C4674437B7BC9
:102980006444237312682B6894464A467343126862
:10299000634494467A7F63441A732C680D2C40DD9F
:1029A00043461B6842469C467443BB7B6444637346
:1029B00012682B6894464A467343126863449446EF
:1029C000BA7F63445A732C680E2C2ADD43461B6879
:1029D00042469C467443FB7B6444A37312682B6895
:1029E00094464A467343126863449446FA7F6344AC
:1029F0009A732C680F2C14DD43461B6842469C4694
:102A000074433B7C6444E37312682B6894464A46E3
:102A100073431268634494462022BA5C6344DA73B9
:102A20002C680136B34500DD7EE60B4B002604938F
:102A3000044B9846044B9946049B00211878039B4D
:102A400010E0C046D4110120DC110020D411002078
:102A5000D811002088F700204CE300100131213309
:102A600064290BD01A788242F8D14B015918039B84
:102A700021229C4607A8614406F04EFF002C00DC92
:102A800012E1059B0D21012B00D19AE004AB9C467D
:102A9000964B61449C469648964B00229B462300E9
:102AA00004006046029073439A46029B0F7C1B68A9
:102AB000BC460F789B185344BA46504627680131EC
:102AC000D8552B68584673439A46029B00681B688A
:102AD00067469B1853448246206853441F542B6812
:102AE00001329342DFDC1C000136032E06D0049B2A
:102AF00001330493A0E70120E6E544467B4B04261E
:102B000098467C4B99467C4B0021985D039B03E0E3
:102B10000131213364290BD01A788242F8D14B015C
:102B20005918039B21229C4607A8614406F0F4FE35
:102B3000002C35DD059B0D21002B00D188E004AB76
:102B40009C466A4B61449C4669486A4B00229B46FE
:102B5000230004006046029073439A46029B0F7C58
:102B60001B68BC460F789B185344BA4650462768EA
:102B70000131D8552B68584673439A46029B00682A
:102B80001B6867469B1853448246206853441F5471
:102B90002B6801329342DFDC1C00052E00D081E05F
:102BA0004023564A3C211370002355480093554B4F
:102BB0000BF04AFA11B0F0BCBB46B246A946A0469B
:102BC000F0BD04AB9C46002061447443A4464446D7
:102BD0000B782468DB43464F24183F68DBB264441B
:102BE000E3550B7043462C681B6874431B181B1974
:102BF0004C460A7C2468D243A4463D4CD2B2246899
:102C000063441A552C6801300A7401318442DCDCBB
:102C10006AE701365E4500DB07E7A0465C46039F96
:102C200053460021985D3B0003E0013121336429C4
:102C300009D01A788242F8D14B015918212279180B
:102C400007A806F069FE0136B442E9DC4446ECE62A
:102C500004AB9C46002061447443A44644460B7870
:102C60002468DB43224F24183F68DBB26444E355F9
:102C70000B7043462C681B6874431B181B194C4689
:102C80000A7C2468D243A446194CD2B22468634417
:102C90001A552C6801300A7401318442DCDC052E9F
:102CA00000D17DE705262EE7022E00D126E7A046BB
:102CB000154F039C023623000021B85D03E001316B
:102CC0002133642909D01A788242F8D14B0159186E
:102CD0002122611807A806F01FFE032E00D10CE781
:102CE0000326E8E7094B03939FE6C046D411012071
:102CF000D8110020DC1100204CE300106C040120EE
:102D0000C0120020010400004BE3001088F70020EF
:102D1000F0B5454657464E46DE46E44BE0B59C4688
:102D2000E34B002098460026E24DE34F2C688FB01D
:102D30000021002C1DDD00223B684C434343994693
:102D400063461B689B184B441E553B682C684343E5
:102D5000994663464C431B689B184B441B194446D9
:102D6000246801321E552C689442E5DC01310829A3
:102D7000DFD1012801D00120DAE7D04B00269B46A5
:102D8000CF4B05AF0393C94B9846C94B99465B4659
:102D900000211878039B03E00131213364290BD013
:102DA0001A788242F8D14B015918039B21229C4684
:102DB0003800614406F0B0FD002C00DC6BE14246B7
:102DC00074437B78126849461355424612682B6853
:102DD000944673437A7C096863445A542C68012CE6
:102DE00000DC51E143461B6842469C467443BB7875
:102DF0006444637012682B6894464A4673431268B1
:102E000063449446BA7C63445A702C68022C00DCFC
:102E10003AE143461B6842469C467443FB7864444F
:102E2000A37012682B6894464A4673431268634441
:102E30009446FA7C63449A702C68032C00DC23E1EE
:102E400043461B6842469C4674433B796444E370A6
:102E500012682B6894464A4673431268634494464A
:102E60003A7D6344DA702C68042C00DC0CE14346A4
:102E70001B6842469C4674437B7964442371126804
:102E80002B6894464A4673431268634494467A7D9D
:102E900063441A712C68052C00DCF5E043461B687E
:102EA00042469C467443BB796444637112682B6844
:102EB00094464A467343126863449446BA7D634419
:102EC0005A712C68062C00DCDEE043461B68424643
:102ED0009C467443FB796444A37112682B68944642
:102EE0004A467343126863449446FA7D63449A7178
:102EF0002C68072C00DCC7E043461B6842469C4612
:102F000074433B7A6444E37112682B6894464A46E2
:102F100073431268634494463A7E6344DA712C68C2
:102F2000082C00DCB0E043461B6842469C467443D4
:102F30007B7A6444237212682B6894464A46734332
:102F40001268634494467A7E63441A722C68092C92
:102F500000DC99E043461B6842469C467443BB7ABA
:102F60006444637212682B6894464A46734312683D
:102F700063449446BA7E63445A722C680A2C00DC7F
:102F800082E043461B6842469C467443FB7A644495
:102F9000A37212682B6894464A46734312686344CE
:102FA0009446FA7E63449A722C680B2C6CDD43467F
:102FB0001B6842469C4674433B7B6444E372126840
:102FC0002B6894464A4673431268634494463A7F9A
:102FD0006344DA722C680C2C56DD43461B6842466B
:102FE0009C4674437B7B6444237312682B6894462D
:102FF0004A4673431268634494467A7F63441A7363
:103000002C680D2C40DD43461B6842469C467443A9
:10301000BB7B6444637312682B6894464A467343CF
:10302000126863449446BA7F63445A732C680E2C2A
:103030002ADD43461B6842469C467443FB7B64443E
:10304000A37312682B6894464A467343126863441C
:103050009446FA7F63449A732C680F2C14DD434620
:103060001B6842469C4674433B7C6444E37312688D
:103070002B6894464A467343126863449446202260
:10308000BA5C6344DA732C680136062E2DD0012316
:103090009C46E3447BE6731C052E26D0074AD618CF
:1030A000971D00213078039B10E0C046D411012009
:1030B000DC110020D4110020D811002054E30010AE
:1030C00088F700200131213364290BD01A7882421D
:1030D000F8D14B015918039B21229C4605A8614455
:1030E00006F01AFC0136BE42DBD16E4B6E4F9B469A
:1030F000002302936D4B98466D4B99465B46002129
:103100001878039B03E00131213364290BD01A782E
:103110008242F8D14B015918039B21229C4605A8F5
:10312000614406F0F9FB002C00DC9CE002AB9C46FD
:103130000D22604B624400219C461BE0107C029BE8
:103140003E685C4343461B685B181C1913780132C8
:10315000A3552C68029B5C4343461B685B181B19F4
:103160004C4624680131A2463C68534418552C68EB
:103170008C420BDD63461B68002BDFD1107C13787B
:10318000C043DB43C0B213701074D8E7029B013315
:103190000293032B03D001239C46E344AEE7464B46
:1031A00004269B46414B404F9846414B99465B460F
:1031B0000021985D039B03E00131213364290BD08A
:1031C0001A788242F8D14B015918039B21229C4660
:1031D00005A8614406F0A0FB002C33DD02AB9C4641
:1031E0000D22344B624400219C461BE0137C029369
:1031F000434674431B6838685B181C191378013206
:1032000023544846434600682C68824674431B6832
:1032100038685B181B19029C53441C542C680131FC
:103220008C420CDD63461B68012BDFD11378107CC8
:10323000DB43C0431370C3B202931374D8E7013663
:10324000082EB4D140231D4A3C21137000231C4892
:1032500000931C4B0AF0F8FE0FB0F0BCBB46B24620
:10326000A946A046F0BD029B022B98D01E00164F27
:1032700002360021B85D039B03E00131213364294C
:103280000BD01A788242F8D14B015918039B2122A6
:103290009C4605A8614406F03FFB032E00D17EE763
:1032A0000326E6E75CE30010D8110020D4110120CA
:1032B000DC110020B01001205CE300106C04012040
:1032C000C0120020010400005BE30010F8B51C4BA5
:1032D0001C68012C01DD01341C601A4D1A4B286852
:1032E000196878282ADC8A00521813019B1AEE22EA
:1032F000D20094469622154E4A4337005B011218BD
:1033000063441201203FF318D2191F68103B1F625B
:103310005F695F629F699F62DF69DF629A42F4D1F1
:10332000962359430818000110220021301806F096
:10333000EDFA782C01DD78232B60F8BD034EEFE722
:103340009411002090110020080B0120D8120020B9
:103350000923F0B500251E4C1E4FA5446B4402AC5A
:10336000390013221800257006F0D6FAAE231A4E43
:10337000220023753C21993B300000950AF064FE41
:10338000642004F0FFFF09236B4439001322180066
:10339000257006F0C1FAAF23220023753C219A3B29
:1033A000300000950AF050FE642004F0EBFF40234B
:1033B0000A4A3C2113703000094B00950AF044FE84
:1033C000642004F0DFFF0020064B9D44F0BDC046A2
:1033D000F4FBFFFF3CE50010C01200206C0401204C
:1033E000010400000C040000F0B557464E46DE46CE
:1033F0004546E0B5AF4B8FB01C68AF4B0390002142
:103400009C460020AD4FAE4E002C3ADD00223D68B8
:103410003368A8464C435B0043449B1818553D68ED
:10342000A44BA8461C6833684C435B0043449B187C
:103430001B1964462468185535689E4BA8461C68BD
:1034400033683D685B004344A8464C4343449B18A3
:1034500018553568974BA8461C6833683D685B0073
:103460004344A8464C4343449B181B1964462468B4
:10347000013218558F4B1C689442C8DC0131082971
:10348000C2D1039B5B79302B00D1ADE105AB9B46EC
:103490008C4B8D4902939C4621225846614406F08C
:1034A0003BFA002C1EDD02AB9C460D270026834A0A
:1034B000834B8148674414681968A44649003C78E6
:1034C0000568614489194C551C6801376100091968
:1034D0001468A446FC7B61448C55764901360C681F
:1034E000B442E8DC039B9B78302B00D1A1E1774B01
:1034F00002999C4621225846614406F00DFA002CA0
:1035000022DD02AB9C460D2700266C4A6C4B6A48B4
:10351000674415681968AC4649003D7861448919CB
:103520000D5514681968A446046849006144A4460E
:10353000604D3C7C89192D6861444C555D490136CC
:103540000C680137B442E4DC039B0299DB78302B32
:1035500000D16CE15E4B9C4621225846614406F046
:10356000DBF9002C26DD02AB9C460D270026534AD2
:10357000534B514867441D681968AC4615684900AB
:103580006144AC463D78614489190D551C68494D2C
:103590006100091914682D68A44604686144A446B2
:1035A00089193C7C61444C55424901360C6801370D
:1035B000B442E0DC039B1B79302B00D129E1454B61
:1035C00002999C4621225846614406F0A5F9002C38
:1035D00023DD02AB9C460D270026384A384B36487F
:1035E0006744196805688C46116864448C46640019
:1035F00039786444A419615515682E49AC461C6895
:10360000096801376118490061440919FC7B8C5530
:10361000284901360C68B442E3DC039B02270333DC
:103620001D00264B9946264B9846234B9A46032667
:10363000AB5D302B34D021225846274906F06CF977
:10364000002C26DD02AB0D219C460022614443463E
:1036500018684B4678431B6874439B181B180878FE
:103660000131185543461C68124B7C4318684B4681
:103670001B6870439B181B1954461B182468C87B91
:10368000013218550B4B1C689442E0DC0136062EC3
:10369000CED12B0003331D00032F21D00327C6E713
:1036A0000E4B02999C4621225846614406F034F99B
:1036B000C6E7C046D4110020DC110020D41101203F
:1036C000D811002088F700203F0C0000810C00007A
:1036D000C30C0000FD0B0000430301209A0B000007
:1036E000039B02991B78302B00D190E0584B9C46ED
:1036F00021225846614406F00FF9002C27DD02AB69
:103700009C460D270026534A534B5448674419687A
:10371000E5002C1B490009191468514DA4463C785A
:1037200061448C554E4C2D6824681968E400641B74
:103730004900091914680568A4463C7C614489194C
:103740004C55474901360C680137B442DFDC039B16
:1037500002995B78302B4DD0424B21229C46584633
:10376000614406F0D9F8002C2DDD02AB9C460D27F4
:103770000026384A384B394867441D681968AC46FA
:103780004900E5002C1B614409191468344DA44616
:103790003C7861448C551C681968A446304C2D68EF
:1037A00024684900E400641B614409191468056831
:1037B000A4463C7C614489194C55294901360C6862
:1037C0000137B442D9DC4023274A3C21137000233F
:1037D00026480093264B0AF037FC0FB0F0BCBB46DE
:1037E000B246A946A046F0BD05AB9B46214B2249F7
:1037F000029350E6214B9C465B46614425C925C394
:1038000025C925C305C905C30A781A70ABE71C4B47
:103810006DE71C4A029B94465A46634423CB23C25D
:1038200023CB23C203CB03C21B781370CFE6164B06
:1038300091E6C622120194465A46029B634423CB6A
:1038400023C223CB23C203CB03C21B78137056E6DB
:10385000370B0000D4110120D8110020DC1100200A
:10386000D4110020790B00006C040120C01200204C
:103870000104000088F700201E0C0000580B000017
:10388000160B0000DC0B0000A20C0000F8B545464A
:10389000DE4657464E46E0B5814D00242800002202
:1038A0000300012103E0962909D0103301311A6089
:1038B0005A609A60DA600129F5D10170F5E7962324
:1038C0001B019C46013460440C2CE9D180227549CF
:1038D0005200754806F020F8FEF73CFC734B9B46FF
:1038E000F0235B039A4680235B009946704BAB4400
:1038F0005C1CFF34F02380261B065B4400259846A1
:1039000076055644802231005200694806F004F8DA
:1039100042462900664B921977293FDC1878471EEA
:10392000B84110705878471EB84150709878471EBB
:10393000B8419070D878471EB841D0701879471EAA
:10394000B84110715879471EB84150719879471E97
:10395000B8419071D879471EB841D071187A471E86
:10396000B8411072587A471EB8415072987A471E73
:10397000B8419072D87A471EB841D072187B471E62
:10398000B8411073587B471EB8415073987B471E4F
:10399000B8419073D87B471EB841D07310330131C2
:1039A00010329C42B8D101361035FF364D45A9D1B1
:1039B00080235B019C463F4BE2449C46F623E34454
:1039C0005B039A4596D13C4C2A0020003B4905F008
:1039D000A3FF3B4B2278DA70332261789954A178A7
:1039E00030329954E17830329954217930329954F7
:1039F0006179303299542422A179FF3299545422AA
:103A0000E179FF3299548422217AFF329954B42209
:103A1000617AFF329954E422A17AFF329954E17A13
:103A2000284A99540023284A1370284A1370284AB8
:103A30001370284A1370284A28491370284A294CC1
:103A40001370294A20001360284A136001220A607B
:103A500027490A6027490A6027490A6027490B60FD
:103A600027490B6027490A60274A302113700C222E
:103A700005F04CFFFA20800004F084FC002023496C
:103A8000FCF774FC22490120FCF770FC2000FFF7D2
:103A9000ABFCF0BCBB46B246A946A046F8BDC0464A
:103AA000D812002000001F104C1201200000E2FF7D
:103AB0004C13012060F9FFFF4C14012000F01E1090
:103AC0008008012013020000B21A0120B11A01205F
:103AD000AD1A0120AF1A0120B01A01209C1100205C
:103AE000AE1A012054110020100B0120140B0120EC
:103AF0009811002090110020941100200C0B01203F
:103B000084F7002050110020B41A012068E300104F
:103B100074E30010F0B5D6464F464646944BC0B508
:103B20001B680A2B00D91CE1924A9B00D3589F4680
:103B30000621914B914C186843001A181201A218E3
:103B400051700021517191718D491A188D781201AF
:103B5000A21895708B4D2D78002D01D0052555703C
:103B60001A18CD781201A218D5700D78002D02D048
:103B700055780A3555701818000122300C22223170
:103B8000201805F0C9FE804B8022180000219A46BB
:103B900005F0BCFE1D23984653465D1E7B4B7C4EB4
:103BA0009946A044671CA1440124631E032C12D033
:103BB000022B00DD8FE0002B00D1CFE0012B00D0E5
:103BC0008EE03B79AB703000295D07F0CBFB013410
:103BD000631E032CECD17B79EB70F4E7664B674CEA
:103BE0001868072143001A181201A218A8E7624BAF
:103BF000624C1868012143001A181201A2189FE7AD
:103C00005D4B5E4C1868022143001A181201A2187D
:103C100096E7594B594C1868032143001A181201B2
:103C2000A2188DE70421544B544C186843001A180D
:103C30001201A2185170033951710131917150492B
:103C400083E704214C4B4D4C186843001A181201AD
:103C5000A21851700339517102319171484974E7CA
:103C600004210125444B454C186843001A181201E1
:103C7000A218517091715571414966E704213E4B7C
:103C80003E4C186843001A181201A21851700339EB
:103C90005171043191713A4957E70421364B374C41
:103CA000186843001A181201A21851700339517193
:103CB00006319171324948E704212F4B2F4C186887
:103CC00043001A181201A21851702D494D795571EF
:103CD0008D79957139E7032B02D17B782B7172E7CF
:103CE0004346195D3000295507F03CFB102C00D0ED
:103CF0006DE70A2007F060FA30239C46E044103557
:103D00003037C84500D04FE78022F8205200514696
:103D10004003FCF7DDFAFEF713FC1E4D00202900DE
:103D2000FCF724FB1C4C01202100FCF71FFBFA20B0
:103D3000400004F027FB29000020FCF7BBFB21001A
:103D40000120FCF7B7FBFA20400004F01BFBFFF753
:103D50009DFDE0BCBA46B146A846F0BD3B786B700D
:103D600031E7054B054C186805494300EDE6C046B0
:103D7000140B01208CE30010080B012080080120A7
:103D8000C00A0120B41A01204C1501205D02000078
:103D900054E200107CE3001084E30010F8B5040046
:103DA0009620400004F0EEFA00220421200003F0E7
:103DB00069FAC24B1B68022B0AD0062B00D17DE0AA
:103DC000012B1DD001220421200003F05BFAF8BD75
:103DD000BB4BBC481B19023B1B78002B00D189E070
:103DE000012B00D0A8E04378302B00D10CE2002159
:103DF000302343702323B44AD154FFF7F5FAE1E7A7
:103E0000AF4BB24A1B19023B1B78AE481360002B24
:103E100000D189E030220270012B00D1ECE1427028
:103E2000022B00D1E5E130228270032B00D1DCE1CE
:103E3000C270042B00D1D5E130220271052B00D1D4
:103E4000CCE130224271062B00D1C4E130228271D4
:103E5000072B00D1BBE13022C271082B00D1B3E1A6
:103E600030220272092B00D1AAE1302242720A2BC1
:103E700000D1A1E13022827201320B2B00D030221E
:103E8000C2725A00904DD218914B12019B182A0011
:103E9000C2CBC2C2C2CBC2C2C2CBC2C2C2CBC2C2DE
:103EA000FFF7A2FA6B78052B00D1A8E12B78002B45
:103EB0003DD001208749FCF759FA83E7804B834ABC
:103EC0001B19023B11681B78834A7E481268002B3D
:103ED0001BD0012B4AD14378302B00D1D9E10025EA
:103EE00030234370962359437C4B8A1812019A1849
:103EF000957082E70378302B00D1C7E10021302391
:103F000003702223704AD15477E70378302B00D115
:103F1000B9E1002530230370962359436F4B8A186B
:103F200012019A18557068E76D4A02807BE70120FC
:103F30006C49FCF71BFA45E7022B0AD18378302B3A
:103F400000D19DE100213023837024235E4AD154A7
:103F500053E7032B2CD1C378302B00D18DE1002106
:103F60003023C3702523584AD15446E7022B0ED183
:103F70008378302B00D17DE1002530238370962398
:103F80005943564B8A1812019A18D57035E7032BFE
:103F90001BD1C378302B00D169E100253023C370D9
:103FA000962359434D4B8A1812019A18157124E72C
:103FB000042B1BD10379302B00D155E10021302394
:103FC00003712623404AD15417E7042B1BD10379F0
:103FD000302B00D145E1002530230371962359434E
:103FE0003E4B8A1812019A18557106E7052B1BD112
:103FF0004379302B00D131E1002130234371272355
:10400000314AD154F9E6052B1BD14379302B00D12D
:1040100021E1002530234371962359432F4B8A1801
:1040200012019A189571E8E6062B1BD18379302B83
:1040300000D10DE10021302383712823224AD1547D
:10404000DBE6062B1BD18379302B00D1FDE0002568
:104050003023837196235943204B8A1812019A18F2
:10406000D571CAE6072B1BD1C379302B00D1E9E00B
:1040700000213023C3712923134AD154BDE6072BF5
:1040800032D1C379302B00D1D9E000253023C37160
:1040900096235943114B8A1812019A181572ACE6EF
:1040A000082B32D1037A302B00D1C5E00021302318
:1040B00003722A23044AD1549FE6C046100B012004
:1040C00050E5001054110020C00A0120080B012007
:1040D00080080120C4E3001090110020D8120020B5
:1040E00031300000D0E30010082B1BD1037A302BB5
:1040F00000D19EE000253023037296235943664B7E
:104100008A1812019A18557277E6092B1AD1437A48
:10411000302B00D18AE00021302343722B235F4AE9
:10412000D1546AE6092B19D1437A302B7BD0002574
:104130003023437296235943574B8A1812019A1819
:1041400095725AE60A2B19D1837A302B68D0002158
:10415000302383722C23514AD1544EE60A2B1AD1B4
:10416000837A302B59D0002530238372962359430C
:10417000494B8A1812019A18D5723EE60B2B00D0D3
:104180003BE6C37A302B45D000213023C3722D2368
:10419000424AD15431E60B2B00D02EE6C37A302BA5
:1041A00035D000253023C372962359433A4B8A18E1
:1041B00012019A18157320E631228272013A5FE6E5
:1041C0003121827241725AE6354A028152E631212A
:1041D0000272C17149E6324AC28041E631218271E0
:1041E000417138E62E4A828030E631210271C17079
:1041F00027E62B4A42801FE63122427013E6012057
:104200002849FCF7B3F8DDE501213123F1E501256B
:104210003123C8E701213123B8E701253123A4E781
:104220000121312395E70125312382E70121312343
:1042300073E7012531235FE70121312338E70125A9
:10424000312324E70121312314E70125312300E73D
:1042500001213123F0E601253123DCE60121312360
:10426000CCE601253123B8E601213123A8E601255A
:10427000312394E60125312380E60121312370E6C4
:104280000121312360E60125312344E60121312358
:1042900036E60125312324E6D8120020C00A012089
:1042A00031300000B8E30010012330B5674C684D91
:1042B00083B02B70236801332360072B12DD0523A5
:1042C00023609620400004F05DF8002204211B20AA
:1042D00002F0D8FF2268072A00D99BE05D499300CD
:1042E000CB589F46002BECD15B4A1360E9E75A4B51
:1042F0001B68082B00D190E0052323600123574A57
:1043000001211360564A57481360FEF7C3F9002392
:10431000012204211B202B7002F0B4FF03B030BD3A
:1043200001224E4B50481A60504BD9784B425941AC
:104330004B4B1960FEF7AEF9E9E700204C49FCF75A
:1043400015F84C490120FCF711F84B48FFF74CF8E1
:104350000620FFF723FDDAE70022444B46489A7017
:1043600022329A5C511E8A413032027023229A5CBA
:10437000511E8A413032427024229A5C511E8A4179
:104380003032827025229A5C511E8A413032C270CE
:1043900026229A5C511E8A413032027127229A5C91
:1043A000511E8A413032427128229A5C511E8A4144
:1043B0003032827129229A5C511E8A413032C27198
:1043C0002A229A5C511E8A41303202722B229A5C58
:1043D000511E8A41303242722C229A5C511E8A410F
:1043E000303282722D229B5C5A1E93413033C3724D
:1043F000FEF7FAFF00201E49FBF7B8FF01201F4916
:10440000FBF7B4FF83E700201D49FBF7AFFFFDF783
:10441000FDFF7CE7013A226079E7144B19495A798C
:10442000194C0A609B7968461849236006F038FDEC
:1044300069460020FBF79AFF68462268144906F097
:104440002FFD69460120FBF791FF60E7100B01206B
:10445000B21A012014E40010140B012084F700208C
:10446000501100200CE40010ECE30010C00A012001
:1044700054E30010D0E3001054110020D8E30010E2
:10448000E0E300109C11002098110020F4E30010DC
:1044900000E400109620F0B5400083B003F072FFF6
:1044A00000220421122002F0EDFE674A1368042B5B
:1044B00000D1AFE000DD8FE0002B00D19DE0012BAB
:1044C00000D082E0062100201160604D604A614901
:1044D00013702A6808808A7091008A181101891A5D
:1044E0005D4E490171181A015C4C8A5C2360002AF8
:1044F00007D00133782B00D1A3E01A018A5C002A8F
:10450000F7D15A1E511E8A419B1A554F3B60554B9D
:104510001B78002B00D092E0534A5449684606F0BD
:10452000BFFC69460020FBF721FF3B682268504929
:10453000684606F0B5FC69460120FBF717FF962395
:10454000296822684B439B181B01F3185A78494885
:10455000511E8A41303202709A78511E8A4130329F
:104560004270DA78511E8A41303282701A79511EB7
:104570008A413032C2705A79511E8A4130320271FA
:104580009A79511E8A4130324271DA79511E8A413C
:10459000303282711A7A511E8A413032C2715A7A8F
:1045A000511E8A41303202729A7A511E8A4130324B
:1045B0004272DA7A1B7B511E8A41303282725A1E55
:1045C00093413033C372FEF70FFF01220421122002
:1045D00002F058FE03B0F0BD062BF6D1264B1A7838
:1045E000002AF2D101321A70244B01211A60244BA7
:1045F00024481A60FEF74EF8E7E7204A1368002BBC
:10460000E3D10121204811601D4A01701360FEF7BB
:104610007FFBDAE71D4B1A68082AD6DC17490968C0
:104620000029D2D101321A600A4B684618495A71E2
:1046300006F036FC69460020FBF798FEC5E7154AF0
:104640006BE7002361E7C046100B0120080B012037
:10465000B41A0120C00A0120D812002090110020B5
:1046600094110020BC1A0120DCE2001038E4001094
:1046700044E4001054110020B01A012084F70020F7
:10468000501100204CE40010AE1A01209C110020B3
:10469000F4E3001034E400109620F0B5400083B03D
:1046A00003F070FE00220421132002F0EBFD674AA4
:1046B0001368042B00D1AFE000DD8FE0002B00D1A8
:1046C0009DE0012B00D082E0062100201160604DAA
:1046D000604A614913702A6808808A7091008A18BC
:1046E0001101891A5D4E490171181A015C4C8A5CEE
:1046F0002360002A07D00133782B00D1A3E01A01F0
:104700008A5C002AF7D15A1E511E8A419B1A554FC6
:104710003B60554B1B78002B00D092E0534A544924
:10472000684606F0BDFB69460020FBF71FFE3B68AC
:1047300022685049684606F0B3FB69460120FBF742
:1047400015FE9623296822684B439B181B01F3181A
:104750005A784948511E8A41303202709A78511E67
:104760008A4130324270DA78511E8A41303282708A
:104770001A79511E8A413032C2705A79511E8A41CB
:10478000303202719A79511E8A4130324271DA799F
:10479000511E8A41303282711A7A511E8A4130325A
:1047A000C2715A7A511E8A41303202729A7A511E6F
:1047B0008A4130324272DA7A1B7B511E8A41303292
:1047C00082725A1E93413033C372FEF70DFE0122EE
:1047D0000421132002F056FD03B0F0BD062BF6D1E4
:1047E000264B1A78002AF2D101321A70244B01218B
:1047F0001A60244B24481A60FDF74CFFE7E7204A73
:104800001368002BE3D1012111601E4A00211F48CB
:104810001360FDF73FFFDAE71D4B1A68012AD6DD6A
:10482000174909680029D2D1013A1A600A4B684633
:1048300018495A7106F034FB69460020FBF796FDD3
:10484000C5E7154A6BE7002361E7C046100B01205E
:10485000080B0120B41A0120C00A0120D812002040
:104860009011002094110020BC1A0120DCE20010FD
:1048700038E4001044E4001054110020AF1A012065
:1048800084F70020501100205CE4001054E4001074
:104890009C110020F4E3001034E40010962010B5C1
:1048A000400082B003F06EFD00220421112002F0CE
:1048B000E9FC764B1B68072B0BD8754A9B00D35835
:1048C0009F46744A1368013B00D50A231360FDF725
:1048D0009FFC01220421112002F0D4FC02B010BD83
:1048E00001236D4A012113606C4A6D481360FDF786
:1048F000D1FEEEE76B4B1B78002B00D0AFE0674B8F
:104900001B68012BE5D1644A012167481360FDF75C
:10491000C1FEDEE7614B1B68012B00D192E0022B48
:1049200016D0624B1A68012AD3DD013A1A60604B37
:10493000684660499A7106F0B3FA69460120FBF7B0
:1049400015FDC6E7554B1B68012B7BD0022BC0D150
:104950000122514B012158481A60FDF79BFEB8E730
:10496000564B1B78002B07D001224B4B54481A6042
:104970000121FDF78FFEACE7524B1B78002B69D16C
:10498000514C2268002AA4DD504B1B78002B6CD0C0
:10499000012A71D00A2A74DC0123012223604C4BC6
:1049A0001B6868464B4906F07BFA69460120FBF715
:1049B000DDFC494B2268196896234B439B18474AF4
:1049C0001B01D3185A784648511E8A413032027072
:1049D0009A78511E8A4130324270DA78511E8A41EB
:1049E000303282701A79511E8A413032C2705A793F
:1049F000511E8A41303202719A79511E8A413032F9
:104A00004271DA79511E8A41303282711A7A511E0E
:104A10008A413032C2715A7A511E8A413032027252
:104A20009A7A511E8A4130324272DA7A1B7B511EC9
:104A30008A41303282725A1E93413033C372FEF77C
:104A4000D3FC46E70122144B012126481A60FDF7EA
:104A500021FE3EE70122104B23481A6088E700221E
:104A6000224B1A60FEF754F933E7012A01D0013ACC
:104A70002260174B1B6894E7154B1B681A002360D4
:104A80008FE7134B0A3A1B6822608AE7100B01205C
:104A90006CE40010140B01205011002084F700205A
:104AA000ECE30010AE1A012054E40010981100202D
:104AB000C00A012000E4001064E40010AF1A0120D5
:104AC0005CE40010B01A012090110020BC1A0120F3
:104AD0009411002044E40010080B0120D81200209B
:104AE000541100200CE400104CE40010B010012020
:104AF000962010B5400082B003F044FC002204214F
:104B0000102002F0BFFB764B1B68072B0CD8754AB0
:104B10009B00D3589F46744A136801330A2B00DD6B
:104B200000231360FDF774FB01220421102002F022
:104B3000A9FB02B010BD00226C4B00211A606C4B27
:104B400001326C481A60FDF7A5FDEDE76A4B1B7852
:104B5000002B00D0AFE0664B1B68012BE4D1634A09
:104B6000012166481360FDF795FDDDE7604B1B688A
:104B7000012B00D193E0022B16D0614B1A68082A52
:104B8000D2DC01321A605F4B68465F499A7106F0C9
:104B900087F969460120FBF7E9FBC5E7544B1B6821
:104BA000012B7CD0022BBFD10022504B0021574853
:104BB0001A60FDF76FFDB7E7554B1B78002B07D048
:104BC00000224A4B53481A600021FDF763FDABE712
:104BD000514A1278002A6AD1504C2268772AA3DC05
:104BE0004F4B1B78002B6CD04E4B1B689A4271D0F8
:104BF000110009318B4270DC1A00236068464A4973
:104C000006F04EF969460120FBF7B0FB474B2268DE
:104C1000196896234B439B18454A1B01D3185A78B1
:104C20004448511E8A41303202709A78511E8A419E
:104C300030324270DA78511E8A41303282701A79ED
:104C4000511E8A413032C2705A79511E8A41303227
:104C500002719A79511E8A4130324271DA79511EBD
:104C60008A41303282711A7A511E8A413032C271C1
:104C70005A7A511E8A41303202729A7A511E8A4102
:104C800030324272DA7A1B7B511E8A413032827294
:104C90005A1E93413033C372FEF7A6FB44E700224D
:104CA000124B002124481A60FDF7F4FC3CE70F4A40
:104CB0002248136088E70122214B1A60FEF728F88A
:104CC00032E7184901320B6822609A4296DD1300E0
:104CD0000A6093E70122226090E70A3222608DE7A2
:104CE000100B01208CE40010140B01205011002047
:104CF00084F70020ECE30010AE1A012054E4001009
:104D000098110020C00A012000E4001064E40010A3
:104D1000AF1A01205CE40010B01A012090110020AD
:104D2000BC1A01209411002044E40010080B01205B
:104D3000D8120020541100200CE400104CE40010A4
:104D4000B0100120F0B5DE464E4645465746962047
:104D50000123E0B5D24C87B04000237003F012FB72
:104D6000002204211A2002F08DFACE4D01262B6874
:104D70005A1E012A30D9CC4B1B68012B34D0062B8C
:104D80001CD1CA4A13785E40F6B21670002E00D0CD
:104D9000A1E0C74AC74904A806F082F8002004A988
:104DA000FBF7E4FAC44BC54A1B681268C44904A85F
:104DB00006F076F8012004A9FBF7D8FA00230122B7
:104DC00004211A20237002F05DFA07B0F0BCBB4644
:104DD000B246A946A046F0BDB3490A68072AEDD8F5
:104DE000B848920082589746B74A13785E40F6B2A8
:104DF0001670002E6DD1AE4AB44904A806F050F8E2
:104E0000012004A9FBF7B2FAD8E7B14A1368013BC5
:104E1000581E8341AC48C3700523AE480B60043B69
:104E200001212B601360FDF735FCC7E700232B60E1
:104E3000A74BA94F1B68012B5DD09F4B9F4E9846F7
:104E40000023A64A3B7013702B60984B1B78002BF5
:104E500000D0F6E0964A974904A806F021F8002011
:104E600004A9FBF783FA434632681B689EE7012BCF
:104E700033D0974B1B68012B11D000232B600333D9
:104E80000B6000209649FBF771FAFDF7C1F995E731
:104E9000012B22D08E4B1B68012B00D1DAE0FEF7EC
:104EA000F5FC8BE700238F4A2B601378002B00D092
:104EB000AAE087480068012800D1C7E00B60002005
:104EC00089491370FBF752FA01208849FBF74EFA23
:104ED00074E7874A90E7874A5CE77D4B1A68012AA6
:104EE00000D1B0E002222A600022002182481A602C
:104EF000FDF7D0FB62E73B78002B00D1BCE06E4BA6
:104F000098461B680393012B03DD4246013B039344
:104F100013606A4E33689B46782B00DDB9E0774B0F
:104F200059461A6879235B1A9A469623019253438D
:104F30005A46734901328C46D2185B4412011B0158
:104F40000291624463440021BC46B146D068576870
:104F50000090106896681860009801315F609E604C
:104F6000D860103210338A45F0D867464E46039B0E
:104F70009B4501DD9B4633609623019A614853436C
:104F8000029A5B4494461B0163445A78511E8A413D
:104F9000303202709A78511E8A4130324270DA788B
:104FA000511E8A41303282701A79511E8A41303244
:104FB000C2705A79511E8A41303202719A79511E5B
:104FC0008A4130324271DA79511E8A41303282711F
:104FD0001A7A511E8A413032C2715A7A511E8A4160
:104FE000303202729A7A511E8A4130324272DA7A33
:104FF0001B7B511E8A41303282725A1E93413033DC
:10500000C372FEF7F1F91BE7FDF7E8F93E4E3100F8
:105010000020FBF7ABF93D4D01202900FBF7A6F975
:10502000FA20400003F0AEF931000020FBF742FA0D
:1050300029000120FBF73EFAFA20400003F0A2F914
:105040002DE72C4A07E7FEF765FDB7E6FDF73AF9CD
:105050002F4EDCE700232B6004330B602D4B2E49D1
:105060001A6804A805F01CFF04A90020FBF77EF9CC
:105070002A4B2B491A68C0E6FEF728F91F4B0F4E42
:105080001B68019333689B460B4B98461C4B02935D
:1050900072E71A4B1B680193194B029367E7C046EE
:1050A000B11A012084F70020100B0120BC1A012046
:1050B000DCE2001038E40010941100209011002070
:1050C00044E40010CCE40010C00A0120C0E4001049
:1050D000501100200CE40010AF1A0120B01A01207A
:1050E000E0E30010AE1A012068E3001074E3001042
:1050F000ACE4001034E4001064E40010080B01205C
:10510000D812002054110020B0E4001084E30010F5
:10511000B8E400109C110020F4E300109811002066
:1051200000E4001010B5042900D010BD0300103BAE
:105130000B2B03D8124A9B00D3589F46FEF72EFE36
:10514000F3E7FFF7D5FCF0E7FFF7A8FBEDE7FFF784
:10515000A1F9EAE7FFF7A0FAE7E70A4B1B78002B73
:10516000E3D1FFF7EFFDE0E7074B1B78002BDCD125
:10517000064B1B68002BD8D1FFF796F8D5E7C04641
:10518000ECE40010B11A0120B21A012084F70020CB
:105190006D4B70B56D4C6E499C63C824A4031C64B0
:1051A0006C4C59615C646C4C6C499C646C4CD9616E
:1051B000DC646C4CC4215C656B4C89019C656B4C58
:1051C0001962DC65CC243022A40581211C66802470
:1051D0001A600905664A5962240566495A605C6688
:1051E000654A664C996280219A609C66644A654C67
:1051F000DA60DC6600223824C905634859635967C0
:10520000624998611C671A61DA621A63DA631A6587
:1052100099675F491E25D96780215D500431163595
:105220005D505C4D04315D505B4D04315D50E025B7
:1052300004315A50ED0404315D50584D04315D5035
:10524000574D04315D50574D04315D50D425043124
:10525000AD015D50544D04315D50544D04315D50ED
:10526000534D04315D50534D04315A5004315D505B
:10527000514D04315D50514D04315D50D8250431FC
:10528000AD035D504E4D04315D504E4D04315D50C7
:105290004D4D04315D504D4D04315A5004315D5037
:1052A0004B4D04315D504B4D04315D50DC250431D4
:1052B000AD055D50F02504316D055D50EC25464986
:1052C000464E595104355E51454E04355E51E02637
:1052D00004355A51F60504355E51424E04355E518F
:1052E00004355A5104355C513F4DD4341D513F4D66
:1052F00004341D513E4D04341D513E4D04341A51A9
:1053000004341D510434185192203B4C40001C5071
:10531000E4240430A4011C50384C04301C500430E8
:1053200019509A21364849005850364804315A508D
:1053300004315850344804315850344804315850DE
:1053400004315A5270BDC04688F70020407F40406B
:10535000071C20400000180C060202021C07000077
:105360000282C4780000406070584C46434140407F
:10537000E038040204FE0000020202040C8486826B
:1053800038E000008282824440404020404040405B
:105390004060203180C06030180C06FE0504040413
:1053A0000444447F4444040000FE8242424242429C
:1053B00042820200004140404040602030180F000F
:1053C0000000C070984C44464282820000000F39B1
:1053D000204040404020311F020202020282E23A95
:1053E0000E0200001E030000384C848282828284F8
:1053F0004C3800001E312040311E000000F88C04A3
:10540000049CF0000000414142622232190E030068
:10541000F0B5412157464E464546DE46FC4BFD4A17
:10542000E0B599540022FC49FC485A5202315850C8
:10543000FB4804315850C02004315850F94981309C
:10544000F94CFF30195004301C50F84C04301C50FB
:10545000F74C04301C50F74C04301C50F64CF74D00
:1054600004301C50F64E04301D5004301E50F54DD3
:1054700004301A50F44C04301D50F44E04301C50CB
:10548000F34C04301E5004301C50F248F24C80465D
:105490009D20454680001D50F048F14F84469E20D7
:1054A000654680001D503E2504301C5004301D50C0
:1054B000EC4C04301F5004301C500C24EA4E0430D5
:1054C0001E5004301C50E94CE94D04301C5004308F
:1054D0001D508025E74C04301C50E74C04301C5014
:1054E000AD0504301D50E54DE54C04301D50043031
:1054F0001C50E44C04301C508A24E34E0430E40178
:105500001C50E24C04301E5004301C50E04C04305F
:105510001C50E04C04301A50DF4E04301C50043054
:105520001E50DE4E04301E508C260430F6031E50F2
:10553000DB48BC248146B6204E4680001E50D94E22
:1055400004301E50D84E04301E500E2604301E501B
:10555000D64E0430195004301E50A4001430185197
:105560000434A2468E24E405A346544659461951F4
:10557000BE21444689005C50644604315C50CC49ED
:10558000A84C19501E2104301950B64904301F5040
:1055900004301950C74904301950C7490430195014
:1055A000C64904301950C64904301950C549043061
:1055B0001950C549043019520220C4495854C449ED
:1055C000585401315C50802404315E50A4050431EC
:1055D0005C5004315D5004318A469221C9018B46EA
:1055E00051465E465E50802189048A46CF21564648
:1055F00089005E5080269E4C04315C5004315A5024
:1056000004315A50B60504315E5004315D50D52541
:105610009421AD005A51C9030435595151460435FE
:105620005A510435595104355C51AA4904355A512F
:1056300004355951F121844C04355C51090104357C
:10564000595196210435C9055951494604355951D6
:10565000A14904355951A14904355951E221A04DC0
:10566000260089006F4C5D5004315C50043189463E
:105670009C498A46494654465C50043189469A49B9
:105680008A46494654465C500431894697498A46C1
:10569000494654465C50043189464C218A46494665
:1056A00054465C5092498946E8214C4689005C503A
:1056B0000431585004315A50764C04315A50043158
:1056C0005C5004315E5004318A468A49714E8B46E3
:1056D00051465C465C5004318A4687498B465146A8
:1056E0005C465C5004318A4684498B4651465C4690
:1056F0005C5004318A46C02109068B4651465C46FF
:105700005C5004318A467E498B4651465C465C506B
:1057100004318A467B498B4651465C465C500431D5
:105720008A4679498B4651465C465C5004318A462C
:1057300076498B4651465C465C5004318A46744932
:105740008B4651465C465C5004318A4671498B4613
:1057500051465C465C5004318A466F498B4651463F
:105760005C465C5004318A466C498B4651465C4627
:105770005C50314C04315C5004315D5004315E505A
:1057800004318A46802149048B4651465C465C5070
:1057900004318A46624983268B4651465C465C50FA
:1057A00004318A469E21C9058B4651465C465C50B1
:1057B000444604315C5064465A49F6005C5004315A
:1057C0008C4659498846614644465C5057498C4648
:1057D00057498846614644465C5004315F50214C2D
:1057E000544FDC51204C544F9C51544E264C9F53E7
:1057F0000027534E9F55534E9F55013650379F51AA
:10580000514E0E4F9C5104369F5139004F4E9FE030
:1058100088F7002031020000320200000000C07052
:105820001C061C7000002020382E230101010101FC
:10583000232E382020004200000202FE8282828253
:10584000828244380020203F202020202020211167
:105850000E0000430000E038020204080C040202BB
:105860000000030E18102020202010184400000211
:1058700002FE0202020202040C38E000203F202057
:1058800020202010180E03000202FE82828282E293
:105890000202060820203F2020202023202030085C
:1058A00000000202FE82828282E202023F20200089
:1058B00002020404202011093F01010048000202F5
:1058C000FE8282808080808282FEFFFF26030000AD
:1058D0002703000000001830FE82C2E0301A0E06D6
:1058E000020200003F20200103062C383020200057
:1058F0000202FE0220203C00004D0202FE0E78C093
:10590000780EFE02020020203F2000030E380E0316
:1059100000203F2020004E000202FE061C30E080E6
:10592000070C183F040400000202040C0C040000E1
:1059300038E00000140400000E0300001C04000006
:105940001E0400001F040000240400002C040000BA
:10595000874F87249F5104369A51864F864EE40024
:105960009F5120261E51A226844CF6011A51043460
:105970001E51834C834E844F1E518926834CF60062
:105980009C51834E9F5104369A51824F824E9F51B3
:10599000824F04369F51824E824F9F51824F043670
:1059A0009F51824E824F9F5104369951814F824EB2
:1059B00082499F5104369A51814F824E9F51824FA6
:1059C00004369F51814E824F9F51824F04369F5122
:1059D000E027814EBF059F51804F04369F51804E76
:1059E000804F9F513E2704369F51F8277E4EBF05BA
:1059F0009F517E4F04369F517D4E7E4F9F510E2703
:105A000004369F517C4E7D4F9F5104369C517C4CF7
:105A10007C4E7D4F1E517D4E04341E517C4C7D4E7C
:105A20001A510434195149467B4C1F5104341A5100
:105A30007A4C7B4F1E5104341F517A4C7A4E1A51C6
:105A400004341951794C5D49185104341E51784C75
:105A5000784E00271E51784E04341E51AC26774CE8
:105A6000F6031E51764E04341E51C226754C1E514B
:105A7000754E04341E51754C80261D5104341A5144
:105A8000734D744CB6051D5108250434FF351D5166
:105A9000AE25714CED051D51704D04341D51704CF7
:105AA000704D1D51704D04341D51704D704C1D537F
:105AB000704C1855704C1855A320E024C000E40425
:105AC0001C506E486E4C1C506E4C04301C50072409
:105AD0006D481C506D4C04301C506D486D4C1C5072
