:020000041000EA
:1000000000B5324B212058609868022188439860DF
:10001000D860186158612E4B002199600221596106
:100020000121F02299502B49196001219960352056
:1000300000F044F80222904214D00621196600F024
:1000400034F8196E01211966002018661A6600F04E
:100050002CF8196E196E196E052000F02FF8012189
:100060000842F9D1002199601B49196000215960AB
:100070001A491B48016001219960EB211966A021F2
:10008000196600F012F800219960164914480160C1
:100090000121996001BC002800D000471248134993
:1000A000086003C880F30888084703B5996A0420EC
:1000B0000142FBD001200142F8D103BD02B5186610
:1000C0001866FFF7F2FF186E186E02BD00000240BE
:1000D000000000180000070000035F00212200005C
:1000E000F4000018222000A00001001008ED00E03C
:1000F00000000000000000000000000074B24E7A12
:1001000000200420F7010010CB010010CD010010E9
:10011000C9010010C9010010C9010010C901001077
:10012000C9010010C9010010C9010010CF01001061
:10013000C9010010C9010010D1010010D301001045
:10014000C1010010C1010010C1010010C101001067
:10015000C1010010C1010010C1010010C101001057
:10016000C1010010C1010010C1010010C101001047
:10017000C1010010C1010010C1010010C101001037
:10018000C1010010C1010010C1010010C101001027
:10019000C1010010C1010010C1010010C101001017
:1001A000C1010010C1010010C1010010C101001007
:1001B000C1010010C1010010C1010010C1010010F7
:1001C000EFF30580103800BE00BE00BE00BE00BECA
:1001D00000BE00BEF2EB8871D42A0110042B01107E
:1001E0003802001090A31AE71E481F49086006C88D
:1001F00081F3088810471D480068002801D019487D
:10020000F3E70DA40ECC002902D000F012F8F9E7B4
:100210001749184A002000E001C19142FCD116495B
:100220008847164988471649884700BEFDE701C937
:1002300001C29A42FBD37047042B0110C00000207A
:1002400050160020944001100000042000000420FB
:100250009440011000100420001004200000000051
:10026000704700000000000008ED00E0000000D032
:1002700050160020340C02204DEE0010258A00108C
:1002800045EE0010F8B5C04610B5064C2378002B9B
:1002900007D1054B002B02D0044800E000BF01232A
:1002A000237010BDD819002000000000DC1D0110D3
:1002B000044B10B5002B03D00349044800E000BFF5
:1002C00010BDC04600000000DC190020DC1D01103C
:1002D000F8B5CE464746D024802580B506002406D2
:1002E000AD041C480F0090460EF044FF6561EFF32B
:1002F000108972B618480EF03DFFC8200CF012F8B5
:1003000080213000490111F007FDA56113480EF06E
:1003100031FF64200CF006F8424639003000A56138
:1003200011F0DAFC0E480EF025FFC8200BF0FAFFA2
:10033000656189F310880B480EF01CFFC8200BF094
:10034000F1FFA56108480EF015FFC0BCB946B046E4
:10035000F8BDC046E01D0110EC1D0110001E01108B
:10036000101E0110201E0110341E0110F0B5DE46D3
:100370004E4645465746E0B58DB0804611F0AAFB83
:100380008146082801DD08239946812500229A4CE0
:100390009A4E2B00803B2168C91801390A702168E8
:1003A000C9187F310A702168CA542168C918803180
:1003B0000A702168C9184A702168C91881310A7009
:1003C0002168C9188A702168C91882310A702168A9
:1003D000C918CA702168C91883310A702168C91800
:1003E0000A712168C91884310A702168C9184A71D4
:1003F0002168C91885310A702168C9188A71216875
:10040000C91886310A702168C918CA712168C918CB
:1004100087310A702168C9180A722168C9188831A1
:100420000A702168C9184A722168C91889310A708E
:100430002168C9188A722168C9188A310A7021682E
:10044000C918CA722168C9188B310A702168C91885
:100450000A732168C9188C310A702168C9184A7357
:100460002168C9188D310A702168C9188A732168FA
:10047000C9188E3110330A709D428CD10135FF3579
:10048000B54286D1002800D1E0E25D4B00269A46B5
:10049000202300279B4603AD43460021D85D5346E9
:1004A00003E001312133642909D01A788242F8D15E
:1004B0004B0159182122280051440DF0ADF96B78F9
:1004C00022680137935523686A7C9B1980331A7020
:1004D0002368AA789B195A702368AA7C9B198133D8
:1004E0001A702368EA789B199A702368EA7C9B1932
:1004F00082331A7023682A799B19DA7023682A7D5F
:100500009B1983331A7023686A799B191A712368BF
:100510006A7D9B1984331A702368AA799B195A71D2
:100520002368AA7D9B1985331A702368EA799B1981
:100530009A712368EA7D9B1986331A7023682A7A98
:100540009B19DA7123682A7E9B1987331A702368F6
:100550006A7A9B191A7223686A7E9B1988331A700B
:100560002368AA7A9B195A722368AA7E9B19893339
:100570001A702368EA7A9B199A722368EA7E9B199B
:100580008A331A7023682A7B9B19DA7223682A7FC0
:100590009B198B331A7023686A7B9B191A73236823
:1005A0006A7F9B198C331A702368AA7B9B195A7334
:1005B0002368AA7F9B198D331A702368EA7B9B19E5
:1005C0009A732368EA7F9B198E331A7023682A7CFA
:1005D0009B19DA735A462368AA5C9B198F331A70E9
:1005E0001036B94500DD57E7202300269846054F11
:1005F0005346002138780BE0784F0020810200003C
:10060000042800203C1E011001312133642909D047
:100610001A788242F8D14B015918212228005144FE
:100620000DF0FAF86A786B7CD243DB432168D2B2D2
:1006300089190131FF310A706A702268DBB29219A0
:100640008132FF321370AA786B74D243AB7C21687D
:10065000DB4389190231D2B2FF310A70AA702268D5
:10066000DBB292198232FF321370EA78AB74D24354
:10067000EB7C2168DB4389190331D2B2FF310A7068
:10068000EA702268DBB292198332FF3213702A7942
:10069000EB74D2432B7D2168DB4389190431D2B23C
:1006A000FF310A702A712268DBB292198432FF325C
:1006B00013702B756A796B7DD243DB432168D2B20C
:1006C00089190531FF310A706A712268DBB292190B
:1006D0008532FF321370AA796B75D243AB7D2168E6
:1006E000DB4389190631D2B2FF310A70AA71226840
:1006F000DBB292198632FF321370EA79AB75D243BE
:10070000EB7D2168DB4389190731D2B2FF310A70D2
:10071000EA712268DBB292198732FF3213702A7AAB
:10072000EB75D2432B7E2168DB4389190831D2B2A5
:10073000FF310A702A722268DBB292198832FF32C6
:1007400013702B766A7A6B7ED243DB432168D2B278
:1007500089190931FF310A706A722268DBB2921975
:100760008932FF321370AA7A6B76D243AB7E21684E
:10077000DB4389190A31D2B2FF310A70AA722268AA
:10078000DBB292198A32FF321370EA7AAB76D24327
:10079000EB7E2168DB4389190B31D2B2FF310A703D
:1007A000EA722268DBB292198B32FF3213702A7B15
:1007B000EB76D2432B7F2168DB4389190C31D2B20F
:1007C000FF310A702A732268DBB292198C32FF3231
:1007D00013702B776A7B6B7FD243DB432168D2B2E5
:1007E00089190D31FF310A706A732268DBB29219E0
:1007F0008D32FF321370AA7B6B77D243AB7F2168B7
:10080000DB4389190E31D2B2FF310A70AA73226814
:10081000DBB292198E32FF321370EA7BAB77D24390
:10082000EB7F2168DB4389190F31D2B2FF310A70A7
:10083000EA732268DBB292198F32FF3213702A7C7E
:10084000EB77D2434346D2B22A74EB5C4146DB439A
:10085000DBB26B542168013789191031FF310A70FE
:10086000226892199032FF3210361370302E00D069
:10087000BEE6202300269846764F5346002138785E
:1008800003E001312133642909D01A788242F8D17A
:100890004B0159182122280051440CF0BDFF236858
:1008A0006A789B194133FF331A7023686A7C9B195D
:1008B000C133FF331A702368AA789B194233FF3380
:1008C0001A702368AA7C9B19C233FF331A702368FD
:1008D000EA789B194333FF331A702368EA7C9B192B
:1008E000C333FF331A7023682A799B194433FF33CB
:1008F0001A7023682A7D9B19C433FF331A7023684A
:100900006A799B194533FF331A7023686A7D9B19F6
:10091000C533FF331A702368AA799B194633FF3316
:100920001A702368AA7D9B19C633FF331A70236897
:10093000EA799B194733FF331A702368EA7D9B19C4
:10094000C733FF331A7023682A7A9B194833FF3361
:100950001A7023682A7E9B19C833FF331A702368E4
:100960006A7A9B194933FF331A7023686A7E9B1990
:10097000C933FF331A702368AA7A9B194A33FF33AD
:100980001A702368AA7E9B19CA33FF331A70236832
:10099000EA7A9B194B33FF331A702368EA7E9B195E
:1009A000CB33FF331A7023682A7B9B194C33FF33F8
:1009B0001A7023682A7F9B19CC33FF331A7023687F
:1009C0006A7B9B194D33FF331A7023686A7F9B192A
:1009D000CD33FF331A702368AA7B9B194E33FF3344
:1009E0001A702368AA7F9B19CE33FF331A702368CD
:1009F000EA7B9B194F33FF331A702368EA7F9B19F8
:100A0000CF33FF331A7023682A7C9B195033FF338E
:100A10001A7042462368AA5C9B19D033FF33103604
:100A20001A700137202E00D027E740230A4A3C21C4
:100A30001370002309480093094B0EF0F3FE0DB02C
:100A4000F0BCBB46B246A946A046F0BD054B03AD7F
:100A50009A46C9E5401E0110E8340020E811002044
:100A60000104000004280020F0B5DE4657464E463B
:100A70004546E0B58FB08246039111F02BF88346CE
:100A8000082801DD08239B46002300229C4C216896
:100A9000CA542168C91880310A702168C9184A707F
:100AA0002168C91881310A702168C9188A702168C3
:100AB000C91882310A702168C918CA702168C9181A
:100AC00083310A702168C9180A712168C9188431F4
:100AD0000A702168C9184A712168C91885310A70DD
:100AE0002168C9188A712168C91886310A7021687D
:100AF000C918CA712168C91887310A702168C918D4
:100B00000A722168C91888310A702168C9184A72A6
:100B10002168C91889310A702168C9188A72216848
:100B2000C9188A310A702168C918CA722168C9189F
:100B30008B310A702168C9180A732168C9188C3171
:100B40000A702168C9184A732168C9188D310A7062
:100B50002168C9188A732168C9188E310A70216802
:100B6000C918CA732168C9188F3110330A70802BD5
:100B70008DD1002800D1B2E0624B00269846202398
:100B80000027994605AD53460021D85D434603E052
:100B900001312133642909D01A788242F8D14B01FE
:100BA00059182122280041440CF036FE039B002BEB
:100BB00000D0AFE06B7821686A7C8B5523689B1965
:100BC00080331A702368A9789B19AA7C597023680E
:100BD0009B1981331A702368E9789B19EA7C997014
:100BE00023689B1982331A70236829799B192A7DFF
:100BF000D97023689B1983331A70236869799B190C
:100C00006A7D197123689B1984331A702368AA7D41
:100C1000A9799B19597123689B1985331A70236828
:100C2000E9799B19EA7D997123689B1986331A70BB
:100C30002368297A9B192A7ED97123689B198733E7
:100C40001A702368697A9B196A7E197223689B1946
:100C500088331A702368A97A9B19AA7E597223686F
:100C60009B1989331A702368E97A9B19EA7E997275
:100C700023689B198A331A702368297B9B192A7F62
:100C8000D97223689B198B331A702368697B9B196F
:100C90006A7F197323689B198C331A702368A97BA8
:100CA0009B19AA7F597323689B198D331A70236887
:100CB000E97B9B19EA7F997323689B198E331A701D
:100CC0004B46EA5C2368297C9B19D97323689B19DE
:100CD0008F331A7001371036BB4500DD53E74023D0
:100CE000094A3C211370002308480093084B0EF07A
:100CF00099FD0FB0F0BCBB46B246A946A046F0BD78
:100D0000784F002004280020E8340020E81100205B
:100D1000010400006A786B7CD243DB432168D2B2C5
:100D20008A556A702268DBB2921980321370AA78F1
:100D30006B74D243AB7C2168DB43D2B289194A7011
:100D4000AA702268DBB2921981321370EA78AB7410
:100D5000D243EB7C2168DB43D2B289198A70EA70F6
:100D60002268DBB29219823213702A79EB74D24373
:100D70002B7D2168DB43D2B28919CA702A7122689F
:100D8000DBB29219833213702B756A796B7DD24373
:100D9000DB432168D2B289190A716A712268DBB219
:100DA000921984321370AA796B75D243AB7D216896
:100DB000DB43D2B289194A71AA712268DBB2921957
:100DC00085321370EA79AB75D243EB7D2168DB4342
:100DD000D2B289198A71EA712268DBB2921986321D
:100DE00013702A7AEB75D2432B7E2168DB43D2B293
:100DF0008919CA712A722268DBB29219873213707C
:100E00002B766A7A6B7ED243DB432168D2B2891992
:100E10000A726A722268DBB2921988321370AA7A57
:100E20006B76D243AB7E2168DB43D2B289194A721A
:100E3000AA722268DBB2921989321370EA7AAB7611
:100E4000D243EB7E2168DB43D2B289198A72EA72FF
:100E50002268DBB292198A3213702A7BEB76D24376
:100E60002B7F2168DB43D2B28919CA722A732268A8
:100E7000DBB292198B3213702B776A7B6B7FD24374
:100E8000DB432168D2B289190A736A732268DBB224
:100E900092198C321370AA7B6B77D243AB7F216897
:100EA000DB43D2B289194A73AA732268DBB2921962
:100EB0008D321370EA7BAB77D243EB7F2168DB4343
:100EC000D2B289198A73EA732268DBB292198E3220
:100ED00013702A7CEB77D2434B46D2B22A74EB5C78
:100EE0004946DB43DBB26B5421688919CA73226817
:100EF00092198F321370EDE6F0B5DE4657464E4636
:100F00004546E0B58FB08246039110F0E3FD83467D
:100F1000082801DD08239B468023C02500229E4C23
:100F20005B006D002168CA542168C91880310A70BD
:100F30002168C9184A702168C91881310A7021686E
:100F4000C9188A702168C91882310A702168C918C5
:100F5000CA702168C91883310A702168C9180A71DA
:100F60002168C91884310A702168C9184A7121683A
:100F7000C91885310A702168C9188A712168C91891
:100F800086310A702168C918CA712168C918873169
:100F90000A702168C9180A722168C91888310A7054
:100FA0002168C9184A722168C91889310A702168F4
:100FB000C9188A722168C9188A310A702168C9184B
:100FC000CA722168C9188B310A702168C9180A735E
:100FD0002168C9188C310A702168C9184A732168C0
:100FE000C9188D310A702168C9188A732168C91817
:100FF0008E310A702168C918CA732168C9188F31E7
:1010000010330A70AB428DD1002800D1B3E0634B9E
:1010100080269846202300279946760005AD534642
:101020000021D85D434603E001312133642909D012
:101030001A788242F8D14B015918212228004144E4
:101040000CF0EAFB039B002B00D0AFE06B7821682B
:101050006A7C8B5523689B1980331A702368A978A2
:101060009B19AA7C597023689B1981331A702368D5
:10107000E9789B19EA7C997023689B1982331A706E
:10108000236829799B192A7DD97023689B1983339A
:101090001A70236869799B196A7D197123689B19F5
:1010A00084331A702368AA7DA9799B195971236822
:1010B0009B1985331A702368E9799B19EA7D997128
:1010C00023689B1986331A702368297A9B192A7E14
:1010D000D97123689B1987331A702368697A9B1921
:1010E0006A7E197223689B1988331A702368A97A5B
:1010F0009B19AA7E597223689B1989331A70236839
:10110000E97A9B19EA7E997223689B198A331A70CF
:101110002368297B9B192A7FD97223689B198B33FB
:101120001A702368697B9B196A7F197323689B195E
:101130008C331A702368A97B9B19AA7F5973236883
:101140009B198D331A702368E97B9B19EA7F997389
:1011500023689B198E331A704B46EA5C2368297CFE
:101160009B19D97323689B198F331A700137103676
:10117000BB4500DD53E74023094A3C21137000239F
:1011800008480093084B0EF04DFB0FB0F0BCBB4677
:10119000B246A946A046F0BD784F002004280020A2
:1011A000E8340020E8110020010400006A786B7C1C
:1011B000D243DB432168D2B28A556A702268DBB21F
:1011C000921980321370AA786B74D243AB7C216879
:1011D000DB43D2B289194A70AA702268DBB2921935
:1011E00081321370EA78AB74D243EB7C2168DB4325
:1011F000D2B289198A70EA702268DBB292198232FF
:1012000013702A79EB74D2432B7D2168DB43D2B271
:101210008919CA702A712268DBB29219833213705D
:101220002B756A796B7DD243DB432168D2B2891971
:101230000A716A712268DBB2921984321370AA793A
:101240006B75D243AB7D2168DB43D2B289194A71F9
:10125000AA712268DBB2921985321370EA79AB75F4
:10126000D243EB7D2168DB43D2B289198A71EA71DE
:101270002268DBB29219863213702A7AEB75D24358
:101280002B7E2168DB43D2B28919CA712A72226887
:10129000DBB29219873213702B766A7A6B7ED24357
:1012A000DB432168D2B289190A726A722268DBB202
:1012B000921988321370AA7A6B76D243AB7E21687A
:1012C000DB43D2B289194A72AA722268DBB2921940
:1012D00089321370EA7AAB76D243EB7E2168DB4326
:1012E000D2B289198A72EA722268DBB292198A3202
:1012F00013702A7BEB76D2432B7F2168DB43D2B27B
:101300008919CA722A732268DBB292198B32137060
:101310002B776A7B6B7FD243DB432168D2B289197A
:101320000A736A732268DBB292198C321370AA7B3B
:101330006B77D243AB7F2168DB43D2B289194A7302
:10134000AA732268DBB292198D321370EA7BAB77F5
:10135000D243EB7F2168DB43D2B289198A73EA73E7
:101360002268DBB292198E3213702A7CEB77D2435B
:101370004B46D2B22A74EB5C4946DB43DBB26B547A
:1013800021688919CA73226892198F321370EDE6A9
:101390000A4B1B78002B0FD18423094A9B00D35C96
:1013A000002B04D1D0231B065A685A68FCE7D023CF
:1013B0001B065A685A68FCE77047C046240C022096
:1013C000F838002010B50E4B1B78012B0BD90022EA
:1013D0000C4B1A700C4A0D4B13CB13C20C4A0D4B1D
:1013E00013CB13C210BD074A1370002BF2D0064A6C
:1013F000094B13CB13C2064A084B13CB13C2F1E7B8
:10140000C04F0020280C0220201100207021011064
:1014100030110020A82101107C210110B4210110FD
:1014200070B505211A2009F0B1FE244C05211B20BE
:1014300009F0ACFE05211C2009F0A8FE200009F0EF
:10144000B3FFD02300251B061A6A1D4E54401D4AC7
:101450001440DC621C4C7057002109F0DFFE60571D
:101460000021013509F0DAFE0C2DF4D125000C35F0
:101470000020002220560121013409F0A1FEAC42D7
:10148000F6D101211B2009F0B5FE002201211B200D
:1014900009F096FE012204210C4B1B2009F0FCFEF2
:1014A000192009F061FFD02380221B06920400213D
:1014B00019205A6209F0B2FE70BDC046FF0F00004D
:1014C00030110020FFFF7F0C20110020B198001088
:1014D00010B501211C2009F08DFE064B01220421CC
:1014E0001C2009F0D9FE0AF0E9FE034B1860596090
:1014F00010BDC046B1980010D0170020F0B5574677
:101500004E464546DE46E0B50126714B37001B7856
:101510008146013B5A425A4104329740BFB2FA43D6
:1015200092B290465A1E934104339E40B2B2D343C6
:101530009BB29C4683004B441D01ED1A654C664BE3
:10154000AD002C19ED1801239A4602239946434613
:1015500083B0019001210120904600934CE0238844
:1015600096108B43314255D10226B343D6103142F7
:1015700056D10426B3431611314257D10826B3433E
:101580005611314258D1009E33409611314257D105
:1015900066463340D611314257D14026B343161226
:1015A000314257D18026B3435612314257D14B4E68
:1015B00033409612314258D1494E3340D61231420F
:1015C00059D1484E3340161331425AD1464E33401A
:1015D000561331425BD1454E3340961331425CD1B4
:1015E000434ED2133340002A5CD1424A01301340AB
:1015F0002380023496285DD04300EA5A11425BD022
:1016000053101942ABD056462388334396109BB2F1
:101610003142A9D04E463343D6109BB23142A8D0B6
:101620000426334316119BB23142A7D00826334318
:1016300056119BB23142A6D096113B433142A7D0FE
:1016400046463343D6113142A7D0402633431612C3
:101650003142A7D08026334356123142A7D080268C
:101660007600334396123142A6D08026B60033432B
:10167000D6123142A5D08026F600334316133142EC
:10168000A4D080263601334356133142A3D080269E
:101690007601334396133142A2D08026B6013343FC
:1016A000D213A2D08022D20113430130238002340E
:1016B0009628A1D1013801E00138C0B20E4B019A41
:1016C000985403B0F0BCBB46B246A946A046F0BD54
:1016D000280C0220F4190020803B0020FFFEFFFFB1
:1016E000FFFDFFFFFFFBFFFFFFF7FFFFFFEFFFFF28
:1016F000FFDFFFFFFFBFFFFF743B0020F0B5DE46BA
:1017000057464E4645468022E0B5614C614952003D
:10171000200089B00CF080F81D215F4B8C461A0028
:101720005E4F624494467A1F9146012200259346FB
:101730001E39002601966E00B046A8444646F600C3
:1017400020000122B24659819981D981198259829A
:101750009982D982198359839983D98319840294F0
:1017600005E0012E19D106785E7101320130561E56
:10177000032A0FD0022E08DC002EF2D10778092FA1
:1017800000D9B2E15F701E70EFE7032E05D1067835
:101790009E70EAE706789E71E7E7067837007C1EC0
:1017A000A741B84667464446BC54012E0DD1019F5F
:1017B000394C3E00A0464C4656440436A4567600AA
:1017C000464474803E0001360196102ACDD1203265
:1017D0009046029C01353033C44410340C2DA8D1FE
:1017E000E1222F4C0021120120000CF00FF8E12221
:1017F000002112012B480CF009F896220123520017
:10180000A3529218A3522D32FF32A3522D32FF322F
:10181000A352254A2380A3522D32FF32A352234ADA
:101820008025A3522D32FF32A352214A0694A3529F
:10183000204A6D00A352204AA352204B0793002355
:101840000593F0235B030493802252059446049B86
:1018500063440393069B0193002302938022039920
:10186000520017480BF0D8FF8022D2019246154A49
:1018700080279146802292019046134A104B94464D
:10188000124A5C1C934601980299FF347F0174E070
:10189000C04F002000001F10F83800203011002039
:1018A000803B0020F4190020DC0500003408000013
:1018B0008C0A0000B80B0000E40C0000F93800208E
:1018C000C0500020FFBFFFFFFFDFFFFFFFEFFFFF64
:1018D00001260288B2435E78002E59D00226324398
:1018E0009E78002E59D004263243DE78002E59D03F
:1018F000082632431E79002E59D0102632435E79D5
:10190000002E59D0202632439E79002E59D04026F1
:101910003243DE79002E59D0802632431E7A002EC3
:1019200059D05E7A2A43002E5AD08026B600324320
:101930009E7A002E59D08026F6001643DA7A002AC5
:1019400058D08022120132431E7B002E57D05E7B7E
:101950003A43002E58D0464632439E7B002E58D044
:1019600056463243DE7B002E58D0654E324302800D
:10197000103301310230A34258D07729F8DC1A78AD
:10198000002AA5D00122068832435E78002EA5D118
:101990000226B2439E78002EA5D10426B243DE78FB
:1019A000002EA5D10826B2431E79002EA5D11026FF
:1019B000B2435E79002EA5D12026B2439E79002E37
:1019C000A5D14026B243DE79002EA5D18026B243B0
:1019D0001E7A002EA5D14B4E32405E7A002EA4D145
:1019E000494E32409E7A002EA5D1484E1640DA7AF2
:1019F000002AA6D1464A32401E7B002EA7D15E4661
:101A000032405E7B002EA6D1664632409E7B002E81
:101A1000A6D14E463240DE7B002EA6D15204520C97
:101A20001033028001310230A342A6D1039B019AF8
:101A30000133FF330393029B203210330293019250
:101A4000AB4200D00AE7802252019446049B6344D3
:101A50000493079B1B78052B4DD0059B049A0133FB
:101A60000593079B30330793069B2D33FF33069373
:101A7000F6235B039A4200D0E6E68022254C2649F5
:101A8000200052000BF0C8FE2378244A2349D3706B
:101A900033236278CA54A2783033CA54E2783033A0
:101AA000CA5422793033CA5462793033CA54242359
:101AB000A279FF33CA545423E279FF33CA548423F2
:101AC000227AFF33CA54B423627AFF33CA54E42320
:101AD000A27AFF33CA54E27A114BCA5409B0F0BC5F
:101AE000BB46B246A946A046F0BD3E000A3E5E7027
:101AF0005E461E7039E60598FFF700FDADE7C0466B
:101B00000080FFFFFFFEFFFFFFFDFFFFFFFBFFFF6A
:101B1000FFF7FFFFC051002000F01E10F838002032
:101B200013020000F0B5DE4657464E464546AB4B25
:101B3000E0B51B5CAA49002B00D18CE043001C18C7
:101B400024010C1965789A46012D00D14EE1AB1E97
:101B5000012B00D8D2E1042D00D1AFE2AB1F012B45
:101B600000D91FE19F4B1B785BB2062D01D100F01D
:101B70009DFC022B01DC00F09DFC53461D182D013D
:101B80004D190A23EE5E731C00D10BE101242300E2
:101B9000D027B3403F067B61934B9C550C22AE5E31
:101BA000721C00D1FEE02200B2407A619C550E22E8
:101BB000AE5E721C00D1F5E02200B2407A619C5505
:101BC0001022AE5E721C00D1ECE02200B2407A61BD
:101BD0009C551222AE5E721C00D1E3E02200B2409E
:101BE0007A619C551422AE5E721C00D1DAE02200AC
:101BF000B2407A619C551622AE5E721C00D1D1E0D3
:101C00002200B2407A619C551822AE5E721C00D14F
:101C1000C8E02200B2407A619C551A22AE5E721C66
:101C200000D1BFE02200B2407A611C22AD5E9C551B
:101C30006A1C00D1B6E027000200D026AF40524413
:101C4000120189181E200A5E360677615C55501C09
:101C500000D029E1A6E043009A461B181B01CB18CF
:101C60000A241C5F631C00D195E05F4B1D5D002DB5
:101C700005D10126D027A6403F06BE611D5552461C
:101C8000141824010C190C25645F651C00D182E036
:101C90001D5D002D05D10126D027A6403F06BE615F
:101CA0001D555246141824010C190E25645F651C3D
:101CB00071D01D5D002D05D10126D027A6403F061D
:101CC000BE611D555246141824010C191022A45E41
:101CD000621C60D01D5D002D6AD05246141824018C
:101CE0000C191222A45E621C55D01D5D002D66D019
:101CF0005246141824010C191422A45E621C4AD006
:101D00001D5D002D62D05246141824010C191622B4
:101D1000A45E621C3FD01D5D002D00D1D2E0524672
:101D2000141824010C191822A45E621C33D01D5D06
:101D3000002D00D1CDE05246141824010C191A22AE
:101D4000A45E621C27D01D5D002D00D1C8E0524664
:101D5000141824010C191C22A45E621C1BD01D5DEA
:101D6000002D00D1C3E05246141824010C191E2284
:101D7000A45E621C0FD01D5D002D00D18CE1524687
:101D8000141824010C192022A45E621C03D01D5DCE
:101D9000002D00D187E102000023524412018A186D
:101DA000D3851372F0BCBB46B246A946A046F0BD2F
:101DB0000126D027A6403F06BE611D558DE70126AE
:101DC000D027A6403F06BE611D5591E70126D027CA
:101DD000A6403F06BE611D5595E7C046683B002002
:101DE000F83800203C110020EC3800200A23E75E80
:101DF0007B1CD7D02B00D026BB4036067361AD4B81
:101E0000DD550C22A75E7A1CCCD02A00BA40726144
:101E1000DD550E22A75E7A1CC4D02A00BA4072613A
:101E2000DD551022A75E7A1CBCD02A00BA40726130
:101E3000DD551222A75E7A1CB4D02A00BA40726126
:101E4000DD551422A75E7A1CACD02A00BA4072611C
:101E5000DD551622A75E7A1CA4D02A00BA40726112
:101E6000DD551822A55E6A1C9CD001242700AF40D6
:101E70005044000109181A200A5E77615C55501C15
:101E800000D18FE72000904070619C541C200A5EB6
:101E9000501C00D186E72000904070619C541E20A9
:101EA0000A5E501C00D17DE72000904070619C5478
:101EB00020228A5E511C00D174E72100914071619B
:101EC0009C546FE70126D027A6403F06BE611D55F2
:101ED00025E70126D027A6403F06BE611D552AE70B
:101EE0000126D027A6403F06BE611D552FE70126DB
:101EF000D027A6403F06BE611D5534E76E4B1B78C8
:101F0000022D00D154E2002B00D154E253461C189C
:101F100024010C190A23E65E731C00D142E7654BCD
:101F20009A5D9146002A00D03CE701252A00B24084
:101F30009046D02247461206976194464A469A55E3
:101F40000C22A65E721C00D12CE79A5D9146002AF5
:101F500000D027E72A00B240904662464746976184
:101F60004A469A550E22A65E721C00D11AE79A5D67
:101F70009146002A00D015E72A00B24090466246FA
:101F8000474697614A469A551022A65E721C00D1B8
:101F900008E79F5D002F00D004E76246B5409561D9
:101FA0001222A45E9F55621C00D1FBE61D5D002D30
:101FB00000D0F7E601352E006746A6405246BE61C6
:101FC00000261E55141824010C191422A65E721C3A
:101FD00000D1E7E69A5D9446002A00D0E2E62A00A6
:101FE000B240BA6162469A551622A65E721C00D1B2
:101FF000D8E69A5D9446002A00D0D3E62A00B24083
:10200000BA6162469A551822A65E721C00D1C9E6D2
:102010009A5D9446002A00D0C4E62A00B240BA6114
:1020200062469A551A22A65E721C00D1BAE69A5DE3
:10203000002A00D0B6E6B540BD619A551C22A45EC8
:10204000621C00D1AEE61D5D002D00D0AAE6013570
:102050002F00D026A7403606B76100275044000164
:1020600009181E22885E1F55421C00D19AE61A5C90
:10207000002A00D096E62C008440B4611A54202235
:10208000895E4A1C00D18DE6585C002800D089E6A4
:102090008D40B561585485E60126D027A6403F06FD
:1020A000BE611D556BE60126D027A6403F06BE61E6
:1020B0001D5570E6EC3800201E0C0220E67963798D
:1020C000B34200D9C9E0267A0A23E55E0136F6B2AA
:1020D00026726B1C00D1B5E0B44B5A5D9446002AC1
:1020E00000D0AFE001329346AA409146D0224F463D
:1020F00012069761904662465A550C22A55E6A1CEC
:1021000000D19FE05A5D9446002A00D09AE05F46D5
:102110004246AF40976162465A550E22A55E6A1C40
:1021200000D18FE05A5D9446002A00D08AE0012455
:102130002200D027AA403F06BA6162465A5552464D
:1021400015182D01AC468C4462461025555F6A1C5B
:1021500078D05A5D9046002A74D12200AA40BA6114
:1021600042465A5562461225555F6A1C6AD05A5D2E
:102170009046002A66D12200AA40BA6142465A55CA
:1021800062461425555F6A1C5CD05A5D9046002A51
:1021900058D12200AA40BA6142465A5562461625D5
:1021A000555F6A1C4ED05A5D002A4BD1AC40BC61D1
:1021B0005A5562461825555F6A1C43D05A5D9446AD
:1021C000002A3FD101242200AA40BA6162465A5532
:1021D000524615182D01AC468C4462461A25555FAF
:1021E0006A1C2FD05A5D9046002A2BD12200AA40AB
:1021F000BA6142465A5562461C25555F6A1C21D079
:102200005A5D9046002A1DD12200AA40BA6142467A
:102210005A5562461E25555F6A1C13D05A5D90467A
:10222000002A0FD12200AA40BA6142465A5562469E
:102230002025555F6A1C05D05A5D002A02D1AC40AA
:10224000BC615A555044000109188B79B34200D043
:10225000A8E50023CB710B72A4E50A22A35E9C467D
:10226000013300D19BE0033D62462B009340D02216
:1022700012065361914662464C4B9D540C27E25F17
:102280009446013200D18AE067462A00BA404F46A0
:102290007A6162469D540E27E25F944601327ED0F9
:1022A00067462A00BA404F467A6162469D5410271D
:1022B000E25F9446013272D02A006746BA404F4628
:1022C0007A6162469D541222A55E6A1C67D0012481
:1022D00027004A46AF40576152465C5515182D01FC
:1022E0004D191422AF5ECC463A00B946013256D0A1
:1022F0002200BA4090466246474657614A469C547F
:102300001622AF5E3A00B946013248D02200BA40E8
:1023100090466246474657614A469C541822AF5E33
:102320003A00B94601323AD02200BA40904662469D
:10233000474657614A469C541A22AF5E3A00B94656
:1023400001322CD02200BA4090466246474657617F
:102350004A469C541C22AF5E3A00B94601321ED058
:102360002200BA4090466246474657614A469C540E
:102370001E22AF5E3A00B946013210D02200BA40A8
:1023800090466246474657614A469C542022AD5EBD
:102390006A1C04D027006246AF4057615C55504428
:1023A000000109180136CE71FCE4C046EC3800206B
:1023B000002B00D1AAE553461D182D014D190A2303
:1023C000EE5E731C00D1EDE401242300D027B3405E
:1023D0003F067B61A24B9C550C22AE5E721C00D165
:1023E000E0E42200B2407A619C550E22AE5E721C7F
:1023F00000D1D7E42200B2407A619C551022AE5E33
:10240000721C00D1CEE42200B2407A619C551222A7
:10241000AE5E721C00D1C5E42200B2407A619C55C8
:102420001422AE5E721C00D1BCE42200B2407A617C
:102430009C551622AE5E721C00D1B3E42200B2405D
:102440007A619C551822AE5E721C00D1AAE422006B
:10245000B2407A619C551A22AE5E721C00D1A1E492
:102460002200B2407A619C551C22AC5E621C00D1F5
:1024700098E401252F00D026A740504400010918F8
:102480001E200A5E360677611D55501C00D189E476
:102490002800904070619D5420228A5E511C00D11A
:1024A00080E42900914071619D547BE4012B01DCA3
:1024B000FFF763FB53461C1824010C190A23E65E40
:1024C000731C00D16EE4664B9A5D9146002A00D0E1
:1024D00068E401252A00B2409046D0224746120601
:1024E000976194464A469A550C22A65E721C00D10A
:1024F00058E49A5D9146002A00D053E42A00B24085
:1025000090466246474697614A469A550E22A65E15
:10251000721C00D146E49A5D9146002A00D041E445
:102520002A00B24090466246474697614A469A550D
:102530001022A65E721C00D134E49F5D002F00D0F3
:1025400030E46246B54095611222A45E9F55621C3C
:1025500000D127E41D5D002D00D023E401352E00BD
:102560006746A6405246BE6100261E551418240137
:102570000C191422A65E721C01D1FFF713FC9A5DA0
:102580009446002A01D0FFF70DFC2A00B240BA6140
:1025900062469A551622A65E721C01D1FFF702FC14
:1025A0009A5D9446002A01D0FFF7FCFB2A00B24056
:1025B000BA6162469A551822A65E721C01D1FFF7D5
:1025C000F1FB9A5D9446002A01D0FFF7EBFB2A004D
:1025D000B240BA6162469A551A22A65E721C01D1B7
:1025E000FFF7E0FB9A5D002A01D0FFF7DBFBB54067
:1025F000BD619A551C22A45E621C01D1FFF7D2FB7B
:102600001D5D002D01D0FFF7CDFB01263700D02541
:10261000A7402D06AF6100275044000109181E2273
:10262000885E1F55421C01D1FFF7BCFB1C5C002CCF
:1026300001D0FFF7B7FB32008240AA612022895EF9
:102640001C544A1C01D1FFF7ADFB585C002801D097
:10265000FFF7A8FB8E40AE615854FFF7A3FBC046BE
:10266000EC380020F0B54E4645465746DE4642005F
:102670009046BC4B121812019A18E0B59678BA4AE7
:1026800071008C466244527800269446962242435A
:10269000B64C83B00191A657B54962445200B14689
:1026A000525A01214D460F000E001740AE40114214
:1026B00000D02AE1D02109068E6101252E00A9460D
:1026C000AC4901250F7057103E40B2464E46655743
:1026D000AE404D463D4200D013E1D0273F06BE61DB
:1026E00055464D7001252E00A946971002253E4003
:1026F000B2464E466557AE404D463D4200D02CE1B5
:10270000D0273F06BE6155468D7001252E00A94693
:10271000D71003253E40B2464E466557AE404D4663
:102720003D4200D015E1D0273F06BE615546CD7031
:1027300001252E00A946171104253E40B2464E46FB
:102740006557AE404D463D4200D0FEE0D0273F06E3
:10275000BE6155460D7101252E00A946571105256C
:102760003E40B2464E466557AE404D463D4200D0D3
:10277000E7E0D0273F06BE6155464D7101252E008A
:10278000A946971106253E40B2464E466557AE40D3
:102790004D463D4200D0D0E0D0273F06BE615546B1
:1027A0008D7101252E00A946D71107253E40B2465E
:1027B0004E466557AE404D463D4200D0B9E0D02769
:1027C0003F06BE615546CD7101252E00A946171260
:1027D00008253E40B2464E466557AE404D463D4206
:1027E00000D0A2E0D0273F06BE6155460D720125FC
:1027F0002E00A946571209253E40B2464E4665575F
:10280000AE404D463D4200D08BE0D0273F06BE6132
:1028100055464D7201252E00A94697120A253E40C5
:10282000B2464E466557AE404D463D4200D074E03C
:10283000D0273F06BE6101273E005546D212164002
:10284000B1463E008D72E47A64B2A640174260D071
:10285000D022120656614A46019CCA726246A446BC
:10286000454C41490132245CD2B261444A709442E1
:1028700000D12EE15A78052A00D181E031229A5CFC
:10288000052A00D189E061229A5C052A00D192E0F4
:1028900091229A5C052A00D19BE0C1229A5C052A0C
:1028A00000D1A4E0F1229A5C052A00D1ADE02222F9
:1028B000FF329A5C052A00D1B6E05222FF329A5CC0
:1028C000052A00D1C0E08222FF329A5C052A00D19D
:1028D000C9E0B222FF329A5C052A00D1D2E0E2229E
:1028E000FF329A5C052A00D1DBE0244A9A5C052A73
:1028F00000D1E4E003B0F0BCBB46B246A946A04616
:10290000F0BDD0273F067E61EAE6D02109064E6180
:10291000D3E6D022120696619DE7D0273F067E615E
:1029200089E7D0273F067E6172E7D0273F067E61A8
:102930005BE7D0273F067E6144E7D0273F067E61F4
:102940002DE7D0273F067E6116E7D0273F067E6140
:10295000FFE6D0273F067E61E8E6D0273F067E618E
:10296000D1E6C046F8380020584F00203011002032
:10297000F4190020EC380020743B00201102000004
:10298000002800D1B3E000219A787C4C5200A1527B
:1029900031229A5C052A00D075E7012800D1ACE00D
:1029A000322200219A5C754C5200A15261229A5C3D
:1029B000052A00D06CE7022800D1A4E062220021A1
:1029C0009A5C6E4C5200A15291229A5C052A00D06A
:1029D00063E7032800D19CE0922200219A5C674CB7
:1029E0005200A152C1229A5C052A00D05AE704285D
:1029F00000D194E0C22200219A5C604C5200A152A6
:102A0000F1229A5C052A00D051E7052800D18CE01C
:102A1000F22200219A5C594C5200A1522222FF322C
:102A20009A5C052A00D048E7062800D184E091226C
:102A3000002152009A5C514C5200A1525222FF32A6
:102A40009A5C052A00D03EE707287CD0A922002105
:102A500052009A5C494C5200A1528222FF329A5C89
:102A6000052A00D035E7082874D0C1220021520081
:102A70009A5C424C5200A152B222FF329A5C052A63
:102A800000D02CE709286CD0D922002152009A5C92
:102A90003A4C5200A152E222FF329A5C052A00D041
:102AA00023E70A2864D0F122002152009A5C334CBB
:102AB0005200A152324A9A5C052A00D01AE70B282C
:102AC00000D117E72F4A2D499B5C00225B00CA52B8
:102AD00010E700224A704246121812019A18D27862
:102AE000002A00D0C6E6644624490A55C2E63122CF
:102AF0009A5C052A00D0C6E652E761229A5C052A54
:102B000000D0C5E65AE791229A5C052A00D0C4E6B7
:102B100062E7C1229A5C052A00D0C3E66AE7F12287
:102B20009A5C052A00D0C2E672E72222FF329A5C44
:102B3000052A00D0C1E67AE75222FF329A5C052AC4
:102B400000D0C0E682E78222FF329A5C052A00D0DC
:102B5000BFE68AE7B222FF329A5C052A00D0BEE6C1
:102B600092E7E222FF329A5C052A00D0BDE69AE79E
:102B7000034A9A5C052A00D0BCE6A3E7584F002020
:102B800011020000120200000121C74A70B513783B
:102B90004B401370C54A137801335BB2042B00D14C
:102BA000FF23137000210C22C1480AF02FFEC14CF4
:102BB000C14E63783078052B4ED0C04D3123E35C95
:102BC000052B64D06123E35C052B00D17CE09123CD
:102BD000E35C052B00D194E0C123E35C052B00D11D
:102BE000ACE0F123E35C052B00D1C4E02223FF33EA
:102BF000E35C052B00D1DBE05223FF33E35C052BC4
:102C000000D1F4E08223FF33E35C052B00D10DE11A
:102C1000B223FF33E35C052B00D126E1E223FF332F
:102C2000E35C052B00D14FE1A54BE35C052B00D104
:102C30007BE143001B181B01E3189B785B00EB183A
:102C40005B78002B00D060E1002420000134FEF707
:102C500069FF0C2CF9D170BD9A4B1B78002B07D063
:102C6000A378964D5B00EA5C002AA7D1002038E1EA
:102C700043001B181B01E3189B78904D5B00EB1879
:102C80005B78002B9AD1A2785200AB5496E78D4B1B
:102C90005B78002B08D03223E35C5B00EA5C002AFF
:102CA00000D08FE701201CE143001B181B01E31833
:102CB0009B785B00EB185B78002B00D082E7322218
:102CC000A25C5200AB547DE77E4B9B78002B08D072
:102CD0006223E35C5B00EA5C002A00D077E7022015
:102CE000FFE043001B181B01E3189B785B00EB1807
:102CF0005B78002B00D06AE76222A25C5200AB54E2
:102D000065E7704BDB78002B08D09223E35C5B0017
:102D1000EA5C002A00D05FE70320E2E043001B18D2
:102D20001B01E3189B785B00EB185B78002B00D04D
:102D300052E79222A25C5200AB544DE7614B1B79E3
:102D4000002B08D0C223E35C5B00EA5C002A00D0C1
:102D500047E70420C5E043001B181B01E3189B78DC
:102D60005B00EB185B78002B00D03AE7C222A25C34
:102D70005200AB5435E7534B5B79002B08D0F2235C
:102D8000E35C5B00EA5C002A00D02FE70520A8E0A6
:102D900043001B181B01E3189B785B00EB185B7862
:102DA000002B00D022E7F222A25C5200AB541DE7B8
:102DB000444B9B79002B09D091235B00E35C5B00C3
:102DC000EA5C002A00D017E706208AE043001B18BF
:102DD0001B01E3189B785B00EB185B78002B00D09D
:102DE0000AE791225200A25C5200AB5404E7354B33
:102DF000DB79002B09D0A9235B00E35C5B00EA5C74
:102E0000002A00D0FEE607206BE043001B181B01E0
:102E1000E3189B785B00EB185B78002B00D0F1E6A1
:102E2000A9225200A25C5200AB54EBE6254B1B7A60
:102E3000002B09D0C1235B00E35C5B00EA5C002A45
:102E400000D0E5E608204CE043001B181B01E31806
:102E50009B785B00EB185B78002B00D0D8E6C12292
:102E60005200A25C5200AB54D2E6164B5B7A002BA8
:102E700009D0D9235B00E35C5B00EA5C002A00D048
:102E8000CCE609202DE043001B181B01E3189B78BA
:102E90005B00EB185B78002B00D0BFE6D922520014
:102EA000A25C5200AB54B9E61E0C02203C1100207B
:102EB000EC380020F83800201A0C0220584F00206F
:102EC00011020000683B0020294B9A7A002A0ED09C
:102ED000F1235B00E35C5B00EA5C002A00D0A3E620
:102EE0000A200122EA543070FFF7BCFBB3E642002F
:102EF00012181201A21892785200AA185278002AC9
:102F00002FD01C4AA25C052A10D0FFF7ABFB327809
:102F100053009B181B01E418A3785B00ED186B7835
:102F2000002B00D097E6337095E6114BDB7A002B2F
:102F300008D0114BE35C5B00EA5C002A00D078E625
:102F40000B20CEE743001B181B01E3189B785B00A6
:102F5000EB185B78002BD8D1074AA25C5200AB5427
:102F600072E6F1235B00E35C5B00EA545CE6C0467A
:102F7000683B00201102000012020000F8B5052194
:102F80001A2008F003F905211B2008F0FFF805219D
:102F90001C2008F0FBF8214921480CF019FC032102
:102FA000142008F0F3F80321152008F0EFF80022B0
:102FB0000121142008F004F900220121152008F055
:102FC000FFF8002008F0F0F9D022164D12062F006D
:102FD000136A1549154E0B40D36212372C78002125
:102FE000200008F01BF90121200008F003F900225D
:102FF0000121200008F0E4F801353300012204210A
:10300000200008F049F9BD42E8D1192008F0ACF9D8
:10301000D02380221B0692045A62F8BD801A060053
:10302000E811002094210110FC3F0F0E056D0010E7
:10303000F8B557464E46DE464546294BE0B598461C
:103040001E00284B284F9A460023994601339B4681
:103050001D3E5546012408E0012B1BD129787171D2
:1030600038000CF011F901340135631E032C0ED029
:10307000022B07DC002BEFD12978092929D87170A0
:103080003370EDE7032B05D12978B170E8E7297893
:10309000B171E5E7297838000B005A1E934142468A
:1030A00013550CF0F1F8102CDDD10A200CF016F8B5
:1030B00030239C46203BE0449C46E1444B4630365E
:1030C000E244C02BC5D1F0BCBB46B246A946A046DF
:1030D000F8BD0B000A3B73705B463370C0E7C04617
:1030E00015390020C04F0020441E011010B51A4BA6
:1030F0001B780A2B07D8194A9B00D35800219F46FA
:103100001748FDF7F9FE10BD1648FDF7F5FEFAE782
:103110001548FDF7F1FEF6E71448FDF7EDFEF2E77E
:103120001348FDF7E9FEEEE71248FDF7E5FEEAE792
:103130001148FDF7E1FEE6E71048FDF7DDFEE2E7A6
:103140000F48FDF7D9FEDEE70E48FDF7D5FEDAE7BA
:103150000D48FDF7D1FED6E7220C0220881E011093
:10316000801E0110781E0110481E0110501E011013
:10317000581E0110601E01107C1E0110641E0110FB
:10318000681E01106C1E0110701E011070B5424CBB
:103190004248A5440BF0EEFF8024802280200023CB
:1031A00001215200640240040091019102930393B3
:1031B0000491059206930793089109940A930B933F
:1031C0000C910D900E930F931091119312911393F4
:1031D0001491159316921793189119931A941B939F
:1031E0001C911D931E901F9320912B942F906C4641
:1031F000F8202391249128912C9130913491389189
:103200003C91002123520230215401302154F820F6
:1032100090256946F0264003219322932593269317
:10322000279229932A932D932E933193329333939C
:1032300035933693379339933A933B933D930024D8
:103240003F93FDF745F86D0176036D4480AB1C603C
:103250005C609C60DC6010339D42F8D180223000BD
:10326000520180A9FDF734F880235B019C46F623C8
:1032700066445B039E42E9D180220021520040A8AF
:103280000AF0C4FA80220648520040A9FDF720F84F
:1032900090235B019D4470BD00EEFFFFB41E011042
:1032A00000F01E0000B5C1B06A46094B00211B7832
:1032B00013706B46FF22581C0AF0A8FA8022E820FF
:1032C000694652004003FDF703F841B000BDC04617
:1032D000280C022010B53B4C6378072B03D83A4AE0
:1032E0009B00D3589F46394B1B780A2B11D8384A7C
:1032F0009B00D3589F46A17936480BF0C5FF6379F0
:10330000012B57D90822314B1A7000213248FDF7A2
:10331000F3FD10BD0A222D4B1A7000212F48FDF736
:10332000EBFDF6E70022294B1A7000212C48FDF72F
:10333000E3FDEEE70122254B1A7000212948FDF735
:10334000DBFDE6E70222214B1A7000212648FDF73B
:10335000D3FDDEE709221D4B1A7000212348FDF73B
:10336000CBFDD6E70722194B1A7000212048FDF744
:10337000C3FDCEE70622154B1A7000211D48FDF74C
:10338000BBFDC6E70522114B1A7000211A48FDF754
:10339000B3FDBEE703220D4B1A7000211748FDF75D
:1033A000ABFDB6E70422094B1A7000211448FDF763
:1033B000A3FDAEE7A379072BA4D8124A9B00D358EC
:1033C0009F46C046383B0020D01E0110220C022030
:1033D000F01E0110C01E0110701E0110801E011091
:1033E000481E0110501E0110581E0110781E0110B9
:1033F0006C1E0110681E0110641E0110601E011079
:103400007C1E01101C1F0110F0B5DE4657464E46CB
:103410004546E0B5484B494C9B78A5440B2B05D855
:10342000F022520394461B036344019302AB9C4673
:10343000434BFF259846002300269946414F65449B
:103440000124772E1BDDF30F9A46012C0AD04B4640
:10345000002138002B550BF017FF102C27D001341A
:10346000012CF4D14346524600211B783800B34268
:103470005141C9B269700BF007FF0134F0E79623A0
:103480009B46953B9A46621E012C39D059462A4BE1
:1034900038009B784B432C499B195B00C95A534613
:1034A0001141194029550BF0EFFE102C33D10A20A1
:1034B0000BF014FE02AA9446244B103563440136E7
:1034C0009D42BDD180220198520142A9FCF700FF24
:1034D000012400261E4D07E002AB013B1B191E70A4
:1034E000FF2C1AD001343035631E0B2BF4D8380072
:1034F00029780BF0C9FE2B7802AA013A1355F1E79F
:10350000434600211A78F30FB2425941C9B238003C
:1035100069700BF0B9FE0134B5E780220D48520006
:1035200002A9FCF7D5FE0C4B9D44F0BCBB46B2464D
:10353000A946A046F0BDC046383B0020F4EEFFFF90
:103540002D110020441E0110803B0020FF100000C0
:10355000FB38002000F01E000C110000F0B5DE4624
:1035600057464E464546E0B58FB0814603910EF072
:10357000B1FA8246082801DD08239A4681250022F7
:103580009A4C9B4E2B00803B2168C91801390A7068
:103590002168C9187F310A702168CA542168C91886
:1035A00080310A702168C9184A702168C9188131B0
:1035B0000A702168C9188A702168C91882310A7096
:1035C0002168C918CA702168C91883310A70216836
:1035D000C9180A712168C91884310A702168C9188C
:1035E0004A712168C91885310A702168C9188A7121
:1035F0002168C91886310A702168C918CA71216802
:10360000C91887310A702168C9180A722168C91857
:1036100088310A702168C9184A722168C91889312D
:103620000A702168C9188A722168C9188A310A701B
:103630002168C918CA722168C9188B310A702168BB
:10364000C9180A732168C9188C310A702168C91811
:103650004A732168C9188D310A702168C9188A73A4
:103660002168C9188E3110330A70AB428CD15D1CB1
:10367000FF35B54286D1002801D100F0D7FC5D4B63
:1036800000269846202300279B4605AD4B46002187
:10369000D85D434603E001312133642909D01A780B
:1036A0008242F8D14B0159182122280041440AF0E6
:1036B000B3F86B7822680137935523686A7C9B19AD
:1036C00080331A702368AA789B195A702368AA7CE1
:1036D0009B1981331A702368EA789B199A702368C2
:1036E000EA7C9B1982331A7023682A799B19DA7055
:1036F00023682A7D9B1983331A7023686A799B1982
:103700001A7123686A7D9B1984331A702368AA7919
:103710009B195A712368AA7D9B1985331A702368F7
:10372000EA799B199A712368EA7D9B1986331A708E
:1037300023682A7A9B19DA7123682A7E9B198733BA
:103740001A7023686A7A9B191A7223686A7E9B1919
:1037500088331A702368AA7A9B195A722368AA7E42
:103760009B1989331A702368EA7A9B199A72236825
:10377000EA7E9B198A331A7023682A7B9B19DA72B6
:1037800023682A7F9B198B331A7023686A7B9B19E5
:103790001A7323686A7F9B198C331A702368AA7B7B
:1037A0009B195A732368AA7F9B198D331A7023685B
:1037B000EA7B9B199A732368EA7F9B198E331A70F0
:1037C00023682A7C9B19DA735A462368AA5C9B19E2
:1037D0008F331A701036BA4500DD57E720230026D4
:1037E0009946054F4346002138780BE0784F00207A
:1037F00081020000042800203C1E01100131213309
:10380000642909D01A788242F8D14B015918212233
:10381000280041440AF000F8039B012B00D1BFE1CE
:10382000236869789B190133FF336A7C1970236818
:103830009B198133FF331A702368A9789B190233CF
:10384000FF33AA7C197023689B198233FF331A70E7
:103850002368E9789B190333FF33EA7C19702368E6
:103860009B198333FF331A70236829799B1904331A
:10387000FF332A7D197023689B198433FF331A7034
:10388000236869799B190533FF336A7D19702368B2
:103890009B198533FF331A702368AA7D9B19A97978
:1038A0000633FF33197023689B198633FF331A7070
:1038B0002368E9799B190733FF33EA7D1970236880
:1038C0009B198733FF331A702368297A9B190833B1
:1038D000FF332A7E197023689B198833FF331A70CF
:1038E0002368697A9B190933FF336A7E197023684C
:1038F0009B198933FF331A702368A97A9B190A33FD
:10390000FF33AA7E197023689B198A33FF331A701C
:103910002368E97A9B190B33FF33EA7E1970236819
:103920009B198B33FF331A702368297B9B190C3347
:10393000FF332A7F197023689B198C33FF331A7069
:103940002368697B9B190D33FF336A7F19702368E5
:103950009B198D33FF331A702368A97B9B190E3393
:10396000FF33AA7F197023689B198E33FF331A70B7
:103970002368E97B9B190F33FF33EA7F19702368B3
:103980009B198F33FF331A704B46EA5C2368297CFE
:103990009B191033FF33197023689B199033FF3341
:1039A0001A7010360137302E00D01BE72023002676
:1039B0009946774F43460021387803E0013121339F
:1039C000642909D01A788242F8D14B015918212272
:1039D0002800414409F020FF039B002B00D102E2A4
:1039E000236869789B194133FF336A7C1970236817
:1039F0009B19C133FF331A702368A9789B1942338E
:103A0000FF33AA7C197023689B19C233FF331A70E5
:103A10002368E9789B194333FF33EA7C19702368E4
:103A20009B19C333FF331A70236829799B194433D8
:103A3000FF332A7D197023689B19C433FF331A7032
:103A4000236869799B194533FF336A7D19702368B0
:103A50009B19C533FF331A702368AA7D9B19A97976
:103A60004633FF33197023689B19C633FF331A702E
:103A70002368E9799B194733FF33EA7D197023687E
:103A80009B19C733FF331A702368297A9B1948336F
:103A9000FF332A7E197023689B19C833FF331A70CD
:103AA0002368697A9B194933FF336A7E197023684A
:103AB0009B19C933FF331A702368A97A9B194A33BB
:103AC000FF33AA7E197023689B19CA33FF331A701B
:103AD0002368E97A9B194B33FF33EA7E1970236818
:103AE0009B19CB33FF331A702368297B9B194C3306
:103AF000FF332A7F197023689B19CC33FF331A7068
:103B00002368697B9B194D33FF336A7F19702368E3
:103B10009B19CD33FF331A702368A97B9B194E3351
:103B2000FF33AA7F197023689B19CE33FF331A70B5
:103B30002368E97B9B194F33FF33EA7F19702368B1
:103B40009B19CF33FF331A704B46EA5C2368297CFC
:103B50009B195033FF33197023689B19D033FF33FF
:103B60001A7010360137202E00D023E74023094A6F
:103B70003C211370002308480093084B0BF052FEC1
:103B80000FB0F0BCBB46B246A946A046F0BDC04649
:103B9000401E0110E8340020E8110020010400005C
:103BA0006A786B7CD243DB432168D2B28919013138
:103BB000FF310A706A702268DBB292198132FF32DB
:103BC0001370AA786B74D243AB7C2168DB438919EC
:103BD0000231D2B2FF310A70AA702268DBB29219A8
:103BE0008232FF321370EA78AB74D243EB7C2168E7
:103BF000DB4389190331D2B2FF310A70EA702268BF
:103C0000DBB292198332FF3213702A79EB74D243FC
:103C10002B7D2168DB4389190431D2B2FF310A7050
:103C20002A712268DBB292198432FF3213702B752D
:103C30006A796B7DD243DB432168D2B289190531A1
:103C4000FF310A706A712268DBB292198532FF3245
:103C50001370AA796B75D243AB7D2168DB43891958
:103C60000631D2B2FF310A70AA712268DBB2921912
:103C70008632FF321370EA79AB75D243EB7D21684F
:103C8000DB4389190731D2B2FF310A70EA71226829
:103C9000DBB292198732FF3213702A7AEB75D24366
:103CA0002B7E2168DB4389190831D2B2FF310A70BB
:103CB0002A722268DBB292198832FF3213702B7697
:103CC0006A7A6B7ED243DB432168D2B2891909310B
:103CD000FF310A706A722268DBB292198932FF32B0
:103CE0001370AA7A6B76D243AB7E2168DB438919C5
:103CF0000A31D2B2FF310A70AA722268DBB292197D
:103D00008A32FF321370EA7AAB76D243EB7E2168B7
:103D1000DB4389190B31D2B2FF310A70EA72226893
:103D2000DBB292198B32FF3213702A7BEB76D243CF
:103D30002B7F2168DB4389190C31D2B2FF310A7025
:103D40002A732268DBB292198C32FF3213702B7700
:103D50006A7B6B7FD243DB432168D2B289190D3174
:103D6000FF310A706A732268DBB292198D32FF321A
:103D70001370AA7B6B77D243AB7F2168DB43891931
:103D80000E31D2B2FF310A70AA732268DBB29219E7
:103D90008E32FF321370EA7BAB77D243EB7F216820
:103DA000DB4389190F31D2B2FF310A70EA732268FE
:103DB000DBB292198F32FF3213702A7CEB77D24339
:103DC0004B46D2B22A74EB5C4946DB43DBB26B5400
:103DD000216889191031FF310A70226892199032D6
:103DE000FF321370DDE56A786B7CD243DB432168D8
:103DF000D2B289194131FF310A706A702268DBB290
:103E00009219C132FF321370AA786B74D243AB7C23
:103E10002168DB4389194231D2B2FF310A70AA709E
:103E20002268DBB29219C232FF321370EA78AB74A7
:103E3000D243EB7C2168DB4389194331D2B2FF3195
:103E40000A70EA702268DBB29219C332FF32137033
:103E50002A79EB74D2432B7D2168DB4389194431E5
:103E6000D2B2FF310A702A712268DBB29219C432D1
:103E7000FF3213702B756A796B7DD243DB43216867
:103E8000D2B289194531FF310A706A712268DBB2FA
:103E90009219C532FF321370AA796B75D243AB7D8C
:103EA0002168DB4389194631D2B2FF310A70AA7109
:103EB0002268DBB29219C632FF321370EA79AB7511
:103EC000D243EB7D2168DB4389194731D2B2FF3100
:103ED0000A70EA712268DBB29219C732FF3213709E
:103EE0002A7AEB75D2432B7E2168DB43891948314E
:103EF000D2B2FF310A702A722268DBB29219C8323C
:103F0000FF3213702B766A7A6B7ED243DB432168D3
:103F1000D2B289194931FF310A706A722268DBB264
:103F20009219C932FF321370AA7A6B76D243AB7EF4
:103F30002168DB4389194A31D2B2FF310A70AA7273
:103F40002268DBB29219CA32FF321370EA7AAB767A
:103F5000D243EB7E2168DB4389194B31D2B2FF316A
:103F60000A70EA722268DBB29219CB32FF32137008
:103F70002A7BEB76D2432B7F2168DB4389194C31B6
:103F8000D2B2FF310A702A732268DBB29219CC32A6
:103F9000FF3213702B776A7B6B7FD243DB43216840
:103FA000D2B289194D31FF310A706A732268DBB2CF
:103FB0009219CD32FF321370AA7B6B77D243AB7F5D
:103FC0002168DB4389194E31D2B2FF310A70AA73DE
:103FD0002268DBB29219CE32FF321370EA7BAB77E4
:103FE000D243EB7F2168DB4389194F31D2B2FF31D5
:103FF0000A70EA732268DBB29219CF32FF32137073
:104000002A7CEB77D2434B46D2B22A74EB5C49460A
:10401000DB43DBB26B54216889195031FF310A70E0
:1040200022689219D032FF3213709AE5024B05AD27
:104030009846FFF7D3FBC04604280020F0B545465C
:10404000DE4657464E4681200022E0B5D44CD54D81
:104050008FB00300803B2168C91801390A702168BC
:10406000C9187F310A702168CA542168C918803183
:104070000A702168C9184A702168C91881310A700C
:104080002168C9188A702168C91882310A702168AC
:10409000C918CA702168C91883310A702168C91803
:1040A0000A712168C91884310A702168C9184A71D7
:1040B0002168C91885310A702168C9188A71216878
:1040C000C91886310A702168C918CA712168C918CF
:1040D00087310A702168C9180A722168C9188831A5
:1040E0000A702168C9184A722168C91889310A7092
:1040F0002168C9188A722168C9188A310A70216832
:10410000C918CA722168C9188B310A702168C91888
:104110000A732168C9188C310A702168C9184A735A
:104120002168C9188D310A702168C9188A732168FD
:10413000C9188E3110330A7098428CD10130FF308B
:10414000A84286D1984B00269A4620239846974F3E
:1041500005AD53460021387803E00131213364294D
:1041600009D01A788242F8D14B015918212228002F
:10417000514409F051FB6B7822680137935523684D
:104180006A7C9B1980331A702368AA789B195A702D
:104190002368AA7C9B1981331A702368EA789B19DB
:1041A0009A702368EA7C9B1982331A7023682A79F3
:1041B0009B19DA7023682A7D9B1983331A70236850
:1041C0006A799B191A7123686A7D9B1984331A7066
:1041D0002368AA799B195A712368AA7D9B19853394
:1041E0001A702368EA799B199A712368EA7D9B19F2
:1041F00086331A7023682A7A9B19DA7123682A7E1B
:104200009B1987331A7023686A7A9B191A7223687C
:104210006A7E9B1988331A702368AA7A9B195A728E
:104220002368AA7E9B1989331A702368EA7A9B193E
:104230009A722368EA7E9B198A331A7023682A7B54
:104240009B19DA7223682A7F9B198B331A702368B3
:104250006A7B9B191A7323686A7F9B198C331A70C7
:104260002368AA7B9B195A732368AA7F9B198D33F5
:104270001A702368EA7B9B199A732368EA7F9B195B
:104280008E331A7023682A7C9B19DA73424623689E
:10429000AA5C9B198F3310361A70602E00D058E735
:1042A000434B2E009B4680235B005A1B9146C02245
:1042B0001036039333005200521B160098463D4FB0
:1042C0005B4600211878534603E00131213364290D
:1042D00009D01A788242F8D14B01591821222800BE
:1042E000514409F099FA2B000AE0597C20685A7869
:1042F0004844C25422689219D154013398450AD0D7
:104300003A78002AF1D1597C5A78C943D243C9B2CC
:104310005A705974EAE7012310229C46E3449446FC
:10432000039B21321033FF320393E1441036934252
:10433000C6D1214B9B46A0235B005A1B9146E0222D
:104340005200521B160003935B4600211878534617
:1043500003E001312133642909D01A788242F8D16F
:104360004B01591821222800514409F055FA2B001D
:104370000AE0597C20685A784844C254226892194D
:10438000D1540133984519D03A78012AF1D1597C9A
:104390005A78C943D243C9B25A705974EAE7C04641
:1043A000784F002081020000042800203C1F0110EB
:1043B000441F0110280C0220481F01100123102265
:1043C0009C46E3449446039B71321033FF320393BF
:1043D000E14410369342B7D14023084A3C21137080
:1043E000002307480093074B0BF01CFA0FB0F0BCFA
:1043F000BB46B246A946A046F0BDC046E834002000
:10440000E8110020010400000923F0B500251E4C2E
:104410001E4FA5446B4402AC3900132218002570CE
:1044200009F0FAF9AE231A4E220023753C21993B7C
:10443000300000950BF0F6F9642007F073FF0923B4
:104440006B44390013221800257009F0E5F9AF23F9
:10445000220023753C219A3B300000950BF0E2F9D5
:10446000642007F05FFF40230A4A3C2113703000AC
:10447000094B00950BF0D6F9642007F053FF00209C
:10448000064B9D44F0BDC046F4FBFFFF4C210110DC
:10449000E8110020E8340020010400000C040000B2
:1044A000F0B54E46DE46574645468146002300227B
:1044B000E0B5FE4C8FB080208000844621688030BB
:1044C000C918614484460A7021688030C918614463
:1044D00084460A7021688030C918614484460A7095
:1044E0002168F348C918614484460A702168F1487C
:1044F000C918614484460A702168EF48C9186144AC
:1045000084460A702168ED48C918614484460A70DF
:104510002168EB48C918614484460A702168E9485B
:10452000C918614484460A702168E748C918614483
:1045300084460A702168E548C918614484460A70B7
:104540002168E348C918614484460A702168E1483B
:10455000C918614484460A702168DF48C91861445B
:1045600084460A702168DD48C918614484460A708F
:1045700021688038C918FF38614484460A70216870
:104580008030C918614484460A7021688030C91897
:10459000614484460A7021688030C91861448446A9
:1045A0000A702168CE48C918614484460A7021689F
:1045B000CC48C918614484460A702168CA48C918A1
:1045C000614484460A702168C848C9186144844619
:1045D0000A702168C648C918614484460A70216877
:1045E000C448C918614484460A702168C248C91881
:1045F000614484460A702168C048C91861448446F1
:104600000A702168BE48C918614484460A7021684E
:10461000BC48C918614484460A702168BA48C91860
:10462000614484460A702168B848C91861448446C8
:104630000A7021688038C918FF38614484460A70BE
:1046400021688030C918614484460A70216880302E
:10465000C918614484460A7021688030C9186144D1
:1046600084460A702168AA48C918614484460A70C1
:104670002168A848C918614484460A702168A64880
:10468000C918614484460A702168A448C918614465
:1046900084460A702168A248C918614484460A7099
:1046A0002168A048C918614484460A7021689E4860
:1046B000C918614484460A7021689C48C91861443D
:1046C00084460A7021689A48C918614484460A7071
:1046D00021689848C918614484460A702168964840
:1046E000C918614484460A7021689448C918614415
:1046F00084460A7021688038C918FF3861448446AE
:104700000A7021688030C918614484460A702168A3
:104710008030C918614484460A7021688030C91805
:10472000614484460A7021688548C91861448446FA
:104730000A7021688348C918614484460A70216858
:104740008148C918614484460A7021687F48C918A5
:10475000614484460A7021687D48C91861448446D2
:104760000A7021687B48C918614484460A70216830
:104770007948C918614484460A7021687748C91885
:10478000614484460A7021687548C91861448446AA
:104790000A7021687348C918614484460A70216808
:1047A0007148C918614484460A7021686F48C91865
:1047B000614484460A702168C918614410330A7044
:1047C000802B00D077E64B465B7905AD302B01D1CD
:1047D00000F07DFC664B674903939C46212228002C
:1047E000614409F019F8A02326686A789B00F25406
:1047F0006A7C8033F254AA782E4BF254AA7C2E4B5A
:10480000F254EA782F4BF254EA7C2F4BF2542A7977
:10481000304BF2542A7D304BF2546A797F3BF2548C
:104820006A7D8033F254AA792E4BF254AA7D2E4B26
:10483000F254EA792F4BF254EA7D2F4BF2542A7A44
:10484000304BF2542A7E304BF2546A7A7F3BF2545A
:104850006A7E8033F254AA7A2E4BF254AA7E2E4BF3
:10486000F254EA7A2F4BF254EA7E2F4BF2542A7B11
:10487000304BF2542A7F304BF2546A7B7F3BF25428
:104880006A7F8033F254AA7B2E4BF254AA7F2E4BC0
:10489000F254EA7B2F4BF254EA7F2F4BF2542A7CDE
:1048A000304BF2542023EA5C66E0C046784F00208B
:1048B00001020000810200000103000081030000EA
:1048C00002020000820200000203000082030000D6
:1048D00003020000830200000303000083030000C2
:1048E00005020000850200000503000085030000AA
:1048F0000602000086020000060300008603000096
:104900000702000087020000070300008703000081
:104910000902000089020000090300008903000069
:104920000A0200008A0200000A0300008A03000055
:104930000B0200008B0200000B0300008B03000041
:104940000D0200008D0200000D0300008D03000029
:104950000E0200008E0200000E0300008E03000015
:104960000F0200008F0200000F0300008F03000001
:10497000042800203F0C0000B34BF2544B469B78B8
:10498000302B00D1C7E3B14B03999C46212228006C
:10499000614408F041FF84236A789B00F2546A7CEA
:1049A0008033F254AA78AA4BF254AA7CA94BF25451
:1049B000EA78A94BF254EA7CA84BF2542A79A84B26
:1049C000F2542A7DA74BF2546A797F3BF2546A7DF8
:1049D0008033F254AA79A44BF254AA7DA34BF2542B
:1049E000EA79A34BF254EA7DA24BF2542A7AA24B05
:1049F000F2542A7EA14BF2546A7A7F3BF2546A7ECB
:104A00008033F254AA7A9E4BF254AA7E9D4BF25404
:104A1000EA7A9D4BF254EA7E9C4BF2542A7B9C4BE3
:104A2000F2542A7F9B4BF2546A7B7F3BF2546A7F9D
:104A30008033F254AA7B984BF254AA7F974BF254DE
:104A4000EA7B974BF254EA7F964BF2542A7C964BC2
:104A5000F2542023EA5C954BF2544B46DB780399E1
:104A6000302B00D155E3924B9C4621222800614413
:104A700008F0D2FEC4236A789B00F2546A7C80332B
:104A8000F254AA788B4BF254AA7C8B4BF254EA78FE
:104A90008A4BF254EA7C8A4BF2542A79894BF254BD
:104AA0002A7D894BF2546A797F3BF2546A7D8033C8
:104AB000F254AA79854BF254AA7D854BF254EA79D7
:104AC000844BF254EA7D844BF2542A7A834BF2549D
:104AD0002A7E834BF2546A7A7F3BF2546A7E80339B
:104AE000F254AA7A7F4BF254AA7E7F4BF254EA7AB0
:104AF0007E4BF254EA7E7E4BF2542A7B7D4BF2547D
:104B00002A7F7D4BF2546A7B7F3BF2546A7F80336D
:104B1000F254AA7B794BF254AA7F794BF254EA7B88
:104B2000784BF254EA7F784BF2542A7C774BF2545C
:104B30002023EA5C764BF2544B461B79302B00D194
:104B4000D9E2744B03999C4621222800614408F065
:104B500063FEA8236A789B00F2546A7C8033F25487
:104B6000AA786D4BF254AA7C6C4BF254EA786C4BE9
:104B7000F254EA7C6B4BF2542A796B4BF2542A7D47
:104B80006A4BF2546A797F3BF2546A7D8033F25467
:104B9000AA79674BF254AA7D664BF254EA79664BC8
:104BA000F254EA7D654BF2542A7A654BF2542A7E20
:104BB000644BF2546A7A7F3BF2546A7E8033F2543B
:104BC000AA7A614BF254AA7E604BF254EA7A604BA7
:104BD000F254EA7E5F4BF2542A7B5F4BF2542A7FF9
:104BE0005E4BF2546A7B7F3BF2546A7F8033F2540F
:104BF000AA7B5B4BF254AA7F5A4BF254EA7B5A4B86
:104C0000F254EA7F594BF2542A7C594BF254202338
:104C1000EA5C584BF254FF3B98462023564A0293D5
:104C200094461A3B9A46039B63449B464F46029B1D
:104C300057441E013B782122302B00D142E25946D5
:104C4000280008F0E9FD99E00F030000810C000046
:104C50001102000091020000120200009202000006
:104C600013020000930200001502000095020000EC
:104C700016020000960200001702000097020000D2
:104C800019020000990200001A0200009A020000B6
:104C90001B0200009B0200001D0200009D0200009C
:104CA0001E0200009E0200001F0200009F02000082
:104CB000C30C000011030000910300001203000068
:104CC000920300001303000093030000150300008B
:104CD0009503000016030000960300001703000070
:104CE0009703000019030000990300001A03000055
:104CF0009A0300001B0300009B0300001D0300003B
:104D00009D0300001E0300009E0300001F0300001F
:104D10009F030000FD0B0000A10200002103000022
:104D2000A202000022030000A302000023030000EF
:104D3000A502000025030000A602000026030000D3
:104D4000A702000027030000A902000029030000B9
:104D5000AA0200002A030000AB0200002B0300009F
:104D6000AD0200002D030000AE0200002E03000083
:104D7000AF0200002F030000BB0B000023686A781D
:104D80009B1930331A7023686A7C9B19B0331A70F0
:104D90002368AA789B1931331A702368AA7C9B195F
:104DA000B1331A702368EA789B1932331A7023687A
:104DB000EA7C9B19B2331A7023682A799B19333322
:104DC0001A7023682A7D9B19B3331A7023686A7995
:104DD0009B1934331A7023686A7D9B19B4331A7097
:104DE0002368AA799B1935331A702368AA7D9B1909
:104DF000B5331A702368EA799B1936331A70236821
:104E0000EA7D9B19B6331A7023682A7A9B193733C7
:104E10001A7023682A7E9B19B7331A7023686A7A3E
:104E20009B1938331A7023686A7E9B19B8331A703D
:104E30002368AA7A9B1939331A702368AA7E9B19B2
:104E4000B9331A702368EA7A9B193A331A702368C7
:104E5000EA7E9B19BA331A7023682A7B9B193B336D
:104E60001A7023682A7F9B19BB331A7023686A7BE8
:104E70009B193C331A7023686A7F9B19BC331A70E4
:104E80002368AA7B9B193D331A702368AA7F9B195C
:104E9000BD331A702368EA7B9B193E331A7023686E
:104EA000EA7F9B19BE331A7023682A7C9B193F3313
:104EB0001A7020222368AA5C9B19BF3310361A701F
:104EC0000137B04500D0B5E603239C46029BE2447F
:104ED0001033029380235B009C465346E0440C2B26
:104EE00000D0A3E64B461B780399302B00D100E19C
:104EF000904B9C4621226144280008F08DFC9C23A5
:104F000024686A789B00E2546A7C8033E254AA7871
:104F1000894BE254AA7C894BE254EA78884BE254EC
:104F2000EA7C884BE2542A79874BE2542A7D874BEE
:104F3000E2546A797F3BE2546A7D8033E254AA7975
:104F4000834BE254AA7D834BE254EA79824BE254CC
:104F5000EA7D824BE2542A7A814BE2542A7E814BCD
:104F6000E2546A7A7F3BE2546A7E8033E254AA7A42
:104F70007D4BE254AA7E7D4BE254EA7A7C4BE254AC
:104F8000EA7E7C4BE2542A7B7B4BE2542A7F7B4BAC
:104F9000E2546A7B7F3BE2546A7F8033E254AA7B0F
:104FA000774BE254AA7F774BE254EA7B764BE2548C
:104FB000EA7F764BE2542A7C754BE2542023EA5C6C
:104FC000744BE2544B465B780399302B00D183E05D
:104FD000714B21229C462800614408F01DFCDC2313
:104FE0006A789B00E2546A7C8033E254AA786B4B67
:104FF0003C21E254AA7C6A4BE254EA78694BE254C1
:10500000EA7C694BE2542A79684BE2542A7D684B6A
:10501000E2546A797F3BE2546A7D8033E254AA7994
:10502000644BE254AA7D644BE254EA79634BE25448
:10503000EA7D634BE2542A7A624BE2542A7E624B49
:10504000E2546A7A7F3BE2546A7E8033E254AA7A61
:105050005E4BE254AA7E5E4BE254EA7A5D4BE25428
:10506000EA7E5D4BE2542A7B5C4BE2542A7F5C4B28
:10507000E2546A7B7F3BE2546A7F8033E254AA7B2E
:10508000584BE254AA7F584BE254EA7B574BE25408
:10509000EA7F574BE2542A7C564BE2542023EA5CC9
:1050A000554BE2544023554A554813700023009352
:1050B000544B0AF0B7FB0FB0F0BCBB46B246A94652
:1050C000A046F0BD2800504908F0A6FB56E64F4B1D
:1050D0004F490393FFF781FB4E4B9C462B006144E5
:1050E00045C945C345C945C305C905C30A781A70F2
:1050F00075E7494BFDE6494A039B94462A00634401
:1051000083CB83C283CB83C203CB03C21B781370D0
:105110001FE5434BA8E4C622120194462A00039BD4
:10512000634483CB83C283CB83C203CB03C21B788C
:10513000137030E4370B000071020000F102000030
:1051400072020000F202000073020000F30200008D
:1051500075020000F502000076020000F602000071
:1051600077020000F702000079020000F902000057
:105170007A020000FA0200007B020000FB0200003D
:105180007D020000FD0200007E020000FE02000021
:105190007F020000FF020000790B00007103000095
:1051A000F103000072030000F2030000730300002B
:1051B000F303000075030000F50300007603000010
:1051C000F603000077030000F703000079030000F6
:1051D000F90300007A030000FA0300007B030000DB
:1051E000FB0300007D030000FD0300007E030000C0
:1051F000FE0300007F030000FF030000E8340020EE
:10520000E8110020010400009E3300200428002043
:105210001E0C0000580B0000160B0000DC0B0000F9
:10522000A20C0000F0B5DE4657464E464546C04843
:10523000E12484460021E0B5240187B00490644451
:105240000200012303E0962B06D0023201331180C5
:10525000012BF8D10380F8E72D30FF308442EFD1E5
:105260008022B4495200B44808F0D6FAFDF7E0FEB7
:10527000F02380255B0305936D0080225205944640
:10528000059B63440393049B0293002301938022B4
:1052900003995200A94808F0BFFA8022D201924631
:1052A000A74A80279146802292019046A54AA34BA7
:1052B0009446A54A5C1C934602980199FF347F01ED
:1052C00054E001260288B2435E78002E59D00226AF
:1052D00032439E78002E59D004263243DE78002EC9
:1052E00059D0082632431E79002E59D01026324359
:1052F0005E79002E59D0202632439E79002E59D057
:1053000040263243DE79002E59D0802632431E7A61
:10531000002E59D05E7A2A43002E5AD08026B6003D
:1053200032439E7A002E59D08026F6001643DA7A50
:10533000002A58D08022120132431E7B002E57D003
:105340005E7B3A43002E58D0464632439E7B002E69
:1053500058D056463243DE7B002E58D07B4E324327
:1053600002801033013102309C4258D07729F8DC9A
:105370001A78002AA5D00122068832435E78002ED2
:10538000A5D10226B2439E78002EA5D10426B243B1
:10539000DE78002EA5D10826B2431E79002EA5D1B5
:1053A0001026B2435E79002EA5D12026B2439E7905
:1053B000002EA5D14026B243DE79002EA5D180264D
:1053C000B2431E7A002EA5D1614E32405E7A002E85
:1053D000A4D1604E32409E7A002EA5D15E4E16407A
:1053E000DA7A002AA6D15D4A32401E7B002EA7D170
:1053F0005E4632405E7B002EA6D1664632409E7BE2
:10540000002EA6D14E463240DE7B002EA6D152049D
:10541000520C10330280013102309C42A6D1039B12
:10542000029A0133FF330393019B2032103301931F
:105430000292AB4200D02AE780235B019C46049B8A
:10544000059A2D33FF330493F623624405925B03E0
:105450009A4200D011E7424C019A2000414908F0DD
:10546000DBF9414B2278DA70332261789954A178C4
:1054700030329954E178303299542179303299544C
:105480006179303299542422A179FF3299545422FF
:10549000E179FF3299548422217AFF329954B4225F
:1054A000617AFF329954E422A17AFF329954E17A69
:1054B0002E4A995400232E4A13702E4A13702E4AF6
:1054C00013702E4A13702E4A2E4913702E4A2F4CF9
:1054D00013702F4A200013702E4A137001220A7095
:1054E0002D490A702D490A702D490A702D490B70FB
:1054F0002D490B702D490A702D4A302113700C2252
:1055000008F084F9FA20800006F00CFF00212948F9
:10551000FBF7AAFA00212848FBF7EEFC2000FEF773
:10552000BFFF07B0F0BCBB46B246A946A046F0BDDF
:10553000803B002000001F10C04F0020C050002002
:10554000FFBFFFFFFFDFFFFFFFEFFFFF0080FFFF59
:10555000FFFEFFFFFFFDFFFFFFFBFFFFFFF7FFFF6A
:10556000C051002000F01E10F83800201302000087
:105570001D0C0220190C0220140C0220160C022013
:10558000170C02202F110020150C022014110020EE
:10559000210C0220220C02202E1100202C110020B0
:1055A0002D110020200C0220180C022010110020C8
:1055B000230C0220501F01105C1F0110F8B5DE46BD
:1055C00057464E464546E0B5A44B1B780A2B00D9FA
:1055D0003EE1A34A9B00D3589F460622A14BA24E10
:1055E0001D786C0063191B01F3185A7000229F4F3D
:1055F0005A719A716319BA781B01F3189A709C4A10
:105600001278002A00D118E105225A700523984625
:1056100063191B01F3189D706319FA781B01F318C5
:10562000DA703A78002A02D042460A325A703900BB
:105630006419200122300C223018223108F0ECF8D5
:105640008C4B8022180000219B4608F0DFF81D23B8
:1056500098465B465D1E00239A46874FB04401364C
:1056600053460124DBB29946631E032C12D0022B51
:1056700000DD8FE0002B00D1DCE0012B00D096E0B4
:105680003379AB703800295D09F0FEFD0134631EEB
:10569000032CECD17379EB70F4E7724B724E1D78EA
:1056A00007226C0063191B01F3189EE76D4B6E4EC9
:1056B0001D7801226C0063191B01F31895E7694BF3
:1056C000694E1D7802226C0063191B01F3188CE7E8
:1056D000644B654E1D7803226C0063191B01F3189F
:1056E00083E704225F4B604E1D78604F6C006319A6
:1056F0001B01F3185A70033A5A7101329A7179E713
:105700000422584B584E1D78584F6C0063191B01EA
:10571000F3185A70033A5A7102329A716AE70422F6
:105720000121504B504E1D78504F6C0063191B01E6
:10573000F3185A7059719A715CE70422494B4A4E2A
:105740001D784A4F6C0063191B01F3185A70033A15
:105750005A7104329A714DE70422424B424E1D7831
:10576000424F6C0063191B01F3185A70033A5A71C7
:1057700006329A713EE704223A4B3B4E1D783B4F6E
:105780006C0063191B01F3185A707A795A71BA794F
:105790009A712FE7032B0AD10A21307807F0AAF972
:1057A000C9B24B46052900D073782B716AE743468E
:1057B000195D3800295509F067FD102C00D065E708
:1057C0000A2009F08BFC01239C462F33E2449C46BF
:1057D0005346E044103530360C2B00D040E7802291
:1057E000F820520059464003FAF772FDFDF70CFE0F
:1057F000224D00212800FBF737F9214C0021200021
:10580000FBF77AFBFA20400006F08CFD280001210E
:10581000FBF72AF901212000FBF76EFBFA2040007C
:1058200006F080FDFFF7FEFCF0BCBB46B246A94681
:10583000A046F8BD33786B7024E75B780A21180026
:10584000984607F057F9C9B2052900D0E4E6DFE62B
:10585000044B054E1D78054F6C00CBE6220C022050
:10586000741F01101F0C0220F8380020383B002064
:10587000230C0220C0520020441E0110641F01109E
:105880006C1F0110F8B504009620400006F04AFD98
:1058900000220421200005F0D3FCB94B1B78022B19
:1058A00009D0062B65D0012B1DD001220421200038
:1058B00005F0C6FCF8BDB34BB3481B19023B1B787F
:1058C000002B00D19CE0012B00D0A8E04378302BC6
:1058D00000D1BDE20021302343702323AB4AD154D1
:1058E000FEF7DEFDE1E7A74BA94A1B19023B1B7837
:1058F000A5481370002B59D030220270012B00D123
:10590000DDE04270022B53D1A24A42803022027164
:10591000052B00D0A0E03121827141713022C2718B
:10592000082B00D09EE09B4A028130228272013215
:105930000B2B00D09DE0C2725A00944DD218964BAA
:1059400012019B182A00C2CBC2C2C2CBC2C2C2CBB8
:10595000C2C2C2CBC2C2FEF7A3FD6B78052B00D139
:10596000BFE12B780021002B55D08C48FBF7C4FAFF
:105970009BE7844B864A1B19023B11781B78884AA7
:1059800081481278002B2BD0012B74D14378302B17
:1059900000D1ABE130234370663359438A180421A8
:1059A000804D5200535B8B43535399E7794A0280F1
:1059B00030228270032B4CD0C270042BA6D1754AC2
:1059C000828030228271072BA8D131210272C171ED
:1059D000302242720A2BA8D131228272013AAAE700
:1059E0000378302B00D109E230230370663359432A
:1059F0008A1802216B4D5200535B8B4353536FE760
:105A00000378302B00D108E20021302303702223D9
:105A10005E4AD15464E76448FBF76EFA45E7022B0F
:105A20000AD18378302B00D1FDE10021302383702F
:105A30002423564AD15453E7032B55D1C378302B36
:105A400000D1EDE100213023C37025234F4AD1540A
:105A500046E731210271C17030224271062BB0D16C
:105A60004C4AC28030220272092BB1D1312182729C
:105A7000417230225FE7022B0FD18378302B00D1A7
:105A8000B0E130238370663359438A180821454DAD
:105A90005200535B8B43535322E7032B12D1C3783D
:105AA000302B00D192E13023C370663359438A18FA
:105AB00010213C4D5200535B8B43535310E731226E
:105AC000427075E7042B1CD10379302B00D171E1B2
:105AD00030230371663359438A182021314D520017
